:020000040800F2
:20000000182F0020A12C0008092C00080B2C00080000000000000000000000000000000028
:200020000000000000000000000000000D2C000800000000000000000F2C0008112C0008F7
:200040001B1500081B1500081B1500081B1500081B1500081B1500081B1500081B150008E0
:200060001B1500081B1500081B1500081B1500081B1500081B1500081B1500081B150008C0
:200080001B1500081B1500081B1500081B1500081B1500081B1500081B1500081B150008A0
:2000A0001B1500081B1500081B1500081B1500081B1500081B1500081B1500081D2C000867
:2000C000FFFFFFFFFFFFFFFFFFFFFFFFFFFFFFFFFFFFFFFFFFFFFFFFFFFFFFFFFFFFFFFF40
:2000E000FFFFFFFFFFFFFFFFFFFFFFFFFFFFFFFFFFFFFFFFFFFFFFFFFFFFFFFFFFFFFFFF20
:20010000000000000000000000000000000000004A2D4C696E6B204F422D53544D3332465D
:200120003037322D436F727465784D20636F6D70696C6564204D6172202038203230313629
:200140002031313A31353A35342000436F7079726967687420323030332D323031342053B5
:2001600045474745523A207777772E7365676765722E636F6D20000000000000000000001E
:20018000FFFFFFFFFFFFFFFFFFFFFFFFFFFFFFFFFFFFFFFFFFFFFFFFFFFFFFFFFFFFFFFF7F
:2001A000FFFFFFFFFFFFFFFFFFFFFFFFFFFFFFFFFFFFFFFFFFFFFFFFFFFFFFFFFFFFFFFF5F
:2001C000FFFFFFFFFFFFFFFFFFFFFFFFFFFFFFFFFFFFFFFFFFFFFFFFFFFFFFFFFFFFFFFF3F
:2001E000FFFFFFFFFFFFFFFFFFFFFFFFFFFFFFFFFFFFFFFFFFFFFFFFFFFFFFFFFFFFFFFF1F
:20020000F8B5040000250027002C01D10120F2BDF420400026187078002803D135702000D8
:2002200000F0CCFE032070700CE01C21794361182922885428228F542B228D544D638D6381
:20024000CD637F1C012061688F42EED300210CE01C224A43A21884235B00D2185570117093
:20026000D570D56015615561491C62689142EFD322684023D0522268D55222684423D5523C
:2002800022685023D552BF21090222684023D1522421655470700020F2BD00685821415A16
:2002A000802212020A43582142520020704738B5040020684421405A000402D5200000F0F4
:2002C000D1FC20684421415A49050CD54421415A334A0A4044214252200000F0B1FE0021FA
:2002E000200000F06BF82068010040318A88520403D58A882B4B13408B808A88920403D5EB
:200300008A88294B13408B8080256D018A882A4211D04022805A254A02400A80BD20000231
:200320000880200000F0A8FE20684421415A204A0A40442142522068010040318A88120527
:2003400013D58A881B4B13408B804022825A082313430B804022805A042202430A80888854
:20036000284202D1200000F077FE20684421415A890508D54421415A0F4A0A40442142522C
:20038000200000F056FE20684421415AC90505D54421415AB44A0A404421425231BD00009A
:2003A000FFFB0000FFBF0000FFDF0000FBFF0000FFEF0000FFF70000FFFD0000F422520065
:2003C00082181378012B01D102207047012313700B0004D1802100684C23C15201E02423E7
:2003E000C154002010707047F1B581B07F247F250D401C26754340190D0601D5283002E0B0
:2004000084256D0040190C400470C90941701100C260C370019AF4235B00D25C012A01D18C
:200420000220F6BD0122019BF42464001A558F4AC378002B05D0022B0DD01ED3032B13D01D
:2004400026E0019B1B680478A4001B191C8822408024A4001AE0019B1B680478A4001B1968
:200460001C8822401A8013E0019B1B680478A4001B191C882240C02407E0019B1B6804780A
:20048000A4001B191C8822408024E40014431C800478019A1268A300D518754B2E88754FA8
:2004A000374027431F432F800678C024A401724D877A002F59D1F600009687886F4E3E4054
:2004C0004778002F1CD05021515A009C091989188024E40009190E800178890051180C8890
:2004E000660604D5634E2640B74C34430C8000788000101801880D40202169400B43B1E0DB
:200500005025555B009FED19AD185F09ED192E805025555B0678F600AD19AD18BE1CAD196C
:200520003F2908D34E09C90600D1761EB60280210902314304E04E08C90700D5761CB102F1
:2005400029800178890051180D886E0404D5494E2E409E4D35430D80007880001018018809
:200560009B4A0A40544023437CE0B10051180F88404E3E40974F37430F805021515A0678B0
:20058000F600891989188026F6008919C6883B4F37400F805021515A0678F6008919891833
:2005A0005E0989190689354F37400F800178890051184678002E2BD10E88770404D52D4F60
:2005C0003740824E3E430E800178890051180E88770604D5274F37407B4E3E430E80017830
:2005E000890051180F88234E3E40774F37430F800178890051180E88754F37407C401C435D
:200600000C8000788000101801880D402B4329E00C88660404D5174E26406C4C34430C8084
:200620000178890051180C88660604D5114E2640654C34430C800178890051180C880D4EA3
:200640002640624C34430C800178890051180C8825401D430D8000788000101801885C4AE3
:200660000A401343A9E00000FFFE00008F890000808000008F8F0000BF8F0000FEFF0000D3
:20068000F1B581B07F227F230B401C246343C0180B0601D5283002E084235B00C0180A40F2
:2006A0000270C90941700199F4225200895C012901D10220F6BD0121019AF4235B00D15439
:2006C00001990968027892008A1800924678404A8025ED018D4B8E4C877A002F16D1002EFD
:2006E0000AD0009A1288550637D58A4D1540364A2A43009D2A8030E0009C24882C4256D039
:20070000844D2540314C2C43009D4FE0002E009E368829D12E4205D07E4D35402B4E2E43F8
:20072000009D2E800578AD004D192E88770604D5784F3740244E3E432E800578AD004D1963
:200740002F88744E3E40204F37432F800578AD004D192E8832401A432A8000788000081833
:2007600001880C40234328E02E4205D0694D3540164E2E43009D2E800578AD004D192E8860
:20078000770604D5634F37400F4E3E432E800578AD004D192F885F4E3E400C4F37432F8058
:2007A0000578AD004D192E8834401C432C8000788000081801880A401343038000200199F6
:2007C000F42252008854F6BDC080000080C000008FBF000080810000F1B582B07F20029C3E
:2007E0007F250D401C267543641984256D006419226163610022A26162700840207002984E
:20080000F4214900401801900078012801D10220FEBD012301990B706069E268824201D25E
:20082000801A01E0020000206061500851091340009380231B02A57A002D2DD06578002DAF
:200840001AD1029D2D685026AE5B2778FF00F61975199F4EAD193F2A06D30E00D70600D10E
:20086000761EB6021E4305E00600009F002F00D0761CB6022E800CE0012D27D1029D2D6804
:200880005026AE5B2778FF00F6197519904EAD192A806578002D19D1029D2D685026AE5BA9
:2008A0002778FF00F6197519A94EAD193F2A06D3D00600D1491E880203432B8014E00099E8
:2008C000002900D0401C800228800DE0607801280AD1029800685021415A2378DB00C9186B
:2008E00008189B4940180280029800682178890040180188084A0A40C02189015140034A30
:200900000A430280002001990870FEBD80800000BF8F00008F8F00008FBF00004906490EBB
:200920001C225143401890214900405880B27047F1B584B07F20049C7F250D401C2675430E
:20094000651928352A616B610022AA6101226A70084028700498F421490040180190007800
:20096000012801D10220B1E001990A706869EC68844201D2001B01E0040000206861049872
:2009800000680090A87A002811D1A3B2AA882969009800F041F9049800685021415A2A78A6
:2009A000D200891808184A49401804807EE060096B782E78224002921F21009AB700D25D2F
:2009C00052062AD5624A002B1AD1009B5027DB5BF6009B19009E9B199A183F2C08D3214061
:2009E00000D1401E8002802109020143118012E060080299002900D0401C800210800AE07F
:200A0000012B08D100985021405AF100401800994018801804802A892AE0002B1BD1009A6A
:200A20005023D25AF300D218009BD218284BD2183F2C08D3214000D1401E80028021090254
:200A40000143118013E060080299002900D0401C800210800BE0012B09D100985021405AD0
:200A6000F100401800994018194940180480EA88A3B22969009800F0CFF869785F480029A5
:200A800008D1049909682A78920089180A8810405B4A09E0012909D1049909682A789200E4
:200AA00089180A881040574A02430A80049800682978890040180188534A0A40302151406B
:200AC000524A0A43028000200199087005B0F0BD02040000B8B5F422520083181A78012AE4
:200AE00001D10220B2BD01251D707F220C0606D57F240C401C277C430419283405E01C24C3
:200B00004C43041984277F00E419A5700A402270C909617001683D48150004D10A883C4C7C
:200B20001440C2080DE0920089186278002A0A8803D0354C1440102203E0364C14408022AC
:200B4000520162401043088000201870B2BD000006040000F8B57F250A0606D57F220A407D
:200B60001C235A438218283205E01C224A43821884235B00D218002393700D401570C909A5
:200B80005170F4214900415C012901D10220F2BD0121F424640001550468117889006118E1
:200BA00000911A49154D5678002E009E36880ED0770604D53540124E2E43009D2E80127838
:200BC0009200A2181488104D254030240EE0770404D535400B4E2E43009D2E80127892002F
:200BE000A21814880B4D2540C024A4016C4021431180F421490043540020F2BD8F8F0000D6
:200C0000C080000080C00000BF8F000080800000BFBF00008FBF000010B510188022D200D9
:200C200080185B1C5A0807E00B784C7824021C430480801C891C521EF6D110BD18B51018D2
:200C40008022D20080185A0806E00488801C0C70240A4C70891C521EF7D1DA0701D5008896
:200C6000087011BDFEB500216A461180CA4F040028E00188C94A0A40028020685021415AF8
:200C80002822A25CD20089180818F91C4018008838402064A16B0818A0630021200000F028
:200CA000BDF92420205C00280CD0E06B002809D12420205C8021014320684C2281520020DF
:200CC0002421605420684421415A6A461180090400D45EE1694609880907090F00D087E093
:200CE00069460988C906C4D501000A886B461A801B881B0521D55022825A84235B00E35C26
:200D0000DB00D2185118A64A89180B883B408421490061188B618421490061188A88F62123
:200D200049006118FFF78AFF206801889D4A0A400280200000F05BF9C4E768460088000465
:200D4000C0D598481040088020685021415A84225200A25CD20089180918914A89180B8819
:200D60003B408421490061188B61002B16D08421490061188A888421490061180969FFF74C
:200D80005DFF842040002018006984214900611889694018842149006118086100212000B0
:200DA00000F02FF920685021415A08187C494018842149006118C9683F2908D34A09C9064D
:200DC00000D1521E920280210902114304E04A08C90700D5521C9102018020680188724A14
:200DE0000A40C02189015140704A0A43028069E78A000292821810886B4618801C23594360
:200E0000611801916946098809045BD565490140118001988421490046183378D9002068D9
:200E2000B57A002D0FD15023C35A591809185C4A891809883D000D402FD02B00B2883169F4
:200E4000FFF7FCFE29E09B00C35A5B040CD55023C35A59180918FA1C891809883D000D40AD
:200E600011D02B00F2880BE05023C35A591809184B4A891809883D000D4004D02B003289D4
:200E80003169FFF7DBFE20683178890040180188474A0A40474911430180B0694019B0618B
:200EA00031694A1932617369002B02D0F068854204D23178200000F0A4F803E031782000D3
:200EC000FFF78AFC6846008800065DD5019D28352068029940180188304A0A4002802B7840
:200EE000D80022681100AE7A002E0FD15023D25A10184018F91C401803883B40AB612ED0AD
:200F0000AA8829692068FFF787FE28E09B00D35C5B060BD55023D25A10184018F91C40186B
:200F200003883B40AB6110D0EA880AE05023D25A101840181A49401803883B40AB6104D0A3
:200F40002A8929692068FFF767FE20682978890040180188164A0A40174911430180297856
:200F600020685022825ACB00D2181018FA1C801800883840A8612A6912182A616B69002BC0
:200F800003D1200000F04AF89CE62000FFF7D0FC98E60020FEBD0000FF0300000F8F0000CE
:200FA000060400008F0F00008FBF0000808000008F8F0000C080000080C00000006892495A
:200FC000884200D0704780B5802000048F490A6802430A60096808400090009800220121C9
:200FE0001F2000F035F91F2000F036F901BD80B5F6214900411887229200805800F099F9F5
:2010000001BD80B51C224A4382188C235B00D25887239B00C05800F0B9F901BD80B51C2214
:201020004A438218926B87239B00C05800F0E3F901BD80B587218900405800F05CFA01BDA3
:2010400010B58721890044180121206801740020206800F01EFA10BD10B5040087208000B2
:20106000205800F038FAA069002804D06848016806220A43026010BD10B50400A06900281A
:2010800006D06348016806229143016000F07EFA87208000205800F027FA10BD10B501005E
:2010A0005C48872292008150121D8C1820605649016008214160022181600022C2600161B9
:2010C0008261C2610262FFF79BF8002804D0FF214031002000F0DCFA1823002200212068A4
:2010E00000F0D9FA582300228021206800F0D3FA982300228121206800F0CDFAD8230022CF
:201100000121206800F0C7FA90235B0000228121206800F0C0FAC0235B0000220121206866
:2011200000F0B9FA002010BD10B50024882189004058FFF7B2F8002804D0022801D10124AF
:2011400000E00224200010BD38B515001A0000242B008825AD004059FFF746F938E010B52C
:201160000024882292008058FFF78AFAE3E710B50024882292008058FFF7ACFCDBE710B5D1
:201180000024882292008058FFF7E4FCD3E781B08822920080584A06520E1C235A4380181E
:2011A000090601D52A2101E085214900405C01B0704710B50024882292008058FFF7FEF842
:2011C000B9E738B500248825AD004059FFF7B0FB002804D0022801D1012400E00224200087
:2011E00032BD38B500248825AD004059FFF7F4FAEEE780B5882292008058FFF78FFB02BDBB
:201200000548704700000000005C00401C10024010ED00E0DC060020FC08002018B5C2002E
:2012200018231340FF249C40E2438907090E9940002804D51C4B0007000F083800E01B4B78
:2012400080088000181803681A401143016011BD80B5FFF7E3FF01BD0121C006C00E8140CC
:2012600013480160704710B5401E80214904884201D3012010BD0F4C606003210020C043FC
:20128000FFF7CCFF0020A0600721216010BD09490428086803D1042202430A607047042283
:2012A00090430860704700001CED00E000E400E000E100E010E000E080B5C046C04601BDFF
:2012C00010B5002801D1022010BDFE235B00C3189C69002C01D000249C61002900D0596133
:2012E000012119700270FFF7D9FE002010BD02000020002903D085239B00D15070470220BC
:20130000704780B5FFF710FF002002BD10B50224852292008258002A04D012689047002888
:2013200000D10024200010BD80B5852292008258EFE038B50400822080002518280000F04C
:2013400079FBFA204000201801210160418B4160017DC806C00E03D002280BD005D30EE0DF
:201360002900200000F0B4F90EE02900200000F053FA09E02900200000F06BFA04E0802008
:2013800001402000FFF7F3FE002032BD38B504001000FA225200A3180A0021D11968032923
:2013A00027D18621490061184A680D68AA420AD2AB1A0B60934200D21A0092B20100200087
:2013C00000F08AFB15E0186A0169002904D0187A032801D120008847200000F081FB08E0C8
:2013E000186A8269002A04D0187A032801D120009047002032BDF8B505001000FA225200BD
:20140000AC180A003AD100262168022931D1E9692A6A00928A4207D28A1AEA6192B20100C6
:20142000280000F055FB11E0AF693800114600F06FFB002911D1009887420ED36068874274
:201440000BD20022280000F043FB66600023002200212800FFF7C5FE0BE0206AC168002963
:2014600004D0207A032801D128008847280000F043FB207B01280AD1267308E0206A42695F
:20148000002A04D0207A032801D1280090470020F2BD38B50500402300220021FFF754FE09
:2014A0004024882040002C504023002280212800FFF74AFE2C62FE2040002A180120107009
:2014C000D069002805D06968C9B22800926952689047002032BDFE214900401801784170DD
:2014E0000421017000207047FE2149004018417801700020704780B5FE21490041180A7846
:20150000032A04D18969C969002900D08847002002BD52689047002002BDFEE710B582B0B2
:2015200000F012FB00F032F853480168534A914202D1002101600BE0514CB821090220003F
:2015400000F01AFB002803D172B6200000F032FC002000F053F8002000F074F800F032FC2F
:20156000484800780328FBD1002000F079F8642000F040FC002000F073F80121684600F000
:2015800026FC6846007800F08BFBEDE710B598B020200B9001201390002414940BA800F09E
:2015A00039FC002800D0FEE70720009003200190029403940121684600F038FE002800D093
:2015C000FEE78020800204900A9404A800F030FF002800D0FEE700F001FFFA21890000F0A6
:2015E00097FAFFF740FE0420FFF751FE002200210020C043FFF72CFE18B010BD30B587B086
:2016000080218902204A13680B43136012681140009100991FA142008D5A019501210291CF
:201620000021039103210491184980000C1801A9206800F09DFF00222900206801F06AF853
:2016400007B030BD80B5002200E0000011A14300C95A0E4B8000185801F05CF801BD00004B
:2016600080B500BF0BA14200895A084A8000105801F058F801BD00000001002021433412A1
:2016800000480008B40600201410024000030020FEE70000010010B50C0606D54906490E59
:2016A0001C2461434018283005E01C244C430019842149004018002A03D10021817283806E
:2016C00004E001218172C380190C0181002010BDF8B504000F00FE20400025180020022697
:2016E0007978092951D802A2525C5200974400BF6D804D7D4D0A054D5D2A3900200000F030
:201700001BF985E0B88800283FD1F88800283CD16846B9784906490E01702878032834D05E
:20172000A970684601782000FFF743FD200000F0D7F968460078002801D02E7068E001200D
:20174000287065E07988334A1170117802291CDA0A002B78022B1DD0032B16D1002905D128
:201760002E7060602000FFF7DFFD4EE061688A424BD0C9B22000FFF7D7FD2648017861602E
:201780002000FFF7C3FD02283FD13900200000F065F93DE0002938D06260032028702000A7
:2017A000FFF7B4FD0228F0D02FE0F9880129ECD12978022904D00329E7D10122211D10E04C
:2017C000A0600122210008310BE02978891E0129DBD8E060A868002800D0E66002222100A9
:2017E0000C31200000F066F912E07888012805E02978891E0129C8D87988012908D1A8601F
:2018000039002000AA6992689047200000F068F90020F2BD140F002038B505000C00FE20EC
:2018200040002A18107803280ED1A088C0B202280ADA2800926992689047E088002806D191
:20184000280000F04DF902E0280000F007F9002032BD70B582B004000E00B188C9B2FE20E6
:2018600040002518307860220240202A05D131002000AA69926890475CE07F227F20084066
:201880007378002B2ED0012B11D0032B52D12878022812D0032849D17088002819D10029B2
:2018A00017D0802915D02000FFF761FC11E02A78022A02D0032A04D038E000293AD08029BA
:2018C00017E07288002A35D1002807D02000FFF756FC31002000AA6992689047200000F03B
:2018E000FFF827E02B78022B02D0032B06D01DE000281FD02000FFF73AFC1BE00A4010018E
:2019000020180A0602D50500143502E08222520085182000FFF73BFC002800D001202860F7
:2019200002222900200000F0C5F803E03100200000F094F8002076BD70B582B004000D0022
:201940006888842189006218010A012908D002291FD003292AD0062955D007295BD064E0AF
:201960006946207C1268126890476946098800290ED0E98800290BD06A4612888A4200D9A6
:201980000A0069460A800A880100200000F092F873BD51680226207C0028684603D1896A8D
:2019A00088474670E1E7C96A8847FAE7C0B205283BD801A1095C8F4404101C2834406946F0
:2019C000207C126852689047CFE76946207C126892689047C9E76946207C1268D26890478E
:2019E000C3E76946207C126812699047BDE76946207C126852699047B7E76946207C1268C8
:201A000092699047B1E7207C00280ED168465168496B8847A9E7207C002806D1684651683D
:201A2000096B8847072141709FE72900200000F015F873BD0A7802704A7842708A78CB78E1
:201A40001B02D21842800A794B791B02D21882808A79C97909025118C180704710B50400F3
:201A60008021FFF784FB00212000FFF780FB10BD002800D1704770B504000023002501E0CF
:201A80006D1C641C2678002EFAD12D06EC0DA41C148012880A7003224A70022206E0D2B2A5
:201AA0008C54401C521CD2B28B54521C0478002CF5D170BD10B513000222FA24640002513F
:201AC0008361C3610A000021FFF77BFB002010BD80B513000A000AE080B513000A0012E0FA
:201AE00080B50421FA2252008150002300220021FFF767FB002002BD80B50521FA225200E7
:201B00008150002300220021FFF76BFB002002BD094214D088420FD30122030C01D1000470
:201B20001204002300185B418B4200D35B1A5241F8D319001000704701000020704708B5D0
:201B4000C046C04608BD000080B50648016810220A430260002000F0F5FD00F005FE0020D2
:201B600002BD00000020024008B4024B9C4608BC6047C046D9030020F8B502000B009C1E78
:201B800000920027002511E0060008E0565D7E40F6B208217008F607F6D5714E4640491E5A
:201BA000F8D1380A37004740BFB26D1CA542EDD3D018801E0088874202D00020C043F2BD40
:201BC0000020F2BD00000000F0B583B000200190012101A800F003F90221684600F0F7F846
:201BE000684600885F4988420EDB022100A8801C00F0EDF8684600885B4901406846408887
:201C00008003084369460880584D80218900280000F0DDF81C2200BF5EA1882040002818DF
:201C200000F0C2FD0190002800D0FEE7504FFE0C0123320029003800FFF796FF0123320046
:201C4000A9184C48FFF790FF02240BE03100280000F0BDF80123320029002002C019FFF72B
:201C600083FF641C68460088000A8442EEDB684601883800FFF780FF002800D00120019005
:201C8000012101A800F0ABF8642000F0B3F8BFF34F8F394839490860BFF34F8F00BFFDE799
:201CA00000B589B080214900884202DB0020C0431CE0002201280ED0042819D0052825D026
:201CC000062828D0072829D0E62839D0ED2839D0F02841D043E0702000900221684600F054
:201CE0007EF80099264800F07AF8002009B000BD244800900221684600F071F880200001A8
:201D000000900221684600F06AF8EEE70221684600F05DF8E9E7FFF757FFE6E7684600216D
:201D200000230AC06846E42101700C21417001218170C270017142718171C1710821E2E734
:201D40001148D0E76846202100F05AFD0F4800900F4801902021D5E700920421D2E7FEE71C
:201D60000884000001800000FC3F0000100B002000480008004900080400FA050CED00E063
:201D800010010008E32E000000020020090060880C2800004A2D4C696E6B204F422D535448
:201DA0004D3332463037322D436F727465784D2000000000016881F308884068002282F3D7
:201DC0001488004780B500F01DFD002002BD80B50A000100064800F0A9FD002002BD80B5CA
:201DE0000A000100024800F0EBFD002002BD0000B804002031B500F001FE0400009D002065
:201E0000C043854200D06D1C00F0F8FD001BA842FAD331BDF8B504008B4D2078C00700D43E
:201E200027E18026B60268680C21014004290BD068680C21014008290ED16868C0214902AC
:201E400001407008814207D12868064032D06068002821D10120F2BD6168012908D07B4816
:201E600000290AD0052908D12868710001432960286871080143296006E02968744A0A4035
:201E80002A60296808402860606800280DD000F0B5FD07002868304000D0EAE000F0AEFDAC
:201EA000C01B6528F6D30320F2BD00F0A7FD07002868304000D1DCE000F0A0FDC01B652802
:201EC000F6D3F0E700F09AFDC01B022800D801E1E9E7E068002828680FD00121014329607E
:201EE00000F08CFD07002868304000D0DDE000F085FDC01B0228F6D9D5E70121884328605E
:201F000000F07CFD07002868304000D1D4E000F075FDC01B0228F6D9C5E701218843686233
:201F200000F06CFD0700686A304000D1D6E000F065FDC01B0228F6D9B5E7002801D1286A2A
:201F40000AE00528286A07D1042101432962286A01210143296206E0012188432862286A9A
:201F6000042188432862A06800280ED000F046FD0090286A304000D0DDE000F03FFD0099C2
:201F8000401AA9498842F4D38DE700F037FD0090286A304000D1CEE000F030FD0099401AAB
:201FA000A1498842F4D37EE700F028FDC01B022800D8D8E077E700F021FDC01B022800D84E
:201FC0000EE170E70421C9438842686B03D1042188436863CBE0042101436963686B012189
:201FE0008843686300F00AFD0700686B304000D1C4E000F003FDC01B0228F6D953E7206A0D
:202000000028686B0FD0F1030143696300F0F6FC0600686BC00300D5CDE000F0EFFC801B6C
:202020000228F6D93FE70A490140696300F0E6FC0600686BC00300D4BDE000F0DFFC801BDC
:202040000228F6D92FE700BF00100240FFFFFBFFFFFFFEFF0140296000F0D0FC0400286853
:20206000304000D1DEE000F0C9FC001B0228F6D919E70226206830401ED068680C2101404C
:202080000CD068680C210140082905D16868C02149020140B003814200D01AE7286830409B
:2020A00003D0E068012800D0D4E62868F82188432169C90001432960207800070ED5E069F3
:2020C0000028686A00D128E701210143696200F095FC0700686A304000D1F3E620784007A2
:2020E0002FD50027F006E969014007D1E9690143E961E9690840009000980127A148006839
:20210000C00513D49F480068A90D01439D48016000F074FC00909B480068C00506D400F0BA
:202120006DFC0099401A6528F5D3BCE6A068012800D002E70BE7002F03D0E8699249014001
:20214000E9612078C00619D56069012800D039E7686B042101436963686B012101436963FA
:2021600000F04CFC0700686B304000D11CE7686BF8218843A169C900014369632078800651
:2021800019D568680C2101400C290DD068680C210140082906D16868C02149020140C0209E
:2021A0004002814200D02AE7686BC00303D5206A012800D04EE6606A002833D069680C2220
:2021C0000A40082A00D145E68026B60485490228286800D03EE70140296000F00FFC0700DE
:2021E0002868304000D0E6E6E86A0F218843216B0143E96268687C490140E06A0843A16A65
:2022000001436960286871080143296000F0F6FB04002868304005D100F0F0FB001B022800
:20222000F7D940E60020F2BD89130000F2B582B00127FF4301246D4D29682140029A9142BA
:2022400008D2296839400A432A6029682140029A914222D10190664E0220019909680140BC
:2022600006D07168F0229143019A92680A43726001990968214068D001994968012902D129
:202280003068800308E0022902D13068800103E0032903D1706BC00303D465E0326810409D
:2022A00062D07068032290430143716000F0A6FB0199496801290ED1009070680C2101404C
:2022C000042942D000F09AFB0099401A49498842F3D30320FEBD02290DD1009070680C21A9
:2022E0000140082931D000F089FB0099401A41498842F3D3EDE70329009037D170680C214D
:2023000001400C2921D000F079FB0099401A39498842F3D3DDE701980078400706D570681E
:20232000354901400198C0680843706000F02EF8324972681206120F895CC8403049086090
:20234000002000F0FFF90020FEBD0298296821408842E0D22868074002983843286028688E
:20236000044002988442D6D00120FEBD70680C210140EAD000F042FB0099401A1D498842E7
:20238000F4D3A6E700700040FFFFFFEFF0B51D490B681D481D4A0C241C40082C02D00C2C39
:2023A0001AD0F0BD0F2500BF19A49E0C2E40A45D1BA6896A0D40715DC0256D022E001E400E
:2023C00080277F02BE4203D02B40AB4200D11000FFF79EFB6043F0BD1000F0BD0848006875
:2023E00070470000FFFFFFFEFF7FC2FF002002400010024089130000FFF8FFFF542B000820
:20240000040300200410024000127A00006CDC0202030405060708090A0B0C0D0E0F1010D2
:202420000102030405060708090A0B0C0D0E0F10F0B583B0040002270125464E2068C0030A
:2024400058D50020019028073168014007D1316801433160316808400090009801953E482A
:202460000068C0051CD43C480068290201433A48016000F0C3FA009037480068C0050FD435
:2024800000F0BCFA0099401A6528F5D30320FEBD00F0B4FA0099401A304988421AD3F5E7D3
:2024A000C02080007168014017D062681040814213D071682A48084071682A040A43726042
:2024C0007168284A0A4072607060284005D000F095FA009070683840DAD0706820490140FD
:2024E0006068084370600198002803D030681E49014031602068054005D07069032188432A
:20250000A168014371612068074005D0706917490140E068084370612078800605D5706949
:20252000102188432169014371612068800305D5706980218843A1690143716120684005E8
:2025400005D57069402188436169014371610020FEBD00001C100240007000408913000027
:20256000FFFCFFFFFFFFFEFFFFFFFFEFFFFFFCFFFEB500232FE0052503E0654DA842FAD129
:2025800004256F463F78BD403543019E3560674D2E68E5432E404F68FF0300D52643634F74
:2025A0003E607E682E404F68BF0300D526435F4F7E60BE682E404F68FF0200D526435B4FB2
:2025C000BE60FE6835404E68B60202D52E0025003543FD605B1C0D682C00DC4000D195E01B
:2025E00001249C4002942C40F4D06D469E006E704D68022D01D0122D1AD1DD08AD00451916
:202600002E6A01966E4677781C263E406F463E70019EB4466E4636780F27B7406646BE43F0
:20262000B4460F696E463678B740664637432F6205686E465F00377003266F463F78BE405E
:20264000F74301973E462E400D79AD07AD0F6F463F78BD40354305604D68012D05D0022D93
:2026600003D0112D01D0122D11D18668019D3540CE686F463F78BE402E4386604568029E12
:20268000B5434E68F706FF0F9F402F434760C668019D35408E686F463F78BE402E43C66051
:2026A0004D68ED0096D5224D2D6801262E43204D2E602D68EE07F60F0196019D1D4D9E08A2
:2026C000B600AD1901952E680C256F46BC467F783D4067463D706D462D780F27AF40BE431E
:2026E0009025ED05A84201D100254AE7124DA84201D1012545E7114DA84201D1022540E74C
:202700000F4DA84200D038E703253AE7F7BD00000010004881B0002A01D0816100E081625E
:2027200001B0704742694A404261704700040140181002400800014000040048000800480E
:20274000000C004810B50400FFF748FEFA218900FFF7DEF9FEF787FD002221000020C043D0
:20276000FEF776FD002010BD80B501200D490A6802430A6009680840009000980022002113
:202780000420C043FEF764FD002200210120C043FEF75EFD002200210020C043FEF758FD55
:2027A00001BD00BF1810024010B402E0401C491C521E002A09D00B7804789C42F6D002D2E1
:2027C0000020C04302E0012000E0002010BC7047130030B414001500103902D310393CC0CD
:2027E000FCD2490700D30CC000D504C0890002D30280801C002900D5027030BC70470000F4
:202800000022E5E710B5074C002207492000FEF757FD06492000FEF76AFD2000FEF771FD89
:2028200010BD0000B8040020780300200803002038B5040084208000FEF7E2FC8621890011
:2028400061180860002801D1022032BD050080208000281800210171417101600121C1603E
:202860004023022281212000FEF76EFC4023022201212000FEF768FC40232A0001212000BF
:20288000FEF7AFFC002032BD10B504008121FEF766FC01212000FEF762FC862080002418D0
:2028A0002068002803D0C046C04600202060002010BD10B5020000200B7860241C40202C66
:2028C00003D01000FFF7CAF8022010BD29210180474870470021862292008058133A815408
:2028E00000207047002070470020704700207047002070470020704738B50C0086218900A5
:202900004158802292008D182100FEF772FC2860012C04D12879002801D1012028710020C2
:20292000E86032BD0A21018032487047F1B582B086239B00C058183BC518EB68002BFCD1D4
:2029400016000C0072B60121E96062B62979012920D172B62A680100200000F055F80220B3
:20296000287162B60020009010232A6801212000C046C0462868864204D172B60020E86026
:2029800062B6FEBD2868864200D2FEE72868361A2868241840270FE0402E00D237000120BB
:2029A000E860BBB2220001210298FEF71AFCE8680028FCD1F61BE419002EEDD10020FEBD5F
:2029C00010B582B013008622920082580A4C14192278002AFCD172B60122227062B69BB283
:2029E0000A008121FEF7EDFB20780028FCD116BD400300206C030020050200000148006844
:202A0000704700BF100F0020124207D08B0706D00B78491C0370401C521EF7D87047830737
:202A200006D00B78491C0370401C521EF9D1704770B4103A03D378C9103A78C0FBD25307EA
:202A400001D318C918C001D508C908C0D20704D30B880380891C801C002A01D50B7803707D
:202A600070BC7047122008800F487047042008800E48704710B50A0010A008E010B50A00BC
:202A80000B4C21000FA004E010B50A000FA0084C2100FEF7EDFF200010BD000010B50A009B
:202AA000034C21000CA0F4E794030020A8030020100D002010B50A000AA0E8E74A2D4C69EC
:202AC0006E6B0000534547474552000030303030303132333435360042554C4B20436F6ECD
:202AE0006669670042554C4B20696E7465726661636500001148016801220A430260416864
:202B00000F4A0A40426001680E4A0A40026001680D4A0A40026041680C4A0A404260C16A81
:202B20000F229143C162016B094A0A400263416B01229143416300218160704700100240AD
:202B40000CB8FF08FFFFF6FEFFFFFBFFFFFFC0FF2CFEFCFF000000000000000001020304D4
:202B60000607080970B401000123002413E00A68091D1A4202D04D466D1E52191460121DE5
:202B8000001F0428FAD21500860701D51480AD1C184000D02C700868091D0028E7D1080007
:202BA00070BC704730B501684118446862088A188368E4070DD54C461B190AE00C7864B2D1
:202BC000491C0D78491C1D705B1C002C05D5641CF9D19142F2D10C3030BD641EF1D5F8E76C
:202BE00010B5074979441831064C7C44163404E0081D0A68891888470100A142F8D110BDF9
:202C00003C000000580000007047FEE77047704780B500F00BF8FEF74FFB01BD80B5024872
:202C2000FDF745FB01BD0000DC06002002480168491C0160704700BF100F002029FFFFFF4C
:202C4000600A0000B80400200000000059FFFFFF6C000000DC030000000200200120C04644
:202C6000002801D0FFF7BCFF002000BF00BFFEF755FC00F000F880B500F002F801BD000001
:202C80000746384600F002F8FBE7000080B500BF00BF024A11001820ABBEFBE726000200E2
:202CA0000148804701480047F52A0008B12C000800BF00BF00BF00BFFFF7D0FF030C5287BF
:202CC00003E4FF0347444200F4FF0352444900F4FF07466C617368425000F8FF07466C61DE
:202CE0007368444C00F8FF064A466C61736800F7FF04524444490081FFF4FFFD005A480005
:202D0000127A003128000889280008B3280008E9280008E5280008D5280008F9280008EDE1
:202D2000280008F1280008F5280008CD280008CD280008CD2800082529000809022900019B
:202D40000102C0320904000002FFFF0006070581024000000705010240F200030A06000246
:202D6000FD00014001FD001F652A00086D2A00087D2A0008752A0008892A00089D2A0008E2
:202D8000B52A000812010002FD007E406613010100020102030100000403090408B4024BDB
:202DA0009C4608BC6047C046A9270008002142181268FF2A06D1091D802212019142F6D37C
:202DC0000120704700207047F7B582B0324C334820603348206014250127002B2ED00298CE
:202DE00040052BD102980090E60C0098FFF7DEFF002818D1E06802210143E16000982061F1
:202E0000E06840210143E160A0687E3840FCD1A068800601D52020A060A068284012D1E0E2
:202E20006802218843E0600098FFF7C0FF1D4836180098E10C40180090002ED6DC049A030E
:202E400099002007E0A5600020C04322E0E368BB43E360801C904212D2E3683B43E3600BB3
:202E60005A029E36183380A3683B40FCD1A3689B0601D52023A360A3682B40E7D0E2E7E066
:202E80006880230343E3600298FF1EF788FF002800D0FEE705B0F0BD0000042002402301A0
:202EA0006745AB89EFCD00F8FFFFFFFFFFFFFFFFFFFFFFFFFFFFFFFFFFFFFFFFFFFFFFFF96
:202EC000FFFFFFFFFFFFFFFFFFFFFFFFFFFFFFFFFFFFFFFFFFFFFFFFFFFFFFFFFFFFFFFF12
:202EE000FFFFFFFFFFFFFFFFFFFFFFFFFFFFFFFFFFFFFFFFFFFFFFFFFFFFFFFFFFFFFFFFF2
:202F0000FFFFFFFFFFFFFFFFFFFFFFFFFFFFFFFFFFFFFFFFFFFFFFFFFFFFFFFFFFFFFFFFD1
:202F2000FFFFFFFFFFFFFFFFFFFFFFFFFFFFFFFFFFFFFFFFFFFFFFFFFFFFFFFFFFFFFFFFB1
:203F0000D1143401FFFFFFFFFFFFFFFFFFFFFFFFFFFFFFFFFFFFFFFFFFFFFFFFFFFFFFFFA3
:203F200047444200FFFFFFFFFFFFFFFFFFFFFFFF52444900FFFFFFFFFFFFFFFFFFFFFFFFED
:203F4000466C617368425000FFFFFFFFFFFFFFFF466C617368444C00FFFFFFFFFFFFFFFF73
:203F60004A466C61736800FFFFFFFFFFFFFFFFFF5244444900FFFFFFFFFFFFFFFFFFFFFFFA
:203F8000FFFFFFFFFFFFFFFFFFFFFFFFFFFFFFFFFFFFFFFFFFFFFFFFFFFFFFFFFFFFFFFF41
:203FA000FFFFFFFFFFFFFFFFFFFFFFFFFFFFFFFFFFFFFFFFFFFFFFFFFFFFFFFFFFFFFFFF21
:203FC000FFFFFFFFFFFFFFFFFFFFFFFFFFFFFFFFFFFFFFFFFFFFFFFFFFFFFFFFFFFFFFFF01
:203FE000FFFFFFFFFFFFFFFFFFFFFFFFFFFFFFFFFFFFFFFFFFFFFFFFFFFFFFFFFFFFFFFFE1
:204000000001FFFFFFFFFFFFFFFFFFFFFFFFFFFFFFFFFFFFFFFFFFFFFFFFFFFFFFFFFFFFBD
:20402000FFFFFFFFFFFFFFFFFFFFFFFFFFFFFFFFFFFFFFFFFFFFFFFFFFFFFFFFFFFFFFFFA0
:20404000FFFFFFFFFFFFFFFFFFFFFFFFFFFFFFFFFFFFFFFFFFFFFFFFFFFFFFFFFFFFFFFF80
:20406000FFFFFFFFFFFFFFFFFFFFFFFFFFFFFFFFFFFFFFFFFFFFFFFFFFFFFFFFFFFFFFFF60
:20408000FFFFFFFFFFFFFFFFFFFFFFFFFFFFFFFFFFFFFFFFFFFFFFFFFFFFFFFFFFFFFFFF40
:20480000601D00201DFA00081B690008836B0008000000000000000000000000000000005A
:20482000000000000000000000000000339200080000000000000000957900083DF7000859
:20484000D7A600080BA900084FBB000893BF0008EFD00008B3D2000841F4000893F6000889
:2048600003FA00080FFA000841FA000843FA000845FA000847FA000849FA00084BFA000872
:204880004DFA00084FFA000851FA000853FA000855FA000857FA000859FA00085BFA000868
:2048A0005DFA00085FFA000861FA000861BD0008B9D5000863FA000865FA00084FAA00084C
:2048C000FFFFFFFFFFFFFFFFFFFFFFFFFFFFFFFFFFFFFFFFFFFFFFFFFFFFFFFFFFFFFFFFF8
:2048E000FFFFFFFFFFFFFFFFFFFFFFFFFFFFFFFFFFFFFFFFFFFFFFFFFFFFFFFFFFFFFFFFD8
:20490000000000000000000000000000000000004A2D4C696E6B204F422D53544D33324615
:204920003037322D436F727465784D20636F6D70696C6564205365702032362032303136C9
:204940002031303A30333A353600436F7079726967687420323030332D323031342053454A
:20496000474745523A207777772E7365676765722E636F6D0000000000000000000000003B
:20498000FFFFFFFFFFFFFFFFFFFFFFFFFFFFFFFFFFFFFFFFFFFFFFFFFFFFFFFFFFFFFFFF37
:2049A000FFFFFFFFFFFFFFFFFFFFFFFFFFFFFFFFFFFFFFFFFFFFFFFFFFFFFFFFFFFFFFFF17
:2049C000FFFFFFFFFFFFFFFFFFFFFFFFFFFFFFFFFFFFFFFFFFFFFFFFFFFFFFFFFFFFFFFFF7
:2049E000FFFFFFFFFFFFFFFFFFFFFFFFFFFFFFFFFFFFFFFFFFFFFFFFFFFFFFFFFFFFFFFFD7
:204A000008B4024B9C4608BC6047C046F505002038B4002B1FD10400503478300078002849
:204A200001D0636A17E0206A00280CD0C500E4696419083C2568AA4201D363680BE0083C39
:204A4000401EF7D107E0C0239B032068AB4A904201D1F0231B04CB600120087431BC704709
:204A6000F8B50E0004005034002332002100FFF7CFFF00220221200001F068FA0500207D5F
:204A80000106022001F0BCFA07003100052001F0B7FA38436168A94206D06560060029004E
:204AA000042001F0ADFA30430500207D000610210143022001F0A4FA010029430800F2BDD5
:204AC000F8B50E0004005034002332002100FFF79FFF00220221200001F038FA0500207D5F
:204AE0000106022001F08CFA07003100052001F087FA38436168A94206D065600400290050
:204B0000042001F07DFA2043002802D50020C043F2BD0020F2BDF8B50024BE4E356AC8358D
:204B20000021072001F0BAFA01276946072001F0B5FA0098C00C384003D1306A281AF4D595
:204B4000E4432000F2BDFCB583B007000E003C0050340A9DA80001D5012020762807000F8C
:204B600002902068654988420BD1207E002801D0012200E0039A029882403100380001F0DA
:204B800045FBFF231B042B40320021003800FFF73FFF0B98019002980090049B039A31009F
:204BA000200001F048F90021217605B0F0BDF6B583B007001E003C00503401250A9881007D
:204BC00000D525760107090F01910A46012191407A22BA5C002A36D0039AB24B9A4232D115
:204BE000042977D10499012974D1AF493800FFF737FF00281DD40021072001F04FFA69468E
:204C0000072001F04BFA70780002B17809040143F07800060843A54A02400098F021090334
:204C200001401143072001F0EBF9002804D501F0DDF90020C0435CE001F0C4F900210320CA
:204C400001F02CFA44E0039AB94B9A4242D1042940D1049901293DD1300001F02AFC00909F
:204C6000B3493800FFF72CFF0028E2D10099072001F0C6F90028DAD401F0A4F90098400751
:204C800022D5022001F025FE0021032001F006FA00281DD05F4E306A9621C90040180190ED
:204CA000A44F642001F015FE6946002001F0F6F9002804D1009838409F49884208D001989A
:204CC000316A401AEDD503E00021032001F0E6F901200EE0FF231B04034021003800FFF744
:204CE00097FE019800903300049A0399200001F0F4F80021217605B0F0BD0000FF00010E64
:204D0000F2B582B017001C000100503101916649FFF7A6FE002807D40021072001F0BEF937
:204D20006946072001F0BAF90298007801F0E8FD009D000202210143062001F061F9B64E96
:204D400035402900072001F05BF90198FFF7E3FE002810D4009D0021062001F09FF9390027
:204D6000062001F09BF92E403100072001F048F90198FFF7D0FE002808D40298401C0290A7
:204D80003F1D641ED0D1002003B0F0BD0020C043FAE7F2B582B017001C007A21415C0029A3
:204DA00004D00299FFF7ACFF06002FE03E49FFF757FE002802D50020C04328E002980178BF
:204DC000052001F01DF90021042001F067F900265A48056AC8356946042001F05FF9009829
:204DE000C00305D45548006A281AF4D5F6430DE00021062001F052F93900032001F04EF9C8
:204E00000298401C02903F1D641ED7D1300003B0F0BD0000B8010020F2B582B017001C000F
:204E20000100503101912049FFF71AFE002807D40021072001F032F96946072001F02EF992
:204E40000298007801F05CFD009D000203210143062001F0D5F8704E35402900072001F097
:204E6000CFF80198FFF757FE00280CD4009D3968062001F0C5F82E403100072001F0C0F8FE
:204E80000198FFF748FE002808D40298401C02903F1D641ED4D1002003B0F0BD0020C0438B
:204EA000FAE70000FCED00E0F0ED00E0FFFFF0FFF2B582B017001C007A21415C002904D05D
:204EC0000299FFF7A9FF06002EE09349FFF7C8FD002802D50020C04327E03968062001F00D
:204EE0008FF802980078802149020143052001F087F80021042001F0D1F800260F48056A69
:204F0000C8356946042001F0C9F80098C00305D40A48006A281AF4D5F64305E00298401C00
:204F200002903F1D641ED8D1300003B0F0BD00000CED00E0FF0F000077040000B80100208D
:204F4000F0B583B007003E00503600247249FFF787FD05007A20385C002825D0002D1ED4E6
:204F60000021042001F09AF8050001A9072001F095F80095050002A9072001F08FF8010030
:204F80002943009D29430D0009D40198800302D57A203C5404E002980403E40F00E0E44316
:204FA0007A20385C002833D10021042001F076F804002C4301A9042001F070F8204315D50C
:204FC0000020706054493800FFF74AFD05000021042001F063F804002C4301A9042001F007
:204FE0005DF8204302D50020C04312E0019800030BD54A49042001F003F80021042001F0B8
:205000004DF801A9042001F049F801988403E40F200003B0F0BD0000FFFFF7FFF1B582B0EC
:20502000044679346078002842D03B490298FFF717FD0021072001F031F86946072001F016
:205040002DF800980103C90F07D1C0218902014300910099072000F0D3FF0021072001F0E3
:205060001DF82F4F3D6AC83501A9072001F016F8002802D50026F64308E001980603F60F3C
:2050800002D1386A281AEFD501980090002E0CD1002060700098234901400091072000F084
:2050A000AFFF0021072000F0F9FF607800282ED119490298FFF704FD2078C000174D05431C
:2050C0002900072000F09CFF01F03CF8144F3E6AB61C01A9072000F0E1FF002802D5002033
:2050E000C04306E001998803C00F02D1396A711AEFD506002078002809D008208543290056
:20510000072000F07DFF0021072000F0C7FF00202070300003B0F0BDF0ED00E003005FA0FF
:20512000B8010020FFFFFCFFF0B58BB00400CA07D20F04928807C00F69460873206DCA4949
:20514000884218D1200001F087F8002802D50020C04387E1200001F079F8C4492000FFF7DD
:20516000AFFC002807D40021072000F049FF002801D100F027FF6846007B002873D06846AF
:2051800000210173BA492000FFF79AFC80202058883000680125284202D0A843019005E0D0
:2051A00000F0D0FF01A9032000F078FF01993031052000F025FF00F0C5FF01A9032000F057
:2051C0006DFF019800284ED00021C94388424AD0A8430190014610392000FFF771FC0021C3
:2051E000072000F05BFF06A9072000F057FF01990C39052000F004FF0021072000F04EFFA6
:2052000006AE311D072000F049FF01990839052000F0F6FE0021072000F040FF3100083168
:20522000072000F03BFF0199091F052000F0E8FE0021072000F032FF0C363100072000F06D
:205240002DFF06988B4988420DD107988A49884209D108988949884205D1099888498842A4
:2052600001D16846057387492000FFF729FC1F21072000F0C5FE844F39002000FFF7F0FB04
:205280000021042000F00AFF6946072000F006FF02A9072000F002FF00200099890303D426
:2052A0000299090300D50120260079366946097B002956D0002800D099E0B078002827D141
:2052C00072492000FFF7CCFB0021042000F0E6FE05A9042000F0E2FEFF2505992943042029
:2052E00000F08EFE0021042000F0D8FE01A9042000F0D4FE01980540280001F0CEF8019049
:2053000008200199401AB0700599042000F078FE39002000FFF7A4FB02985D49014080201A
:205320004002084302900146072000F069FE009880B2009000200490564C00980107C90F61
:2053400007D008218843009001462143042000F057FE009807218843009004432100042037
:205360004DE0012500284DD0B94F0098384005430095484C29462143042000F041FE04984A
:2053800000282DD0009802210143009100992143042000F035FEAF48056A6D1D00210420DF
:2053A00000F07CFE6946042000F078FE0198800303D4A848006A281AF4D5009807400820EB
:2053C0003843009001462143042000F019FE009802218843009004432100042000F010FE4C
:2053E0000298B54901400291072000F009FE029C0121062000F004FEB0492140072000F0DA
:20540000FFFD18E00498C000B9490143019104980099C9080D40A84203D00199042000F0A6
:20542000EFFD01980221884301900146042000F0E7FD00F0C7FDAF480068002801D0FFF727
:20544000DFFA00F0BFFD0021032000F027FE6946097B7170C90701D50121F170002801D434
:20546000049931700BB0F0BDFF00010E50EF00E008ED00E04A4C494E4B4D4F4E48414E4407
:205480004C45520030ED00E0F0ED00E020ED00E0FFFFF3FF00005FA0F0B587B00400206D26
:2054A0009549884218D1200000F0D6FE002802D50020C043C9E0200000F0C8FEB4492000B9
:2054C000FFF7FEFA002807D40021072000F098FD002801D100F076FD26007A36AD4D307839
:2054E000002800D184E0AC492000FFF7B9FA0021042000F0D3FD04A9042000F0CFFD049863
:20550000C0B2049029002000FFF7AAFA002807D40021072000F0C2FD6946072000F0BEFD27
:2055200000988021C902014300910099072000F067FD684614210173012305AA03A9200088
:20554000FFF7DEFBAF4F0598384001900146049A0120082375785B1B9840101800020843F7
:205560000190012301AA03A92000FFF755FC009D0121062000F044FD50492940072000F089
:205580003FFD0021072000F089FD324D2E6AC83602A9072000F082FD002802D50020C04399
:2055A00008E002990803C00F02D1296A711AEFD502990091050041D40098A349014000913D
:2055C000072000F01DFD012301AA03A92000FFF797FB019807400598FF2109020140394312
:2055E0000191012301AA03A92000FFF715FC25E029002000FFF764FA9449072000F000FDE4
:205600009349072000F0FCFC00F09CFD114D2C6AA41C02A9072000F041FD002802D5002043
:20562000C04306E002998803C00F02D1296A611AEFD505002E49072000F0E2FC00F0C2FCC8
:205640000021032000F02AFD280007B0F0BD0000FFFF0000B801002002B582B069460F22C3
:205660000A70012302AAFFF723FC03B000BD70B582B00400774DC04E00290ED000F0B0FC8B
:20568000002060653068A84214D26946012000F005FD0099012081430AE03068A84209D236
:2056A0006946012000F0FAFC009801210143012000F0A6FC73BD0000FFFFFAFFFFFFF7FF68
:2056C00001290AD9091F0CD0091F04D008390AD0703904D009E0A9487047A94870471F20AD
:2056E0007047032070470120704700207047000003005FA03C120020FF00010EF0B583B014
:2057000005000F002C00503420689E4988423CD1002001909C492800FFF7D2F9002807D4FD
:205720000021072000F06CFC002801D100F04AFC964E0023320021002800FFF769F900209F
:20574000009001AB01223100200000F0BFFB0198C004840D641C01980001450C6D1C0126E6
:205760000320019A0240921C012191403E603871880000F0FBFEF871280000F0F7FE787171
:20578000200000F0F3FEB8713E74002003B0F0BD50EF00E0F0ED00E020ED00E0F0B583B00C
:2057A00005002C00503420687649884201D0002026E0B04E0023320021002800FFF728F979
:2057C0000020009001AB01223100200000F07EFB012701984008384012D0C14E00233200C9
:2057E00021002800FFF714F90020009001AB01223100200000F06AFB0198000C0740380014
:2058000003B0F0BDFF00FFFF38B5046D5D4DAC4217D1049CA4000919CC79A240202489797A
:20582000611A8B4013431C00AE49FFF749F9002807D42100072000F0E3FB002801D100F07E
:20584000C1FB002032BD0000FFFFFBFF0F005FA00D005FA0A6AE0000F5B585B00E00842A7C
:2058600002D20020C04385E0300050300190059840690290059880690490842200213000A2
:2058800000F034FE059800680090002801D1964800900098000E954CFF2808D0032801D067
:2058A0000E2804D100983749884200D0904C0598007B694608730598407B01061BD500219D
:2058C000820701D580218903420703D50A008021C9031143020703D50A0080210904114363
:2058E000800603D40800802149030143301D01677820012131540598807B002804D0202842
:2059000002D201248440641E351D0498042809D3029800F0CEFDE8660298001DA866E96E93
:2059200001F02EF937002C378020400000F01EFE2021785420370520787036606D48686045
:205940006D4828600020E86028616C49A96001996A46127B0A75019901228A7501998C60C3
:205960000199009A0A600199486078360598B0600698843807B0F0BD38120020370000800D
:2059800001000080FF00010E84ED00E080ED00E030B5C5B005000221684601F04DF96846C5
:2059A000018835A801F048F968460088042804D335A800F07EFD040000E04B4C9022002180
:2059C00001A800F093FD019401A80121017100214171017325A805904AA00890402225A971
:2059E00001A8FFF739FF01210598FFF740FE642D12D0652D14D06E2D16D06F2D18D0792D49
:205A00001AD07A2D1CD07B2D1ED07C2D20D0822D22D0832D24D026E001A801F027FA22E0D2
:205A200001A801F09BF91EE001A801F0DDFA1AE001A801F005FB16E001A801F027FB12E091
:205A400001A801F03AFB0EE001A801F03FFB0AE001A801F04BFB06E001A801F050FB02E03E
:205A600001A801F087FB00210598FFF700FE45B030BD000078ED00E070B582B00669012446
:205A800001207C21715C002929D01D493000FFF717F805000021072000F000FB0100294319
:205AA0000D006946052000F0F9FA284316D40098C00C204003D07C36002030700EE000983E
:205AC000000C04400AD10098802149020143072000F096FA6946052000F0E0FA002076BD3B
:205AE00014ED00E074EF00E0FF000003FF030000FF0F00009D570008FD56000809580008B0
:205B0000FCED00E0000000001D690008436A0008934D0008B14E0008295100089954000813
:205B20001D500008414F0008000000005956000859580008474B0008AF4B0008000000004C
:205B4000C15600080000000000000000000000006F560008795A0008F4B584B005000E008E
:205B60001F0000200290B80701D101200290287E421E9241D20F0221280000F0E7F9040037
:205B8000287D0106022000F03BFA00903100052000F036FA009908436968A14206D06C60D2
:205BA00005002100042000F02BFA2843002856D100F0C8FA002852D10498022847D3441E8D
:205BC0000A9E0298002826D0002E07D0F068B168401A844200D82000009000E000940025AE
:205BE0003900072000F05AFA002836D13F1D6D1C00988542F4D3002E09D0B06800994018B7
:205C0000B060F168884202D33000316888470098241AD9D11BE001A9072000F03FFA002847
:205C20001BD101983870010A7970010CB970000EF8703F1D002E08D0B068001DB060F16897
:205C4000884202D3300031688847641EE3D101A9032000F023FA002804D000F0C7F9002031
:205C6000C04304E00199380000F00EFC049805B0F0BDF5B583B00E001C00007E421E9241BB
:205C8000D20F0A9F3900039800F060F905000398007D0106022000F0B3F900903100052095
:205CA00000F0AEF90099084303994968A94208D003994D6000902900042000F0A1F9009910
:205CC0000843002835D100F03DFA002831D10498022828D3451E0120B84002906846032159
:205CE000C91B017001A9072000F0D8F9002802D000F07CF91DE001986A4612783240D1004B
:205D0000C840019001982070641C002F03D00198000A2070641C0398007E002801D10298DF
:205D200036186D1EDED101A9032000F0B7F9002802D00020C0430FE001980321C91B314050
:205D4000C900C840019001982070641C002F02D00198000A2070049805B0F0BDF3B583B02B
:205D600015001C000A9F012F01D1924804E0022F01D1914800E0012001900398007E421EA2
:205D80009241D20F7910039800F0E0F806000398007D0106022000F033F9009004990520AE
:205DA00000F02EF901000098014303984068B04209D00398466000913100042000F020F9B1
:205DC00001000098014300290CD1A00710D1042F0ED12168072000F013F9241D002804D558
:205DE00000F004F90020C04323E06D1EF1D119E02178022F0CDB0A00607801021143032F2E
:205E000006DB0A00A0780004E17809060143114301984143072000F0F3F80028E0D4E41983
:205E20006D1EE5D100F0CEF80021032000F036F9002005B0F0BDF9B581B00D001600807D87
:205E4000002802D10020C0433EE0002708980890099809900BE02000089988400199097ED8
:205E6000002900D12D18029908180290361B002E29D001988068A8430899C840401C019913
:205E8000097E002901D0340003E03400864200D904000898022808DB09980090029B2200F4
:205EA00029000198FFF758FE06E00090029B220029000198FFF7DDFE002801D5070002E025
:205EC0003F18A042C7D0380003B0F0BD10B582B0049C0094FFF740FE16BDF9B583B00D003A
:205EE000160000270A980A9001200A99884001900CE03F190A99200088400399097E0029F1
:205F000000D12D18049908180490361B002E1AD003988068A8430A99C840401C0399097E19
:205F2000002901D0340003E03400864200D9040001980090049B220029000398FFF70EFFC6
:205F40000028D6D50700380005B0F0BD78B403681A4CA34201D1012300E0002380256D04DC
:205F6000C468E60201D48225ED05260203D52E0080252D053543660203D52E008025ED041E
:205F80003543A60203D52E008025AD043543240305D5007C002802D12800094D0540002BA7
:205FA00003D128008025AD05054329431001084372BC70470101010101000100FF00010E85
:205FC000FFFFFFF380B56846FF21417000210170082300AA921C6946401C01F004FC01BD4E
:205FE00000B583B030236A4672A104E000B583B030236A4671A14F4801F0F5FB03B000BDDA
:20600000F0B58FB0002200240B0C4B401D0A5D402B096B409D085D4003916B086B40D9073D
:20602000C90F03AB1971444F3D6A6435434E6946305C08704A7009E084235B0005AA00BF26
:2060400060A100BF68A001F0CEFB641C0D2301AA69463000083001F0C6FB01A840784007F2
:20606000400F012808D1212301AA03A91036300001F0B9FB00200FE0022808D0042802D109
:20608000FFF7AEFF01E0022CD6DB002003E0386A281ADBD50120C0430FB0F0BDF2B58EB091
:2060A0000021002502AA1171254F01AA385C107051702148066A643608E084235B0004AA6D
:2060C00040A100BF48A001F08EFB6D1C0D236A4601A93800083001F086FB68464078440718
:2060E000640F012C13D1C006840F21236A4602A90A37380001F077FB0E98002804D000980E
:20610000800004430E98046000200FB0F0BD022C09D0042C02D1FFF763FF01E0022DCCDB09
:206120000020C043F1E70448006A301ACED50120F7E70000F8020020B8010020E0020020CD
:20614000D002002080B500210720FFF7A7FF02BD00B58BB084235B0001AA00BF19A100BFA0
:2061600021A001F040FB69460020FFF797FF002811D469460120FFF791FF0098B2210140C8
:206180000BD0FFF72DFF69460120FFF787FF0098A021014001D0012009E0A021C905009121
:2061A0000120FFF72DFF401E8041C043C00F0BB000BD000081C003000000000081E003008B
:2061C00000200000FFFFFFFFFFFFFF9EE7FFFFFFFFFFFFFFB6EDFFFFFFFFFFFFFF0000A5E7
:2061E0000000000000000000FFFFFFFFFFFFFFFFFFFFFFFFFFFFFFFFFFFFFFFFFFFFFFFFB7
:20620000FFFFFFFF00000000F0000000F8B403008818401E1F22D24311400240501A420947
:20622000521C49090124C9B2C8081D182C20285C01264F077F0FBE4006432C352E70491C73
:20624000521EF0D14E331C70F1BC704700B520212C3001F085FB00BDF1B588B04E30007848
:20626000002800D1B8E008984E300021017008988168080000D1AFE00898006888470028ED
:2062800000D1A9E008984268100007D008991831089800689047002800D59AE00898016929
:2062A000080005D0089800688847002800D590E00020039008980190012405E00398401CD8
:2062C00003900198001D0190039808998969884276DA0198007F022803D0032801D004285F
:2062E000ECD10198C07F08994D310978401A0490002008994C310978019A527F8A4200D2B2
:20630000881A00210291049901228A40069201218140059118E00898C66830000AD0039821
:2063200000902B00029A0899183108980068B04700284ED46D1C0198817F01208840854201
:20634000E9DB0298401C029002990198427F012090408142B2DA08460499884008994C31EB
:206360000A7801219140491E0140002205980128E7DB03460800069D012D0CDBC608089FD8
:20638000BE192C36367847077F0F3E41264002D1401C6D1EF2D1921910D10198407F049D53
:2063A00045190120A840081808994C310D780121A940491E01405B1EC3D0DBE70025BAE76C
:2063C00008984169080007D0089800688847002802D50020C04300E0002009B0F0BD38B449
:2063E000012100220368001D002B0BD00468001D0C4202D04D466D1E64192260241D1B1F8A
:20640000F0D0FAE732BC704701680A060B0A1B061B0A13430A02120E12021A43090E114304
:20642000016070470106020A1206120A0A430102090E09021143000E08437047CA088218BB
:206440004807400F9107C90E4118032082431068002906D0C840030050682022511A88403F
:206460001843704702681170090A5170921C0260704702681170090A5170090A9170090A9E
:20648000D170121D026070470170090A4170090A8170C01C090A01707047010006D000202C
:2064A00001E04908401CCA07FBD570470020C04370470178427812020A438178090411432E
:2064C000C07800060843704718B4012A0BDB0300401C0C00491C1B782478A34201D00120C9
:2064E00002E0521EF3D1002012BC7047012A03DB0170401C521EFBD1704778B403000020C9
:20650000002480252D0601E03100641C294202D14E00B342F8D2002C09D440008B4203D3B6
:206520005B1A0500012028434908641EF5D5002A00D0136072BC704780B56A46FFF7DDFFAF
:20654000009802BD80B50022FFF7D7FF02BD80B5002807D5002243421800FFF7CEFF010046
:20656000484202BD0022FFF7C8FF02BD002101E0491C4000002800D4FAD11F20401A704776
:206580000278401C0B78491C002A01D09A42F7D0D01A704738B472B6A54A90680021117160
:2065A00062B6002823D00168002920D043694C699C421CD100E021000C68002C02D06569B9
:2065C0009D42F8D072B603681469844200D11361026A13601A6201620A680260002A00D06D
:2065E0001062086038200A00393212780A5462B631BC7047F8B500278D4C6770012020701B
:2066000072B6E06B010004D08047E76367633820275462B601F0A6F90078CD2802D07D2000
:2066200001F0A6F9A068002807D0C16B002904D009680A0001D0406888473120205C0028E2
:2066400009D0A06838303021615C01702079002801D0FFF79FFFA068002805D0017C0029A1
:2066600002D1416B491C41632069002826D002E02868206162B672B62569002D41D02E7C42
:20668000002E3ED070070FD5E868216A411A012906DA280000F090F8287C002804D10DE0F5
:2066A000616A411A00D56062FB2030401028DFD1A86880684068007C0028D9D172B620E094
:2066C0002069002804D0686921694969884218D3287C400710D5E868216A401A012806DA65
:2066E000280000F069F872B6287C002809D0E868616A411A00D5606262B62D68002D72B645
:20670000DED1607900280BD12069002832D02069007C0028206911D08068806840680DE03E
:206720006771206A8021C90540186062E169080001D02000884762B6E568DFE7A060C06A07
:206740000078CD2802D0782001F012F9A068C16B002904D049680A0001D040688847A0682A
:206760003030017A3022A1543122A1540168491C016006E03120275430202754A760277065
:2067800062B62000F2BD10B5294C2078401E2070207800280FD1606800280CD072B606D0E8
:2067A00001202070200001F051F9002020706078002800D162B610BD38B581681C4C002900
:2067C00009D0226AC2600A684968002A00D051600A6000218160017C8907890F017413D1FA
:2067E0002169002911D1206101202178002906D12070200001F02AF90020207000E06071A4
:206800006078002800D162B631BD42694B699342E9D38142E8D09A42F6D103001B68002BE2
:20682000EED05D69AA42EBD18B42F7D1DBE70000B801002038B54169304C2278521C22704F
:2068400022000C3200E01A001368002B02D05D69A942F8D3036002621060002B09D0186235
:206860005A698A4202D13921415C00E0002138228154017C002906D172B6FFF79DFF607880
:20688000002800D162B6FFF77EFF31BD38B51B4C25782078401C2070200001F0D7F825709C
:2068A0006078002800D162B631BD10B501F0FCF812480121017001F055F8040001F056F8E9
:2068C000021B203A012A03DBCD212000FFF70EFE10BD80B509490A6A80180A78002A04D048
:2068E00062B60A6A121A07D5FBE772B68968C86004200874FFF7CAFF01BD0000B8010020EB
:20690000402801D32B3806E0212801D1142002E0142800D11320C0B27047FEE7FDB584B08D
:206920000D0014469549194002910C9E0D980D90E80715D5002C13D00D98019002980090F2
:2069400033000122290004980069049FFF693F6BB847002873D4241A01286ED1761C6D1CCF
:206960000698400057D4A80718D5022C16D30D980190029801210143009133000122290015
:2069800004980069049FFF693F6BB847002856D44100641A012850D1B61CAD1C0698002882
:2069A0001CD4042C1AD3A00803900D98019002980221014300913300039A290004980069C9
:2069C000049FFF693F6BB847002838D48100641A0399884231D1880036182D18022C1AD332
:2069E000600803900D98019002980121014300913300039A290004980069049FFF693F6B22
:206A0000B84700281BD44100641A0399884214D1480036182D18002C0FD00D9801900298A0
:206A2000009033002200290004980069049DED692D6BA847002802D4241A0598001B07B01A
:206A4000F0BDFDB584B00D0014464C49194001910C9EE80713D5002C11D000913300012247
:206A6000290004980069049FFF697F6BB847002800D581E0241A01287CD1761C6D1C069829
:206A8000400067D4A80716D5022C14D3019801210143009133000122290004980069049F15
:206AA000FF697F6BB847002866D44100641A012860D1B61CAD1C0698002830D4042C2ED374
:206AC0000498C069876B38000FD0019800280CD100903300A208290004980069B847002888
:206AE0004AD48000241A2D183618A008029016D001980221014300913300029A29000498E2
:206B00000069049FFF697F6BB847002834D48100641A029988422DD1880036182D18022C3D
:206B200018D36008029001980121014300913300029A290004980069049FFF697F6BB847EF
:206B4000002819D44100641A0299884212D1480036182D18002C0DD00198009033002200B7
:206B6000290004980069049DED696D6BA847002802D4241A0598001B07B0F0BD0000FF3F93
:206B80007047FEE7002804D00021002206C00838016070476E48012101707047002900D102
:206BA000704780B5002803D06A4A12685269904701BD70B588B004002022C9B26846FFF7AE
:206BC00095FC644D212C01D3202600E02600310068462A6852699047A41BF3D108B070BD9B
:206BE00080B50021FFF7E5FF01BD80B5594A12689269904701BD01B501216846FFF7CEFF7C
:206C000001BD01B502216846FFF7C8FF01BD01B504216846FFF7C2FF01BD68464D4A1268F7
:206C2000D269904701BD01B50421F6E780B549480068006A804701BD80B5002901D100205F
:206C400002BD444A12689268904702BD50B589B00400212C01D3202600E02600310068464F
:206C6000FFF7EAFF002801D1A41BF2D109B050BD80B5384A1268D268904702BD80B5042198
:206C8000FFF7DAFF02BD10B582B00400684600220260FFF7D1FF69460A784B781B0213430C
:206CA0008A7812041A43C97809061143216016BD80B5284800680068804702BD80B52548CA
:206CC00000684068804702BD10B5224C201D00F0F9FE00F085FF2048206010BD80B51D4804
:206CE000001D01F0CBF801BD80B5194800210170184800680069804701BD80B501F0A7F862
:206D000002BD10B582B0040004E002211148001D01F0DAF801F09BF800280BD001F092F877
:206D2000012807DB0B480C49016001212000FFF783FF16BD01F08BF80028E6D00021684691
:206D400001F068F80028E0D50020C04316BD00005D1B0020300B002040F90008F1B58AB0FB
:206D60000024E443082108A8FFF766FF089806900998010C0904079180B20590019001F0C2
:206D8000EEF80599814200D90100029108469349884202D3FF2188430290029801F0EEF888
:206DA0000490002803D13EE00698001906900198002801D1059C3EE006460298864200D9FF
:206DC00006000198801B0190069F002531000498FFF74EFF0395FFF76BFF311A039A8C1A88
:206DE000002803D0402CF6D33F208443002D0ED1049988180090079B220039000A98C56997
:206E0000AD68A8470500A54200D100253F19039800190390B042DED1002D02D00024E44302
:206E200001E03400C0D50198002801D0FFF70EFF0498002802D0049801F0C6F82000FFF71C
:206E4000E6FE0BB0F0BD38B50500AC683F2084430BD0210028696A681018FFF7C6FE2869E8
:206E600000192861A868001BA86031BDF1B592B0082106A8FFF7E0FE069F0798010C09045E
:206E8000059180B20490044611280ED301F067F803900498001D0399884200D20390039830
:206EA00001F06CF80290002803D10DA8029014200390039E361FA64205D24948864203D3FD
:206EC000760A760200E0260046480890802080000B900298099000200A900C9008A8019009
:206EE00002980090059B320039001298C5696D68A84705000C98012D02DA241A1FD121E0DF
:206F00007F19641B291A0091002C0ED1049902984019FFF7B9FA0099091D0C98029A10181B
:206F2000FFF763FEFFF782FE0FE0029A1018FFF75CFEFFF77BFEB542BBD00498051B2000B4
:206F4000FFF74EFE2800FFF762FE02980DA9884201D001F039F813B0F0BDF0B5D3B00400C8
:206F600005216846FFF768FE6D46297802A8FFF763FE687800281ED0A87800280DD0A54E7E
:206F8000316A0F182069E169096A8847002808D1306A381AF6D5002003E02069E169096A19
:206FA00088471290012808DA1298012810DB28788100091D0DE0012012902B7812AA121D12
:206FC00002A92069E469E468A0470028ECD51290042112A8FFF7E2FD53B0F0BD01100000FD
:206FE00001040000476E000870B5D4B0060002E001A8FFF7D3FD002442AD01216846FFF7F6
:207000001BFE68460078FF2806D0684600782870641C6D1C402CF0D1230001AA42A93069EE
:20702000F569ED68A847A1006A461278FF2ADFD101AA5050091D01A8FFF7B0FD54B070BD0C
:20704000F0B5D3B00700002442AE02AD0BE0042101A8FFF7F1FD68460078307001982860BA
:20706000641C2D1D761C01216846FFF7E5FD68460078FF28EBD1230002AA42A93869FC6943
:207080002469A047FFF7C3FD53B0F0BD10B582B0040001216846FFF7CFFD684601782069D9
:2070A000E26952699047FFF7B2FDE06D002803D00121200001F02BF913BD80B50100086938
:2070C000C96989698847FFF7A2FD01BD10B504002069E169C9698847FFF799FDE06D0028CC
:2070E00003D00021200001F012F910BD80B501000869C969096A8847FFF789FD01BD10B599
:2071000084B004000020039014210291019004E06846017803A8FFF78FFD01216846FFF72D
:207120008BFD6846007800280AD1039B019A02992069E469646AA047FFF769FD04B010BD62
:20714000012100A8401CFFF777FD684640780128DED00AD3032804D007D26846017802A8DC
:20716000D9E76846017801A8D5E768460078FFF76DFDD2E710B584B00400002003900120B3
:207180000290019004E06846017803A8FFF754FD01216846FFF750FD6846007800281FD17E
:2071A00003992069E269926A90471A480178491C01700120FFF78DFB01992069E269526913
:2071C00090470298FFF785FB2069E169C96988470400FFF7D8FA2000FFF719FD04B010BD7B
:2071E000012100A8401CFFF727FD684640780428C9D00AD3062804D007D26846017802A89B
:20720000C4E76846017801A8C0E768460078FFF71DFDBDE7B8010020FDB586B00291069D7B
:207220001035296904916846848B0E980E90AE8A0641AF48006A6A46128C80180390002E5A
:207240001FD02700B44200D937000E983A0082400092029801F052F9F61B0E98310081405F
:207260000191002E06D00A46009804990918286901F044F90198A88200980299081802906B
:20728000E41B002C1BD00E9801906846008C00906846838B029A00212868EE68B66CB0475F
:2072A000002800D50020241A0E99884002990818029003988E49096A401A0128E1DA0E98EE
:2072C000E88206988C30012101706846808B001B09B0F0BD30B583B00500042101A8FFF73C
:2072E000ABFC00F03CFE0199814202D300F037FE01900198052815D300F040FE04000020D5
:20730000009000230198021F92B2211D2800FFF783FF2060011D2000FFF740FC200000F0DE
:2073200053FE02E00020FFF772FC03B030BDF0B585B00700082103A8FFF77EFC03AC20887A
:207340008000E188884200DA0800001D00F016FE0500E18809D10800FFF778FC654802907E
:20736000042102A8FFF71AFC33E0002901D0FFF763FC0026607900280AD102200090638831
:207380002288291D3800FFF747FF0290064614E0012810D10220388523880190608800901A
:2073A000E0888010C01A80002A1801213869FC69A46CA04700E0C048029002992800FFF7E7
:2073C00063F8B100091D2800FFF7E8FB280000F0FBFD05B0F0BD10B582B00400012168463D
:2073E000FFF72AFC684601782069E269D26B9047FFF70DFC13BD1CB5040008216846FFF7F1
:207400001BFC00200099012905D1019901220A438834226000E0A848FFF7F9FB13BD10B505
:2074200003000120002900D0C148002B5CD05968002902D00100022008439968002902D0A9
:20744000010004200843D9680C0002D00400082020431C69002C02D00400102020435C692F
:20746000002C02D00400202020439C69002C02D0040040202043DC69002C02D004008020B6
:2074800020431C6A002C03D004008020400020435C6A002C03D004008020800020439C6A6B
:2074A000002C03D004008020C0002043DC6B002C03D00400802040012043002903D001007B
:2074C000802080010843996C002903D001009020C00108430100C020400208435B6C190034
:2074E00002D0010010009847FFF791FB10BD0000B8010020F9FEFFFF00B583B0012100A8FB
:20750000401CFFF799FB01216846FFF795FB0220FFF79CFB00280CD101A968464078000269
:207520006A461278104301F017F800220199FFF776FF03B000BD00B583B0012100A8401C19
:20754000FFF77AFB01216846FFF776FB042102A8FFF772FB01A96846407800026A4612780B
:20756000104300F0F9FF029A0199FFF758FF03B000BD70B5A6B09022002101A8FEF7B6FF3C
:20758000012100A8801CFFF757FB01AD04E06846017801A8FFF777FB01216846FFF74CFB66
:2075A00068460078002806D101A96846807801F05AF826B070BD012100A8401CFFF73CFBBD
:2075C000684640780728E2D031D3092809D002D30A280AD02BE068460178281DFFF72CFBE1
:2075E000DAE768460178681DF8E768460078082802D26846047800E008242100280008305E
:20760000FFF71AFB68460078061BC5D0300000F0B5FC0690002804D03100FFF70DFB079654
:20762000BAE768460078001BFFF710FBB4E768460078F9E770B582B002216846FFF7FCFAB2
:20764000684646780078C100091809014F4A541804282DDA25001035E968002928D0112E07
:2076600026D2C100081A8000494908184949096AC1602868002802D1200000F084FF8C200D
:2076800001212154E868C26CB00000BF43A10E5810000AD00121286890472000B047002171
:2076A0002868EA68D26C904773BD2000B04773BDFFF770FA73BD0000FAFEFFFFF8B5012008
:2076C0000090324F3C00324D0C358D3704262069002825D08C20205C002821D038780028F0
:2076E0001ED128682C4940182A49096A401A012816DB200000F03EFE002800D100902000EF
:2077000001F074F9002800D1009020001030C068016D080004D020008847002800D1009038
:20772000903490371C35761ED1D10098F2BD0000010000400100401C0022D243914201D176
:2077400000210420CA0052181201104B9A181369002B02D08C3200231370491C8142F1DBBF
:20776000704738B50C0000280FD4C1000818000106490D18002C03D1280000F0A4FD02E05D
:20778000280000F0B4FD8D352C7031BDC812002048120020B8010020102700006D6E00086D
:2077A0005D6D0008E96F0008417000088D700008BB700008CD700008ED700008FF70000885
:2077C00075710008D5720008D77300085B6F00082F73000881840008E18D0008F7730008A9
:2077E000F0B5059C02E0F0B5334C2468A6464C4655465E466746F0B4994682468B46944651
:207800002E4A10210420148801263602B4432304344323437446012C00DA51E04F46092FE6
:2078200000D308275C4625782D02641CA34654462678641CA24635436C0810D31A266C0A4A
:2078400000D318269153138010836D08744600BF641EFDD550837446641EFDD510E01C0CD2
:20786000148010836D087446641EFDD550837446641EFDD51469640902D30124E405254348
:207880007F1ED9D14E46082E02D20824A41BE5402D0C64462570641CA4464E46092E02DB69
:2078A000083EB146BAD1F0BCA146AA46B346BC461C0C1480F0BD0000EC0A002000000048BB
:2078C0004F46092F00D308275C4625782D02641CA34654462678641CA24635436C0809D39A
:2078E0001A266C0A00D318269153138010836D0850830AE01C0C148010836D085083146971
:20790000640902D30124E40525437F1EE6D14E46082E02D20824A41BE5402D0C6446257035
:20792000641CA4464E46092EBDDB083EB146C7D1130030B414001500103902D310393CC022
:20794000FCD2490700D30CC000D504C0890002D30280801C002900D5027030BC7047000042
:207960000022E5E700487047601B00206846704706490A78521C0A7000224A7062B6044920
:20798000087008780028FCD1704700BFB8010020551B002038488168002901D108B00ED021
:2079A000EFF30982283A0368F8C243464C4655465E4678C2734608C2283A83685A60FEF7C0
:2079C00019FE816800291CD04A68143278CAB346AA46A146984608CA9E46283AF8CA274960
:2079E0000B60143282F30988704604210843864690692349814203D02248034200D162B64B
:207A00007047214821490968401A80F308882049C161204981610621C9438E46704701BCBD
:207A200020461D498E4600BDFEE71C48006817490968401A20380721884380F3088800219E
:207A40000D48417062B600F012F8FEE703680CB40021417062B61249124A0A6000BF72B60C
:207A60000CBC036070470E490E4A0A6070470C490C4A0A6070470000B8010020B8010020D6
:207A80005E7A000800FF0000401D00203CFA000800000001D1F70008297A00080048000880
:207AA00004ED00E000000010EFF3108072B604490A68FF231B0413430B6080F310887047C8
:207AC00020ED00E010B572B6074C6178491C617008220021FEF70AFD6078401E6070607845
:207AE000002800D162B610BDB801002080B5B84801210170002001F063FB01F031FB01BDBD
:207B0000F0B583B0002069460880142401F07CFB002800D0102401F075FB002801D01820D8
:207B200084430122012100A8801C01F0AFFB68468078012802D0022806D00BE00422002187
:207B400001A801F039FC15E00422082101A801F09DFB0FE0AE480190102C0BD1012200210E
:207B6000684601F093FB68460078042802D26846012141700198BB4F3E000B360C2502AA32
:207B80000A21FEF7BAFC029930313170761E6D1EF5D1FF20801C69464978002903D06946B7
:207BA000097808180CE0102C0AD0142C01D1001D06E0042C01D1401D02E080204001204388
:207BC000788203B0F0BD80B5FFF788F801BD8807800F022800D1704780B5FFF77FF801BDB2
:207BE00030B583B0FFF78CFF01F098FD02F0E8FB9C4C01F007FB00281FD101AD009000233D
:207C000040220221012001F0EEFC28704020009023002C3340220221002001F0E4FC68708B
:207C200001A802F085FC9049002002F0B8FC00228E492000203002F0E3F81034200002F0FD
:207C4000BCFA01F09EFD03B030BD80B501F0BFFA1420FEF73EFE01F0B9FA01BDF2B582B0C3
:207C600083490978002948D10600029C80484568002D20D04020401B2700844200D90700B7
:207C80003A0031007A4840190C3000F037FCED19F619E41B402D0ED17648006800900023C6
:207CA000402273490C31002002F0F2FB402801D0FFF71CFF0025A709BF010ED06D48006890
:207CC000009000233A003100002002F0E1FBB84201D0FFF70BFFF619E41B002C06D022009B
:207CE000310063480C3000F009FC2500604845608068029940185E49886003B0F0BD38B54E
:207D0000334C207800281BD162685A4D2B68002A0BD021000C3102F0B1FB6168884201D0CF
:207D2000FFF7E4FE0020606008E000930123002102F0AEFB2968002002F039FC0020A06038
:207D400031BD38B505000C002148007800280CD1FFF7D5FF4748036822002900002002F030
:207D60008DFBA04201D0FFF7C1FE31BDF8B507000D00174C2078002828D162683D4E002AC9
:207D80000BD0336821000C3102F078FB6168884201D0FFF7ABFE00206060316802F00EFC32
:207DA000002801D0FFF7A2FE0023DB432A003900002002F063FB002801D5FFF797FEA806E9
:207DC00001D0002001E0A0684019A060F1BD00003C0B002038B505000C0025480078002850
:207DE00007D0220000212800FEF780FB0020C04332BD2048036822002900002002F071FB23
:207E0000A04202D0FFF772FEEBE7002032BD000040E2010080B5164A1278002A02D0002009
:207E2000C04302BD0A000100002002F062FB02BD80B5002002F074FB02BD80B5002002F08B
:207E400068FB02BD80B5002002F05BFB02BD80B502F016F88007800F022801D1012002BD7D
:207E6000002002BD48010020C77B0008CF7B00083C0B0020440100204020704738B504004A
:207E800072B6104D6878401C687001202071206800280ED02878401C2870200002F0A6FBC2
:207EA000002804D16079012801D000202071FEF76AFC6878401E68706878002800D162B6DF
:207EC00031BD00BFB801002070B5040072B60F4E306A4518207900280CD12A004821200026
:207EE00002F0A8FBB068C068281A012801DA012070BD72B66079012801D000202071707885
:207F0000002800D162B6002070BD00BFB801002018B40022426001602A490A68002A02D198
:207F2000086011BC70470A0000E0221D1468002C01D0A042F9D24460106008680028F0D09A
:207F400000E0080041680029EBD0026883188B42F7D14B684360096851180160F2E7002088
:207F60001849096804E00A68904200D2100049680029F8D1002800D00838704718B40100C6
:207F80000020C91D0722914308310E4A00E01A1D1368002B14D01C68A14208D218005B18E0
:207FA00013600268521A1A6042685A6004E08C42EDD118005B681360002801D0016008304A
:207FC00012BC70472C0B0020002800D1704780B508380168FFF79CFF01BD80B5CA1D0721A4
:207FE0008A430832083801680260891A8018FFF78FFF01BD10B504002068FFF7E5FF0020A7
:20800000206010BD80B507229143FFF781FF01BDF2B504001500666E216E891B012901DAE1
:20802000626D89188D4228DA616DE26D5118881B2F00854200DD0700002F1DD03A0000990D
