:020000040800F2
:100000000050002001010008D1060008D1060008B8
:10001000D1060008D1060008D10600080000000043
:10002000000000000000000000000000D1060008F1
:10003000D106000800000000D106000819010008E0
:100040001B0100081B0100081B0100081B01000820
:100050001B0100081B0100081B0100081B01000810
:100060001B0100081B0100081B0100081B01000800
:100070001B0100081B0100081B0100081B010008F0
:100080001B0100081B0100081B0100081B010008E0
:100090002D2E00081B0100081B0100081B01000891
:1000A0001B0100081B0100081B0100081B010008C0
:1000B0001B0100081B0100081B0100081B010008B0
:1000C0001B0100081B0100081B0100081B010008A0
:1000D0001B0100081B0100081B010008CD0D0008D2
:1000E0001B0100081B0100081B010008DFF80CD0F1
:1000F00000F02AF800480047B12F00080050002007
:100100000648804706480047FEE7FEE7FEE7FEE7B1
:10011000FEE7FEE7FEE7FEE7FEE7FEE7D10B00089D
:10012000ED00000840EA01039B0703D009E008C97D
:10013000121F08C0042AFAD203E011F8013B00F8AC
:10014000013B521EF9D27047064C074D06E0E068AD
:1001500040F0010394E8070098471034AC42F6D30E
:10016000FFF7C8FFD83600081837000810B50C484C
:10017000806940F01D000A4988610121094800F0AA
:1001800093F90949094800F004F90949094800F0C0
:1001900000F90949094800F0FCF800F0CFFA10BD59
:1001A0000010024000023000E8340008000801405E
:1001B000EC340008000C0140F0340008001001404D
:1001C00008B50B4909684FF47A72B1FBF2F1891C4A
:1001D0000622B1FBF2F148430146009100BF00BF87
:1001E000009A521E0092002AFAD100BF08BD0000FA
:1001F0000000002030B500F00F010D4C04EB81032E
:10020000D3F8002C00F0800343B148F6CF731340BD
:10021000254605EB8104C4F8003C07E04CF68F73DB
:100220001340034D05EB8104C4F8003C30BD0000D1
:100230000050004070B500F00F02104D05EB820435
:10024000D4F8003C00F080045CB101F030045C4064
:1002500048F6BF752C40094E06EB8205C5F8004CE8
:100260000AE001F440545C404BF68F752C40034E7D
:1002700006EB8205C5F8004C70BD00000050004040
:1002800030B5044604254FF4302000F06FF80546E1
:10029000042D17D10C48006940F002000A4908619A
:1002A00008464461006940F0400008614FF4302086
:1002B00000F05CF805460448006941F6FD7108400D
:1002C00001490861284630BD0020024004200B4946
:1002D000C96801F0010109B101200EE00749C968B0
:1002E00001F0040109B1022007E00449C96801F0E6
:1002F000100109B1032000E00420704700200240F3
:100300000348006940F0800001490861704700001F
:100310000020024070B504460D460426F00200F0AD
:1003200025F80646042E11D10948006940F0010065
:10033000074908612580F00200F018F806460448D5
:10034000006941F6FE71084001490861304670BD00
:100350000020024002480349486003484860704753
:100360002301674500200240AB89EFCD00B502466E
:100370000423FFF7ABFF034603E0FFF7A7FF0346A5
:10038000521E012B01D1002AF7D102B905231846CC
:1003900000BD2DE9F0410246002500260020002383
:1003A0000024002791F803C00CF00F0591F803C05A
:1003B0000CF0100CBCF1000F03D091F802C04CEA15
:1003C000050591F800C0BCF1000F31D01468002081
:1003D0002BE04FF0010C0CFA00F3B1F800C00CEA6E
:1003E00003069E4220D183004FF00F0C0CFA03F756
:1003F000BC4305FA03FC4CEA040491F803C0BCF1C9
:10040000280F06D14FF0010C0CFA00FCC2F814C002
:100410000AE091F803C0BCF1480F05D14FF0010C80
:100420000CFA00FCC2F810C0401C0828D1D314609C
:10043000B1F800C0BCF1FF0F34DD546800202EE09D
:1004400000F1080C4FF0010808FA0CF3B1F800C0F5
:100450000CEA03069E4221D183004FF00F0C0CFAE8
:1004600003F7BC4305FA03FC4CEA040491F803C00B
:10047000BCF1280F05D100F1080C08FA0CF8C2F8FD
:10048000148091F803C0BCF1480F07D100F1080CAB
:100490004FF0010808FA0CF8C2F81080401C082838
:1004A000CED35460BDE8F081F0B50A4600230024A5
:1004B0000021002500F00046B6F1004F02D11D4E8C
:1004C000F16901E01B4E7168C0F3034583B200F48B
:1004D0004016B6F5401F08D121F07061154E7668C0
:1004E00026F07066134F7E6012E000F48016B6F5B9
:1004F000801F06D1032606FA05F4A14341F070617E
:1005000006E0460D360103FA06F6B14341F070618C
:1005100022B1460D360103FA06F6314300F00046DB
:10052000B6F1004F02D1034EF16101E0014E71605E
:10053000F0BD0000000001402DE9F04704460D46E3
:100540004FF0FF0A2078D02872DB2078D7286FDCA4
:10055000207805F8010B14F8010BD038082868D270
:10056000DFE800F00412151821335672504807686E
:1005700005F8017B380A05F8010B380C05F8010B6A
:10058000380E05F8010B74E0FFF7E4FE71E0FFF7A9
:10059000B7FE6EE027683846FFF772FE042801D0E8
:1005A0004FF0FF0A65E0D4F80080A68806E018F84E
:1005B000011BFF2902D04FF0FF0A04E0301EA6F114
:1005C00001018EB2F3D100BF53E02768A688382E10
:1005D00002DD4FF0FF0A1AE0A41D12E014F8019B9F
:1005E0002EB114F8011B49EA0129701E86B2494652
:1005F0003846FFF78FFE042802D04FF0FF0A05E0CF
:10060000BF1C301EA6F101018EB2E7D100BF30E061
:10061000D4F80080A6883E2E02DD4FF0FF0A12E0DB
:10062000002005F8010B09E026B998F800A005E0C4
:1006300023E01AE018F8010B05F8010B301EA6F1B3
:1006400001018EB2F0D114E000BFBFF34F8F194803
:10065000006800F4E06018490843001D154908606F
:10066000BFF34F8F00BF00BFFEE76D1E4FF0FF0AC4
:1006700000BF00BF85F800A017E01048006890B1E7
:100680000F4BDFF840C0DCF800C003EB8C110E4BC1
:10069000DFF838C0DCF800C003EB8C10074B1B6898
:1006A0005A68904701E0FF202870BDE8F0870000FD
:1006B000002004E00CED00E00000FA05140000202A
:1006C0007814002064000020780400205C000020E2
:1006D00072B61749086880F3088800BF00F02EF84A
:1006E000002412E000F070F8FA20FFF769FD00F036
:1006F00063F800F043F8FA20FFF762FD00F036F8E7
:100700004FF47A70FFF75CFD641C052CEADB00BF38
:10071000BFF34F8F0748006800F4E06006490843C4
:10072000001D04490860BFF34F8F00BF00BFFEE704
:10073000000000080CED00E00000FA0510B50848C4
:10074000806940F00800064988614FF4205005494F
:100750000860054903481438FFF71BFE10BD000070
:1007600000100240140C0140D43400084FF4005033
:100770000149086070470000140C01404FF400501C
:100780000149086070470000100C014000B50246A6
:1007900002F0010010B1FFF7F1FF01E0FFF7E6FF03
:1007A00000BD00000348006880F400500149086063
:1007B000704700000C0C01404FF400600149486193
:1007C00070470000001001404FF4006001490861CB
:1007D000704700000010014000B5024602F0010021
:1007E00010B1FFF7F1FF01E0FFF7E6FF00BD0000E9
:1007F00070B5002400F030FA054605F0040008B199
:1008000044F0400405F0020008B144F0400405F053
:10081000010008B144F0100400F03CFA054605F070
:10082000080008B144F0080405F0040008B144F0E1
:10083000020405F0020008B144F0010400F0F8F9E8
:1008400008B144F0040405480068604028B1A0B233
:1008500000F0F6FD08B10148046070BD28000020DA
:1008600000F0010149B100BF0949096821F0F00118
:1008700041F04001064A116009E000BF04490968DF
:1008800021F0F00141F07001014A116000BF704792
:10089000000C014010B504490448FFF77AFD0449F3
:1008A0000448FFF776FD10BDE03400080008014061
:1008B000E4340008000C014010B518200B49086012
:1008C00002200B4908600B4908481038FFF761FD0A
:1008D00000BF07481438006820F0F00040F04000E6
:1008E00003491439086000BF10BD00001008014022
:1008F000140C0140DC34000810B50748806940F052
:100900000400054988614815044908600449034802
:100910001438FFF73EFD10BD0010024014080140DE
:10092000D834000829B1064AD2690243044BDA617F
:1009300004E0034AD2698243014BDA617047000048
:100940000010024029B1064A92690243044B9A61A1
:1009500004E0034A92698243014B9A6170470000A8
:100960000010024030B500210022002400232D4D4C
:100970006D6805F00C0121B1042905D0082923D1A7
:1009800005E0294D056022E0274D05601FE0254D5B
:100990006D6805F47012234D6D6805F480340225EE
:1009A00005EB92421CB9214D554305600BE01D4DEE
:1009B0006D6805F400351DB11C4D5543056002E01E
:1009C000194D5543056002E0174D056000BF00BF9B
:1009D000144D6D6805F0F0010909154D6B5C056853
:1009E000DD4045600F4D6D6805F4E061090A104D6A
:1009F0006B5C4568DD4085600A4D6D6805F46051AB
:100A0000C90A0B4D6B5C4568DD40C560054D6D68DE
:100A100005F44041890B074D6B5CC568B5FBF3F5E8
:100A2000056130BD0010024000127A0000093D004F
:100A30006C0000207C00002010B500F001F810BD13
:100A400008B5002000903748006840F480303549F0
:100A5000086000BF3348006800F4003018B90098FF
:100A6000B0F5A06FF6D12F48006800F4003040B90F
:100A70002C48006820F480302A490860012000904A
:100A800001E0002000902848006840F0100026494E
:100A900008600846006820F0030008600846006807
:100AA00040F0020008601F4840681E494860084640
:100AB000406848600846406840F4806048600846E6
:100AC000406820F47C104860009828B108464068CF
:100AD00040F4D000486005E01248406840F4E81057
:100AE000104948600F48006840F080700D49086068
:100AF00000BF0C48006800F000700028F9D00948D9
:100B0000406820F00300074948600846406840F00C
:100B10000200486000BF0348406800F00C0008284D
:100B2000F9D108BD001002400020024010B500219C
:100B300000200022214B5B6803F00C0121B1042945
:100B400006D0082928D107E01D4B1E4C236027E062
:100B50001B4B1C4C236023E0184B5B6803F47010A4
:100B6000164B5B6803F48032022303EB904022B9FA
:100B7000154B4343134C23600DE0104B5B6803F4AB
:100B8000003323B1104B43430E4C236003E00C4B66
:100B900043430C4C236003E0094B0A4C236000BF25
:100BA00000BF064B5B68C3F30313084CE15C054BC5
:100BB0001B68CB40034C236010BD000000100240B6
:100BC00000127A000000002000093D00040000200F
:100BD00010B51348006840F001001149086008464C
:100BE0004068104908400E494860084600680E49B0
:100BF00008400B4908600846006820F4802008601F
:100C00000846406820F4FE0048604FF41F008860EA
:100C1000FFF712FF4FF000600449086010BD0000AC
:100C2000001002400000FFF8FFFFF6FE08ED00E0B4
:100C300001480068704700004800002008B5012105
:100C4000684600F037F8012802D19DF8000008BD81
:100C50004FF0FF30FBE7000000200C49097801F05D
:100C6000010109B140F002000849097801F00401CE
:100C700009B140F004000649096831B9034909780F
:100C800001F0020109B140F002007047400000206D
:100C9000480000200020704701B50121684600F09F
:100CA00063F8012802D19DF8000008BD4FF0FF3025
:100CB000FBE7000030B5024600201EE04B1E99B253
:100CC0000F4BB3F904300E4CB4F90640A34214D0D4
:100CD0000B4C63885C1C0A4D6C8005F10804E45CD5
:100CE00002F8014B2B465B88DBB22C46638023461F
:100CF000DB885B1C1BB2E380401C0029DED130BDC9
:100D00006003002010B5272000F01F020121914050
:100D1000114A430942F8231000BF00200F49086020
:100D20000F4908600F490871082088710020487138
:100D30004FF4E1300860084600F0E0FB272000F0A7
:100D40001F02012191404209920002F1E022C2F803
:100D5000001100BF012010BD80E100E04400002030
:100D6000480000204C0000202DE9F04104460D46CB
:100D700000261BE0681E85B2124880881149C98888
:100D8000401A0FFA80F8B8F1FF0F0FDC0D48078802
:100D900014F8011B0830C155781CC7B209480780F8
:100DA0008088401C00B207498880761C002DE1D164
:100DB0002EB1012240F22771034800F0C0F83046FE
:100DC000BDE8F081580200200048004070B534486A
:100DD00000883449086040F22551314800F085F818
:100DE00050B3314880883049C988401A05B2FF2D78
:100DF00022DC2B4800F034F9C4B22B490888411C8E
:100E0000294A118002F108010C5444B902212448F6
:100E100000F05EF818B101202449086002E00020CB
:100E20002249086020480088C0B21F49088008464F
:100E30008088401C00B2888040F22771184800F07A
:100E400054F820B31A480068012803D1144800F070
:100E50000CF923E01748B0F904001649B1F906105F
:100E6000884215D013484688701C124A508002F1FF
:100E70000800815D0A4800F0FDF80E484088C0B2C5
:100E80000C4948800846C088401C00B2C88005E074
:100E9000002240F22771024800F051F870BD0000B6
:100EA000004800404000002060030020480000206F
:100EB000440000205802002021B1828942F40052EF
:100EC000828104E082894DF6FF731A408281704767
:100ED00002460020B1F5007F00D100BF13880B400F
:100EE0000BB1012000E00020704770B502460024DD
:100EF00000230025002040F66A16B14200D100BF51
:100F0000C1F3421501F01F03012606FA03F3012D78
:100F100002D19689334006E0022D02D1168A334071
:100F200001E0968A33400C12012606FA04F4168872
:100F3000344013B10CB1012000E0002070BDF0B5C9
:100F40000346002400260025002040F66A17B94217
:100F500000D100BF1846C1F3421401F01F0601275B
:100F600007FA06F5012C01D10C3004E0022C01D166
:100F7000103000E014301AB107682F43076002E018
:100F80000768AF430760F0BD2DE9F04786B005461E
:100F90000E460024A24600BFA1460027B08900B13A
:100FA00000BF2F462C8A4CF6FF700440F0880443A3
:100FB0002C82AC894EF6F3100440B0883189084386
:100FC000718908430443AC81AC8A4FF6FF4004406A
:100FD000B0890443AC8201A8FFF7C4FC1F488742D4
:100FE00002D1DDF810A001E0DDF80CA0A88900F422
:100FF000004040B10AEBCA0000EB0A10316849001A
:10100000B0FBF1F807E00AEBCA0000EB0A10316808
:101010008900B0FBF1F86420B8FBF0F0040120096E
:10102000642101FB1089A88900F4004040B13220FE
:1010300000EBC900B0FBF1F000F00700044308E04A
:10104000322000EB09106421B0FBF1F000F00F003A
:1010500004432C8106B0BDE8F08700000038014051
:1010600001468888C0F308007047818941F001017A
:1010700081817047C1F308028280704701460020D9
:101080007047000070B506460C460E4800680E49D1
:101090000968884213D90B4800680B490968451A4A
:1010A000AC4200DD2C462246074801683046FFF777
:1010B00039F80548006820440349086000E000242E
:1010C000204670BDAC000020B0000020014600208A
:1010D000704700002DE9F04707460C46B846244803
:1010E000006824490968A0EB010923480088A0EBA7
:1010F0000906002E02DC0020BDE8F087B44200DDC6
:10110000344600251D4800681D49096888421AD3E5
:101110001A48006820441B49174A12881144884223
:1011200011D9184814490988084414490968451A0E
:101130002A46414611480068FEF7F4FFA844641BA4
:1011400010480E49086054B1224641460B480068D9
:10115000FEF7E8FF094800682044084908602C446D
:10116000034800682044024908602046C4E70000A4
:101170008C0000209000002014350008940000200E
:1011800098000020CE01002010B5044606480068F3
:1011900000B110BD01200449086000F007F80020EC
:1011A0000149086000BFF4E78000002010B538480E
:1011B000006800B910BD3748006837490968441A0B
:1011C00034B93648006818B9002031490860F1E7A1
:1011D0001CB932480068002857D0314800683149AE
:1011E0000968884203D83048008884420FD12C48CF
:1011F000006820442D492C4A12881144884206D99F
:101200002A4829490988084425490968441A284870
:101210002849097830F81100A04204DA2448254909
:10122000097830F811402449097841F080002246BD
:101230001B49096801F0C0FD19480068204418499D
:10124000086015480068204413490860174816498B
:101250000988084412490968884202D11348104994
:1012600008600C4800680C49096888420AD1104897
:101270001049097830F81100A04203D10120074934
:10128000086002E000200549086000BF92E7000006
:10129000840000208C0000209000002088000020A6
:1012A000980000209400002014350008CE01002092
:1012B0001C350008D10000201135000810B5044687
:1012C0001148006828B111480068401C0F490860A7
:1012D00010BD01200C4908600D49086000F01EF89F
:1012E00000200B490860084908600A4800680A495C
:1012F0000968884206D007490968074A1268881AAF
:10130000FFF7E4FE00BFE3E79C000020A4000020FC
:10131000A0000020AC000020B000002010B519484B
:1013200000681949401A19490988081A1849194AC0
:10133000127831F81210884217DB124801681648FB
:10134000007801F0ABF804460E48006820440D49CF
:1013500008601248006898B11148006880B90F48C9
:101360000068401E0D4908600AE001200D49086030
:101370000B48006820B109480068401C0749086014
:1013800010BD0000AC0000200E0200201635000841
:101390001C350008D100002012350008A4000020F0
:1013A000A0000020A800002010B5044604F00400AE
:1013B00010B12046FFF782FF04F0080010B120466C
:1013C000FFF7E2FE10BD704708B501216846FFF740
:1013D00059FE012802D19DF8000008BD4FF0FF30F2
:1013E000FBE70146002070470020704710B5104809
:1013F00000F04EF8D0B10E4800780E4908700C4845
:101400000088000A48700A480068000C8870084884
:101410000068000EC87006480079087104484079D9
:101420004871034880798871012010BD0020FCE7D5
:10143000B60000200C01002010B500F03BF810BDF4
:1014400010B504460F480078D0B1A1200E490870AD
:101450002020487000208870C870087148710220F0
:1014600088710020C8710C722012487207490978EF
:1014700041F080000A22044901F09EFC012010BDC9
:101480000020FCE7C30000204E02002010350008B9
:101490000146074800790871054880798871044839
:1014A00040794871024800680860012070470000D8
:1014B0004C00002010B501210846FFF743FA012136
:1014C0008804FFF72FFAFFF71DFC05490548FEF7D2
:1014D00060FF05490348FEF75CFF012010BD0000D6
:1014E000C6360008000C0140CA36000810B5FFF7E8
:1014F00009FC10BD014601207047000070B505468B
:10150000284CA879082801D0002070BD0020A080B8
:10151000687920B1012809D002280BD102E000200F
:10152000208109E04FF48060208105E04FF4C06025
:10153000208101E00020E8E700BF287920B10128E0
:1015400009D002280BD102E00020E08009E04FF42E
:101550000050E08005E04FF44050E08001E00020C2
:10156000D3E700BF287910490871A8798871687994
:10157000487128680860286820600C20608100207D
:10158000A08121460948FFF7FFFC012240F22551C6
:101590000648FFF7D4FC01210448FFF78DFC012029
:1015A000B3E70000680400204C0000200048004021
:1015B00001B501216846FFF78DFD012802D19DF894
:1015C000000008BD4FF0FF30FBE7000010B5002021
:1015D00017490860174908601749086017490860EB
:1015E0001749086017481849086018490860002022
:1015F00017490860174908601749086017490860CB
:1016000017481849086018490860002017490880E1
:10161000FFF76CFF4FF41650154908600020087161
:101620004871082088710846FFF768FF10BD000068
:101630008000002084000020880000208C00002012
:1016400090000020CE01002094000020980000208F
:101650009C000020A0000020A4000020A800002082
:101660000E020020AC000020B0000020B4000020DA
:10167000B600002010B5FFF7A9FF10BD10B528482F
:101680000068B8B92748006827490968884211D11D
:1016900024480068254988420CD001202049086070
:1016A000224820490860204908600020204908603D
:1016B0001B4908601F480068D0B119480068B8B9D4
:1016C0001B480068A0B9012015490860FFF726FEF5
:1016D00000201349086013480068134909688842CC
:1016E00006D010490968104A1268881AFFF7EEFC04
:1016F0001148006890B91148006878B9104800682E
:1017000010490968401A09D001200B4908600B49AB
:101710000860FFF74BFD00200749086010BD00007E
:101720009C000020AC000020B00000200E02002031
:10173000A8000020A40000208000002084000020D9
:101740008C000020900000200146002070470020FF
:10175000704701460020704710B5044602480480D7
:101760002046FFF7C7FE10BDB400002010B50E489C
:1017700000780D49497840EA01200B49897840EA10
:1017800001400949C97840EA0160084908600648F3
:10179000007908710448407948710348807988715C
:1017A0000846FFF7ABFE10BD0C010020B60000207C
:1017B00010B504462046FEF71DFD43F230012046D9
:1017C000FEF738FD10BD000010B50246937803F017
:1017D0000F019088937803F0800353B1294B1B8845
:1017E000294C246804EB01142360431C23F00100FE
:1017F00020E0244B1B88244C246804EB0114A360D4
:101800003E280ED900F11F0323F01F000123C3EB74
:10181000401343F400431C4C246804EB0114E360C0
:1018200008E0431C23F001004302174C246804EB3A
:101830000114E360134B1B880344124C2380D378BC
:1018400003F0030333B1012B07D0022B08D0032B85
:101850000FD10BE04FF400700BE04FF4806008E014
:10186000002000230BB140F4807002E04FF4C06010
:1018700000BF00BF0843054C04EB8103C3F8000C14
:1018800010BD00003C000020380000200050004047
:1018900030B94021034A11801146098880311180F6
:1018A000704700003C00002000F01EBB70B1012119
:1018B0000A4A116000211160121D11604FF4E051BD
:1018C000121F11605115064A116006E00321034AF8
:1018D00011605115024A121D11607047405C0040B2
:1018E0001008014010B510488088104909788842D6
:1018F00002DD0E48047801E00B48848814B900200A
:101900000B490870084822460168802001F054FA0B
:10191000044605480068204403490860084680885A
:10192000001B888010BD0000D4000020F93400089E
:10193000D200002010B508480168002000F0AEFD7C
:10194000044605480068204403490860084680882A
:10195000001B888010BD0000D4000020704710B527
:10196000044600212046FEF765FC10BD10B5044674
:1019700043F220012046FEF75DFC10BD10B5044681
:1019800004F00200002870D001F0E4F9A9490978B8
:10199000C809FFF7E3FFA748C088A7498880A54882
:1019A0000078C0F3411010B1012875D1A9E0A14819
:1019B00040780C2871D2DFE800F0060DA11BA129A8
:1019C000464D4E62719400F0D3FE00B9B5E0FFF7CA
:1019D00089FF94E0002000F02BFF00B9ADE001F09A
:1019E000C1F99648006810B194480068804786E0C5
:1019F000012000F01DFF00B99FE001F0B3F98F480E
:101A0000006810B18D480068804778E000BF8948C1
:101A1000007800F01F0030B98648807840F08000E0
:101A20008749087001E0002001E000BF012000B9F3
:101A300083E08349097801F07F00012101F078F902
:101A400001F090F95BE000F05BFD00B975E0FFF795
:101A500049FF54E071E000BF7648007800F01F00B5
:101A600020B978487449086002E079E0002001E07C
:101A700000BF012000B960E0FFF734FF3FE000F055
:101A80004FFF00B959E001F06DF96F48006810B1DF
:101A90006D480068804732E04EE02FE000BF6548A7
:101AA000007800F01F00012812D16648007860B16C
:101AB0006048007965490978884206DA5D4800790E
:101AC000634908445C49086001E0002004E001E04B
:101AD000002001E000BF012000B92EE0FFF702FF67
:101AE0000DE001F00FF800B927E001F03BF959488B
:101AF000006810B157480068804700E01DE000BF53
:101B00002DE04C48007800F01F0020B1012803D0E0
:101B100002280FD10DE010E000F072F900B10AE0E8
:101B200000F0E0F900B106E000F0EAF800B102E0F0
:101B300003E002E001E012E000BF3E480078C00987
:101B400030B93C48C08818B1002001F0FBF802E031
:101B5000802001F0F7F800203749888000BF00BFDF
:101B600004F0040098B333480078C00980BB3248C1
:101B7000808860B3FFF7DEFE2F48808838BB2D4891
:101B80000078C0F3411010B1012818D100E017E02F
:101B90002848007800F01F0020B1012803D0022857
:101BA0000BD109E00CE000F091F800B106E000F084
:101BB00055F800B102E003E002E001E007E000BFF9
:101BC000802001F0BFF800201B49888000BF02E0A0
:101BD000FFE701F0CFF804F00800F0B115480078F5
:101BE0000121B1EBD01F08D11348808810B91A48E1
:101BF000007890B1FFF776FE0FE01148007800F012
:101C0000800050B10E48007800F07F000C49087049
:101C100000210B48007801F08BF804F0400010B16F
:101C20000020FFF7C5FD04F0800010B18020FFF711
:101C3000BFFD10BDDC000020D4000020843500086A
:101C4000C2000020C30000207C350008D000002026
:101C50002C00002080350008D200002010B5184864
:101C6000007918490978884205D015480079164945
:101C70000978884222D11248407820B102280AD03F
:101C800020281AD111E0FFF762FD18B101F06AF8BF
:101C9000012010BD11E00A494888FFF75AFD18B12C
:101CA00001F060F80120F4E707E0FFF75FFD18B1ED
:101CB00001F058F80120ECE700BF00BF0020E8E782
:101CC000DC0000200E3500080F35000810B50A486A
:101CD00000790A49097888420CD1074840780928D8
:101CE00007D100F09DFB18B101F03CF8012010BDB8
:101CF00000BF00BF0020FAE7DC000020FA34000833
:101D000010B53A4800793A490978884205D03748F1
:101D1000007938490978884266D1344840780428E7
:101D200033D007DC78B1012812D002281BD0032859
:101D300059D11DE0202832D0212835D022283ED08C
:101D4000232850D145E02C482C490860012010BDC3
:101D5000FFF74AFB30B1284828490860FFF7C2FD69
:101D60000120F4E73FE02448244908600120EEE721
:101D70001E494888FFF735FB30B11F481F490860EE
:101D8000FFF7B0FD0120E2E72DE018494888FFF792
:101D900075F918B100F0E6FF0120D8E723E01648F6
:101DA000164908600120D2E7FFF720FB30B1124846
:101DB00012490860FFF796FD0120C8E713E00B49C0
:101DC0004888FFF7C9FC18B100F0CCFF0120BEE73E
:101DD00009E006494888FFF7B7FC18B100F0C2FFD8
:101DE0000120B4E700BF00BF0020B0E7DC00002006
:101DF0000E3500080F3500080C010020D40000202B
:101E000010B5314800793149097888425AD12E48B5
:101E100040780C2855D2DFE800F054062E41545487
:101E20005454541D394C00F0F5F990B12648C0784F
:101E3000012803D126482749086006E02248C078D7
:101E4000032802D1244823490860FFF74BFD0120F5
:101E500010BD36E01C48C078022803D11F481D4938
:101E6000086006E01848C078032802D11A481949CA
:101E700008600120ECE700F0B5F930B118481549C9
:101E80000860FFF72FFD0120E2E71AE000F0A0FA5A
:101E900018B100F067FF0120DAE712E000F0B0F9B6
:101EA00030B10F480B490860FFF71CFD0120CFE758
:101EB00007E000F0ABFA18B100F054FF0120C7E7CB
:101EC00000BF00BF0020C3E7DC000020FA34000898
:101ED0004D010020D4000020360000208E0100209B
:101EE0000C0100200020704700200B4908700B49AE
:101EF00008600B4908600B4908600B4908800B49D2
:101F000008800B4908600B4908600B4908800B49A1
:101F100008600B4908807047E4000020E8000020BA
:101F2000EC000020F0000020F4000020F60000206B
:101F3000F8000020FC000020000100200401002027
:101F40000801002070B50646664800886649098881
:101F5000884224DB6548006808BB002064490860AB
:101F600060490880634801780123421C184601F04B
:101F7000FFF85D4908800846008880B15D485C49EB
:101F800008605D480078012804DC08460068401CB1
:101F9000086004E054480088401C534908805248B7
:101FA000008800285ED15548006818B100205349C8
:101FB000086057E052480068002853D04E48007827
:101FC00001281CDC4E48006800284BD000204949FD
:101FD0000870444908800223464A521C002101200F
:101FE00001F0C6F8404908800846008818B1414809
:101FF000401C3F49086000204149086032E03D48EC
:10200000047800BF202C00DB00240120A0403C49C4
:102010000968084010B3601C364908700020314937
:102020000880601CC1B20223324A521C012001F018
:102030009FF82D4908800846008838B12D482C4962
:10204000086029480088401C274908800120A040DA
:102050002B49096881432A48016002E0601CC4B230
:10206000D0E700BF2048008810B920480068A0B31E
:102070001D4800881B490988401A85B22148224919
:10208000097830F81100A84204DA1E481E49097880
:1020900030F811501D49097841F080002A46144952
:1020A000096800F089FE1248006828441049086059
:1020B0000C48008828440B490880084600881449C9
:1020C000098888420ADA0F480F49097830F8110068
:1020D000A84203D101200549086002E0002003491D
:1020E000086070BDF6000020F4000020F800002019
:1020F000F00000204C01002006350008E800002018
:10210000EC00002002350008D1000020FB3400085C
:102110000835000838B505462248008828B9224805
:102120002249086000201F49088020480168204893
:10213000007800F0B3F984B21C48006820441B49C1
:1021400008601848008820441649088064B1084691
:10215000008818490988884206DA1748174909781B
:1021600030F81100A0421BDD15480078012809DC79
:10217000012000900B4803880B4A0021022001F047
:1021800025F90AE00120009006480088431E064811
:102190000178421C022001F019F900200149088051
:1021A00038BD0000000100208D010020FC0000204F
:1021B000FC3400080A35000802350008D100002070
:1021C0000735000810B5044604F0080010B1204699
:1021D000FFF7B8FE04F0040010B12046FFF79AFFA5
:1021E00010BD0000034880780349085C034908706B
:1021F00001207047DC000020340000200C0100208A
:1022000010B500F0B3FF02490870012010BD0000B6
:102210000C01002010B500240C48C078012804D01F
:10222000022804D0032806D103E0094C03E0002073
:1022300010BD084C00BF00BF044A9178D07800233D
:10224000224600F095FF0120F2E70000DC000020AC
:102250004D010020360000202DE9F0415148007862
:1022600000287DD00026504801780078401C4E4A56
:1022700010704E48007800EB400204209040401E51
:10228000814203DB002048490870012600254848A8
:102290000088FF2804DA46480088401C444908802A
:1022A00044484249097830F8110041490988884278
:1022B00000D10125002462E04FF000089EB13E48A5
:1022C000005DFF2804DA3C48005D401C3A4908558F
:1022D0003A48005D38B13848005D3849095D8842A8
:1022E00001DB4FF001083548005D3049097801EB0A
:1022F00041020221914088402E492C4A127831F83F
:102300001210884204DA2D48005D08B1012000E077
:10231000002007463DB137B10120A0402849096897
:102320000843274908602548005D2649095D884221
:1023300013D02148005D2349095D884209DB012053
:10234000A0401F49096808431D490860002016493C
:1023500008701C48005D19490855B8F1000F00E0ED
:102360001EE00AD037B90120A0401549096808438A
:1023700013490860002010490855601CC4B2124877
:102380000078844298DB15B10020094908800C4888
:10239000006828B10D48008810B90020FFF7D2FD71
:1023A000BDE8F081C30000200A010020D100002018
:1023B00030000020FE3400083200002033000020EE
:1023C000EC0000203400002006350008F400002056
:1023D0000B48807830B10A48C2788078401E094B9B
:1023E0001A540BE0002105E00548C078054A505416
:1023F000481CC1B2044800788142F5DB01207047D7
:10240000DC000020340000200635000810B5034928
:10241000887800F0D9FF012010BD0000DC0000200A
:1024200038B500240D48C078012804D0022804D013
:10243000032806D103E0002038BD094C01E0094C17
:1024400000BF00BF0020054A0090D3889178D07863
:10245000224600F0BBFF0120EEE70000DC00002078
:102460008E0100203600002010B50548C06940F4F8
:1024700000000349C86100F005F8FEF73DFA10BD01
:10248000001002401420012181404209920002F113
:10249000E022C2F8001100BF704770472DE9F043F9
:1024A00005460C4605F00F061248006800EB0610C2
:1024B00080681149022202FB00190E48006800EBF7
:1024C00006108089C0F309074FF0000805E039F8CD
:1024D000041B2180A41C08F10108781CB8EB500FE4
:1024E000F5D34FF440512846FDF7A4FE3846BDE829
:1024F000F0830000380000200060004070470000BA
:102500001CB56248007800F01F0010B1012875D199
:102510009DE05E48C078082871D2DFE800F094049E
:10252000207894940A4B5A485A4908601220009027
:102530008BE05948007828B958480078012801D123
:1025400000201CBD5548007818B95548514908600D
:1025500002E054484F4908600A20009075E04E4858
:10256000007828B94D480078012801D10020E8E71B
:102570004A48007810B94C48019001E04B4801905E
:10258000002407E00198007818B1019841880844B8
:102590000190641C3D488078A042F3D101980078F6
:1025A00008B90020CDE73B490198086001984088B0
:1025B00000904AE03848007828B938480078012867
:1025C00001D10020BDE73548007810B938480190A6
:1025D00001E038480190002407E00198007818B124
:1025E0000198418808440190641C28488078A042E2
:1025F000F3D10198007818B90020A2E72FE022E07B
:102600002449019808600198408800901DE02A48FC
:102610000190002407E00198007818B10198017832
:1026200008440190641C19488078A042F3D10198B5
:10263000007808B9002084E71649019808600198DD
:102640000078009001E000207BE700BF09E06946C8
:1026500001A800F037F808B9002072E701E0002077
:102660006FE700BF0B488088009988420CD9094960
:10267000009888800846808810490978491E0840DB
:1026800010B901200E49087001205AE7DC00002033
:10269000B2350008D4000020F5340008D100002035
:1026A000C4350008C5350008C63500082A360008BC
:1026B0002B3600082C3600082E360008F9340008A6
:1026C000D200002002462048C078212804D02228C9
:1026D00024D0232833D130E01B4800791B4B1B78D2
:1026E000984201D0002070471948007828B919484D
:1026F0000078012801D10020F5E71648007810B9CC
:102700001548106001E015481060154B1B881068D3
:102710001844144B18600920086012E00A48007938
:102720000A4B1B78984201D00020DCE70E480D4B85
:1027300018600E480088086003E00020D3E70020FE
:10274000D1E700BF0120CEE7DC000020FA3400080A
:10275000F5340008D1000020C63500082A360008EC
:10276000B0350008D40000208C350008AE350008D4
:102770002748007800F01F0020B1012806D0022869
:1027800041D116E02348244B18603EE023480078EE
:1027900060B11F480079224B1B78984206DA00206E
:1027A000204B188018461C4B186001E00020704731
:1027B0002BE01748007900F08F0101F0800028B16C
:1027C00001F00F034FF48030984001E00120884071
:1027D00002461248007810B901F00F0080B9124883
:1027E0000068104060B111480068104008B1012035
:1027F00000E000200B4B18801846074B186001E0E2
:102800000020D4E701E00020D1E700BF0120CEE79F
:10281000DC000020C0000020D4000020C300002005
:10282000D00000200C010020C4000020C8000020BF
:1028300070B506463448007800F01F0020B101282A
:102840001DD002285BD11CE02F484088012813D1FD
:1028500046B100F0AFFA2D48008840F002002B4945
:1028600008800BE0002000F0A5FA2848008820F03E
:1028700002002649088001E0002070BD41E00020F0
:10288000FBE72148007900F08F0404F0800028B1B4
:1028900004F00F014FF48030884001E00120A04097
:1028A00005461B48007838B304F00F0020B31948E0
:1028B0000068284000B314484088D8B946B1204683
:1028C00000F040FA1448006828431349086015E0F6
:1028D00012480068284008B10120CEE72046FEF7E4
:1028E00067FF2046FFF70AFE0B480068A8430A4925
:1028F000086003E00020C0E70020BEE701E0002000
:10290000BBE700BF0120B8E7DC000020C0000020CA
:10291000C3000020C4000020C8000020CC0000201C
:102920002DE9F04100266A48007800F01F000028D9
:102930006FD16748807800286CD06648007830B93D
:1029400065480078012802D10020BDE8F081624886
:10295000007808B9614D00E0614D7FE06878022899
:1029600004D0042853D0052874D154E0687958491C
:102970008978884247D1564880785A490870287922
:1029800059490870002403E0002058490855641C88
:10299000574800888442F7D3012414E00120A04066
:1029A00054490968084010B12046FEF7D8FF4FF49B
:1029B0008030A0404F490968084018B144F08000B9
:1029C000FEF7CDFF641C102CE8D34FF001104949ED
:1029D0000860002048490860484908600120FEF767
:1029E00057FFE87900F0400030B14548008840F0DA
:1029F00001004349088009E04148008820F00100B7
:102A00003F49088002E06888054427E022E0EE782C
:102A100020E058E027E0E6B9A87800F08F0404F041
:102A2000800028B104F00F014FF48030884001E0AD
:102A30000120A04007462F48006838432D49086010
:102A40002846FEF7C1FE2046FEF790FF204600F024
:102A50005FF900BF00BF2878054400BF2878002830
:102A60007FF47CAF26E000201E490870012414E0AA
:102A70000120A0401F490968084010B12046FEF718
:102A80006EFF4FF48030A0401A490968084018B121
:102A900044F08000FEF763FF641C102CE8D34FF075
:102AA00001101449086000201349086013490860A8
:102AB000FEF7EEFE064880780A490978884201D080
:102AC000002042E701E000203FE700BF01203CE793
:102AD000DC000020F5340008D1000020C6350008D5
:102AE0002A360008C3000020D00000202C0000205F
:102AF000F6340008C4000020C8000020CC000020EC
:102B0000C00000202DE9F05F0027B846BB46B9465B
:102B10004948007800F01F0001287CD14748007820
:102B200010B90020BDE8F09F4FF0000A444800783B
:102B300028B944480078012801D10020F2E7414833
:102B4000007808B9404C00E0404C6CE06078022806
:102B500004D004280BD0052861D11EE060793749E4
:102B60000978884202D0608804445CE057E0A77886
:102B700094F803804FF000092F480079B8420BD138
:102B80002D488078404507D14FF0010A304810F8B1
:102B900007B0014601F8078041E027480079B842B4
:102BA0003CD1A07800F08F0606F0800028B106F036
:102BB0000F014FF48030884001E00120B04005460D
:102BC0001D488078404515D1224800682843214996
:102BD000086021480068A8431F4908602046FEF7A6
:102BE000F3FD3046FEF7C2FE304600F091F849EAA8
:102BF000050913E0D84511D109EA050070B9154857
:102C00000068A8431349086013480068A8431249A4
:102C10000860304600E00AE0FEF7A1FE00BF00BFFA
:102C20002078044400BF207800288FD101E00020E4
:102C300078E700BF504675E7DC000020C3000020A5
:102C4000F5340008D1000020C63500082A360008F7
:102C50002C000020C4000020C800002000202749CC
:102C600008602748006808B1481400E0002040F4DC
:102C70001C402349096811B14FF4804100E0002154
:102C800008432049096811B14FF4007100E00021A8
:102C900008431C49096811B14FF4807100E000211C
:102CA00008431649091F0860402017490880002082
:102CB00012490C31086014480088144909680860FA
:102CC00011480088403010490880084600880F49A4
:102CD000096888600C48008840300B49088048F239
:102CE000FF700A490968C8604FF4485003494439E5
:102CF000086080200149083108607047445C00404A
:102D000038350008343500083C0000203800002029
:102D100010B504462046FDF76DFA10BDFEF7AABCBB
:102D200010B5FFF799FABDE81040FEF7A7BC000008
:102D300001B1704740F08002014B1A6000BFF8E714
:102D40004C5C004010B5044641F210012046FDF7EE
:102D500071FA10BD10B502490020FFF79FFB10BDAE
:102D6000DC00002010B500221146802000F024F87D
:102D700010BD000010B502490020FFF78FFB10BD09
:102D80000C0100200548006840F008000349086075
:102D90000846006840F0040008607047405C00404E
:102DA0000348006820F008000149086070470000EF
:102DB000405C0040704700002DE9F04707460D4693
:102DC000144607F00F061648006800EB061000686E
:102DD0001449022202FB001A4FF0000805E028887F
:102DE0004AF8040BAD1C08F10108601CB8EB500F49
:102DF000F5D30B48006800EB061044600A4901EB6C
:102E00008600D0F8000C1FFA80F909F03000102875
:102E100003D030213846FDF70DFA2046BDE8F08793
:102E200038000020006000400050004070B550485D
:102E3000056805F4806068B1FFF710FF00F024FB1F
:102E40004C48006810B14B48006880476FF48060C0
:102E50004749086005F4006058B1FFF793FF464802
:102E6000006810B14448006880476FF40060404932
:102E7000086005F4805058B1FFF792FF3F480068A2
:102E800010B13E48006880476FF4805038490860B0
:102E900005F4007048B13A48006810B1384800683D
:102EA00080476FF400703249086005F4804050B1EB
:102EB0003448006818B102203249096888476FF425
:102EC00080402B49086005F4005050B12D4800683F
:102ED00018B101202B49096888476FF40050244934
:102EE00008603CE06FF400402149086005F00F04E1
:102EF000254901EB8400D0F8006C06F40040C0B115
:102F000026F4004048F68F7108401F4A02EB840106
:102F1000C1F8000C1D4850F8240050B106F40062BE
:102F20000AB1022200E004221046184A52F8241086
:102F3000884706F0800090B126F0800048F68F7137
:102F40000840114A02EB8401C1F8000C0F4850F808
:102F5000240020B10D4850F8241008208847044868
:102F60000068054600F400400028BBD170BD000099
:102F7000445C004024350008283500082C35000842
:102F80003435000838350008005000403C35000852
:102F900002E008C8121F08C1002AFAD17047704722
:102FA000002001E001C1121F002AFBD17047000080
:102FB000FDF7DCF8FDF7BAFDFDF7E0FB56480068C9
:102FC00038B15548554908600846006801685448BA
:102FD0008847FDF7CBFB0A20FDF7F2F800F046FA30
:102FE000012000F0BDF800204E4908601AE04D486D
:102FF00001680068401C4B4A106011B9FDF7BEFB28
:103000000DE048480068052802D1FDF7AFFB06E057
:1030100044480068322802D10020424908600A2052
:10302000FDF7CEF800F092F80028E0D0FDF79EFB07
:103030006420FDF7C5F800203A4908603A483B494A
:1030400008604FF0FF303A4908603A49086061E093
:103050003248006880B9334801680068401C314A32
:1030600010603548814204D1002011460860FDF708
:1030700099FB00F04BF91BE000F048F9A8B92B4888
:103080000068B0F57A7F02D1FDF778FB07E02748AA
:10309000006820B9FDF76AFB2348244908602348EB
:1030A0000068401E2149086002E01F481F4908606F
:1030B000FDF79EFB1E480068401C18B9FEF784F916
:1030C0001B4908601A480068401C58B11849087824
:1030D000FDF7E2FD16490968884203D14FF0FF3041
:1030E0001349086013480068401C18B9FDF7A6FD95
:1030F000104908600F480068401C58B10D49087815
:10310000FEF756FA0B490968884203D14FF0FF30A9
:10311000084908609CE700000040000814000020F7
:10312000CC34000820000020400D030024000020C3
:10313000180000201C00002040420F0010B500F0D5
:10314000C5F8BDE81040FEF777B9000003480078E5
:1031500008B1012070470020FCE70000C3000020F8
:1031600010B504462046FEF7A1FB10BD00207047B5
:103170002DE9F04104460F4615461E46012C02D0AB
:10318000032C38D136E026B1012E04D0022E2FD1E7
:1031900000E000BF2CE0194800681949096888421E
:1031A00002D118480078F8B11748144A126800EBA9
:1031B000821140222846FCF7B5FF10480068401CE9
:1031C0000E49086008460068402801D100200860C8
:1031D0000A4800680A490968884202D10020094962
:1031E00008704020BDE8F08101200849087000BF48
:1031F00000BF00E000BF00BF0020F3E76800002030
:10320000640000206100002078140020600000208D
:1032100070B504460E46154623480088854201DDF8
:10322000002070BD2148007800283AD001202049B4
:1032300008600CE01D48007848B900201C4908606F
:103240001C4908601C4908801C490880E9E71B48A4
:1032500000880028EED11A4804702A463146401CE6
:10326000FCF760FF164813490860002012490880E7
:1032700012490D8013480078012805DC0D480068CC
:10328000401C0C49086004E00C480088401C0B49B5
:1032900008800020FEF756FE00200B49085501204B
:1032A000BFE70020BDE7000008350008C30000208C
:1032B000E8000020F0000020F6000020F4000020CC
:1032C0004C0100200635000832000020002008498B
:1032D000087008490860084908600120074908701B
:1032E00000200749087007490860074908607047CF
:1032F00054000020580000205C00002060000020E6
:1033000061000020640000206800002010B52548FE
:10331000006825490968884203D1244800780028BC
:103320003DD0234A234B1B6802EB8311224A1D4BDD
:103330001B6802EB8310FDF7FFF81A480068441C75
:10334000402C00D100241748046000681649096821
:10335000884202D10020154908701848007860B1F1
:103360000020164908701248124A126800EB8211B8
:1033700040220020FFF74CFF0FE00E480068441C7D
:10338000402C00D100240B48046000680C490968F7
:10339000884202D101200B490870012010BD002095
:1033A000FCE700005C0000205800002054000020D2
:1033B00078140020640000207804002060000020C1
:1033C0006800002061000020704700002DE9F041F6
:1033D0000646884614461D46069F022E02D0032E3E
:1033E00036D134E005B933E02078072807D11A48F0
:1033F000006818B1184909688868804728E01748AC
:10340000007830B11648006816490968884200D132
:103410001EE01549124A126801EB82102A46214625
:10342000FCF780FE0E480068401C0D490860084605
:103430000068402801D10020086009480068094957
:103440000968884202D101200449087000E000BFE9
:1034500000BFBDE8F08100001400002054000020EF
:10346000580000205C0000207804002010B50020E7
:1034700004490870FFF762FEFFF70FF8FEF7F4FF4C
:1034800010BD0000D10000200948007809490880DB
:10349000002009490870094908704FF001100849D7
:1034A000086000200749086007490860704700006D
:1034B000F4340008C0000020C2000020C300002037
:1034C000C4000020C8000020CC0000208D070008A8
:1034D000D90700080028021000020210180003108B
:1034E0001800004802000048FF870000FFFF0000AE
:1034F00000E000000000030003400203030001009D
:1035000040004000040001014000400001000001B3
:103510000102020040004000400010004000400056
:10352000000000001D2D0008000000000000000049
:1035300000000000212D0008000000007D19000897
:10354000C7130008A9130008C521000800000000E7
:10355000000000000000000000000000000000006B
:10356000000000000000000000000000000000005B
:10357000000000000000000000000000A918000882
:103580000000000000000000000000000600FF092D
:1035900001A101150026FF0075089540090181026F
:1035A00095400901910295010901B102C000210075
:1035B0004C00120110010200004051C201F0000154
:1035C00001020301000009026300030100803209C7
:1035D0000400000102020104052400100105240179
:1035E00003020424020605240600010705810340A6
:1035F000000209040100020A00000507050202405A
:1036000000000705820240000009040200020300D6
:103610000006092100010001222100070583034063
:10362000000107050303400001000000000004033F
:10363000090412035800380039003300200041000B
:1036400052004D00140343004D0053004900530045
:103650002D004400410050001A03300030003000BB
:1036600031004100300030003000300030003000C8
:1036700030001C0343004D005300490053002D004F
:1036800044004100500020004300440043001C035C
:1036900043004D005300490053002D0044004100F9
:1036A000500020004400430049001C0343004D002B
:1036B0005300490053002D004400410050002000F9
:1036C00048004900440000080348000403180008AB
:1036D00000480004004800001837000800000020DF
:1036E0000C010000902F000824380008002800205A
:1036F00008000000902F0008243800080C0100206A
:103700006C230000A02F00082C3800080828002097
:1037100018000000A02F000800A24A0400000000CA
:103720000000000001020304060708090000000071
:103730000000000000000000000000000000000089
:10374000FFFFFFFF0000000000000000000000007D
:1037500000600040000000000000000000000000C9
:103760000000000000000000000000000000000059
:103770000000000000000000000000000000000049
:103780000000000000000000010203040102030425
:1037900006070809020406080000000000000000F7
:1037A0000000000000000000000000000000000019
:1037B0000000000000000000000000000000000009
:1037C00000000000000000000000000000000000F9
:1037D00000000000000000000000000000000000E9
:1037E00000000000000000000000000000000000D9
:1037F00000000000000000000000000000000000C9
:1038000000000000000000000000000000000000B8
:1038100000000000000000000000000000000000A8
:0C3820000000000000000000000000009C
:020000040800F2
:1040000091550008554100088555000870B50646D1
:104010000D46307808B9012400E03478012C05D130
:10402000012006490870FCF747FC03E000202870D7
:10403000012070BD00BF2C700120FAE70828002085
:1040400018B502460B461078547840EA04210C4813
:1040500000680C4CB0FBF4F0801C0324B0FBF4F0BF
:1040600041430846009000BF00BF009C641E0094BE
:10407000002CFAD100BF00201870012018BD0000EC
:104080000000002040420F0010B504460020044903
:104090000870FCF7FFFB00202070012010BD00001D
:1040A0000828002002460020052A1AD008DC012A30
:1040B0000FD0022A0ED0032A0DD0042A21D10BE002
:1040C000062A0FD0F02A0ED0FE2A16D0FF2A18D1C9
:1040D0000DE016E015E014E00B4B1B680B600420AC
:1040E0000FE00EE00DE001230B70012009E04023FA
:1040F0000B7000234B70022003E040230B70012063
:1041000000BF00BF70470000A455000870B504460A
:104110000D46207810B1012810D107E0627802F036
:1041200001000B4A1268116888470BE0627802F0C0
:104130000100074A12685168884703E0FF20287091
:10414000012070BD00BF002028700120F9E70000A9
:104150000028002070B506460D463078802807DB21
:1041600030789F2804DC2946304600F09DF870BD69
:10417000307805F8010B16F8010B172870D2DFE82C
:1041800000F00C141A204E54658878252B888888F6
:10419000888830363C4248494A003078691CFFF72D
:1041A00081FF04462C70A01CE1E729463046FFF74A
:1041B000ADFF044672E029463046FFF727FF04466C
:1041C0006CE02846FFF760FF044667E0294630466A
:1041D000FFF736FF044661E0284600F06AF804461F
:1041E0005CE02946304600F045FB044656E029468F
:1041F000304600F005FB044650E02946304600F00A
:10420000DBFB04464AE02946304600F079F80446D4
:1042100044E000BF00BFFF2028700220A7E7294626
:10422000304600F0F3FB044638E01E4800780128D1
:1042300005D12946304600F075F8044604E0002018
:1042400028706870022400BF00BF27E0154800787E
:10425000012806D12946304600F016FA044606E049
:1042600017E0002028706870A870032400BF00BF0A
:1042700014E00C480078012805D12946304600F0AA
:104280001FF8044603E0FF20287002206FE700BFFC
:1042900004E0FF2005F8010C012068E700BF601C66
:1042A00065E70000082800200246FF200870012072
:1042B0007047014600BF0020487008700220704718
:1042C00038B504460D460D480078012803D0FF207C
:1042D0002870012038BD6078A17840EA0120E1789B
:1042E00040EA0140217940EA0160009069460020DF
:1042F00000F008FC002028700120EBE708280020CF
:1043000010B50246137803F00300401C044C2075DE
:10431000C3F380040248447500200870012010BDDA
:10432000082800202DE9F04F85B006460C460020F5
:1043300003900025A146A41CD14908708246029032
:10434000761C16F8010B049047E116F8018B08F073
:10435000020000287ED0BAF1000F3CD0C94847893E
:1043600008F01100012811D100BF6946404600F055
:10437000C9FB0546022D1CD1381EA7F101018FB2E1
:1043800017D0BF4800780028EFD012E000BF694680
:104390000E2000F0B7FB0546022D08D1381EA7F10C
:1043A00001018FB203D0B64800780028EFD04FF05B
:1043B000000A012D00D017E1009804F8010B0098C5
:1043C000000A04F8010B0098000C04F8010B009897
:1043D000000E04F8010B08F0100000285AD03078C5
:1043E000717840EA0120B17840EA0140F17840EA72
:1043F000016B361DA3488089019008F00100A8B127
:10440000A048478900BF0021404600F07BFB0546DD
:10441000022D08D1381EA7F101018FB203D09848B0
:1044200000780028EFD0012D00D0DDE000BF9548D6
:10443000478900BF6946404600F064FB0546022DEF
:104440000AD1381EA7F101018FB205D08C4800783F
:10445000002800E063E0EDD0012D00D00EE0894897
:10446000006900990840584508D00198411E89B25A
:10447000019118B1824800780028D8D000BF814847
:10448000006900990840584501D045F01005012DFC
:1044900042D0A9E07B48478908F00100C8B1BAF1D1
:1044A000000F39D100BF0021404600F02BFB05462C
:1044B000022D08D1381EA7F101018FB203D0704838
:1044C00000780028EFD0012D00D08DE04FF0010AD8
:1044D00022E000BF6946404600F014FB0546022D6D
:1044E00008D1381EA7F101018FB203D064480078CB
:1044F0000028EFD0012D00D076E0009804F8010BE1
:104500000098000A04F8010B0098000C04F8010B55
:104510000098000E04F8010B0020029055E0BAF15B
:10452000000F26D05748478900BF69460E2000F08B
:10453000E9FA0546022D08D1381EA7F101018FB214
:1045400003D04F4800780028EFD0012D00D04BE079
:10455000009804F8010B0098000A04F8010B009879
:10456000000C04F8010B0098000E04F8010B4FF04A
:10457000000A3078717840EA0120B17840EA0140C1
:10458000F17840EA01600090361D08F0200020B16B
:104590003C4800990161012517E03A48478900BF6E
:1045A0006946404600F0AEFA0546022D08D1381E95
:1045B000A7F101018FB203D0314800780028EFD075
:1045C000012D00D010E0012002900398401CC0B2E1
:1045D00003902B48007800B106E00498411EC9B250
:1045E000049100287FF4B1AE00BF012D3DD1BAF196
:1045F000000F25D02348478900BF69460E2000F0F0
:1046000081FA0546022D08D1381EA7F101018FB2AB
:1046100003D01B4800780028EFD0012D00D025E002
:10462000009804F8010B0098000A04F8010B0098A8
:10463000000C04F8010B0098000E04F8010B14E0C4
:10464000029890B10F48478900BF00210E2000F06A
:1046500059FA0546022D08D1381EA7F101018FB283
:1046600003D0074800780028EFD000BF039889F8EE
:10467000000089F80150A4EB090005B0BDE8F08FF7
:1046800004280020082800202DE9F84F04460D4694
:104690004FF0000B0026A846ED1C0020564908707C
:1046A000641C2078617840EA012AA41CBAF1000F4A
:1046B00000D195E014F8017B07F0020000284FD0EC
:1046C00007F00100B0B14D48B0F80A9000BFF8B251
:1046D000002100F017FA0646022E08D1B9F10000B9
:1046E000A9F1010903D0444800780028EFD0012E39
:1046F00000D075E02EE0BAF1000F03D107F0010001
:1047000000B10E273D48B0F80A9000BFF8B26946E4
:1047100000F0F8F90646022E08D1B9F10000A9F11F
:10472000010903D0344800780028EFD0012E00D0D2
:1047300056E0009805F8010B0098000A05F8010BF7
:104740000098000C05F8010B0098000E05F8010B0D
:104750000BF1010BBAF10000AAF1010ACBD13EE046
:1047600024E02078617840EA0120A17840EA014005
:10477000E17840EA01600090241D2048B0F80A90DA
:1047800000BFF8B2694600F0BDF90646022E08D116
:10479000B9F10000A9F1010903D0174800780028F9
:1047A000EFD0012E00D01BE00BF1010BBAF100009D
:1047B000AAF1010AD5D11148B0F80A9000BF002132
:1047C0000E2000F09FF90646022E08D1B9F1000034
:1047D000A9F1010903D0084800780028EFD000BFF4
:1047E00088F800B04FEA1B2088F8010088F80260C2
:1047F000A5EB0800BDE8F88F042800200828002059
:1048000030B502460C461078557840EA0520957878
:1048100040EA0540D57840EA05631BB9FF202070C7
:10482000012030BD11480068B3EB900F04D3012084
:104830000F4D6870686014E000200D4D6870581EC0
:104840000A4D2D6800EB5500B0FBF3F1022905D9A4
:10485000891E881C0325B0FBF5F100E00121044806
:104860004160002020700120DBE7000000000020F4
:10487000082800202DE9F0470646884634787578E8
:10488000B078F17840EA0120317940EA014071794D
:1048900040EA016705F0010038B104F0010010B1F1
:1048A00000F0D8F801E000F0C7F805F0020078B198
:1048B00004F0020028B100BF10203B49086000BF8F
:1048C00006E000BF10203849091D086000BF00BF86
:1048D00005F0200010B1601100BF00BF05F080009E
:1048E00010B1E011FBF7BCFF002F49D02F488742E1
:1048F00000D9074600BF00204FF0E02188612C4816
:10490000006878432B49B0FBF1F04FF0E02148619B
:104910000520086100BF00BF05F0010020B100F0D4
:1049200091F8604000B11BE005F0020028B100F0F2
:10493000D5F880EA640000B112E005F0200028B14B
:1049400000BF002080EA641000B109E005F080009B
:1049500028B100F0CBF880EAE41000B100E007E0F5
:1049600000BF4FF0E0200069C0F300400028D3D022
:1049700000BF00BF00204FF0E021086100BF00BF72
:1049800000F060F8814600F0A9F849EA40000021F3
:1049900040EA411900F0AAF849EAC010C4B288F808
:1049A00000400120BDE8F08710080140C0C62D007E
:1049B0000000002040420F0070B504460D4614F878
:1049C000016B0EB94FF480762146304600F09CFD15
:1049D00000202870012070BD10B50948006840080B
:1049E0000849B0FBF1F0801E074948606421064881
:1049F0004181012004490875FBF74CFF10BD000000
:104A00000000002040420F000828002002461078D5
:104A1000084B18725078937840EA03230548438185
:104A2000D078137940EA032302488381002008707C
:104A300001207047082800200820014908607047BD
:104A40001408014002480068C0F3C000704700002D
:104A50000C08014008200149086070471008014017
:104A60000448006800F0100008B1012070470020E1
:104A7000FCE700000808014000F0010119B1102115
:104A8000034A116003E01021014A121D11607047B2
:104A90001008014000BF0748006820F4702040F46F
:104AA000002004490860102002491031086000BF4E
:104AB000704700000008014000BF0748006820F46C
:104AC000702040F44030044908601020024914313D
:104AD000086000BF704700000008014002480068FD
:104AE000C0F3001070470000080801400448006847
:104AF00000F0020008B1012070470020FCE7000030
:104B0000080C014070B504460D460648407820B1B7
:104B10002946204600F008F870BD2946204600F0DE
:104B2000ABF9F9E7082800202DE9F04706468A4648
:104B30004FF000080120FFF79FFFFFF77DFF00BF48
:104B400000BFFFF787FF00BF00BF35462846FFF7CD
:104B500093FFFFF771FF00BF00BFFFF77BFF00BFB0
:104B600000BF08EB050000F0FF0875102846FFF7AE
:104B700083FFFFF761FF00BF00BFFFF76BFF00BFC0
:104B800000BF08EB050000F0FF08B5102846FFF74E
:104B900073FFFFF751FF00BF00BFFFF75BFF00BFD0
:104BA00000BF08EB050000F0FF08F5102846FFF7EE
:104BB00063FFFFF741FF00BF00BFFFF74BFF00BFE0
:104BC00000BF08EB050000F0FF084046FFF754FF68
:104BD000FFF732FF00BF00BFFFF73CFF00BF00BF81
:104BE0000020FFF749FFFFF727FF00BF00BFFFF7D7
:104BF00031FF00BF00BF0120FFF73EFFFFF71CFFA2
:104C000000BF00BFFFF726FF00BF00BFFFF742FF56
:104C10009848047D09E0FFF70FFF00BF00BFFFF7D2
:104C200019FF00BF00BF601EC4B2002CF3D1FFF714
:104C300003FF00BF00BFFFF713FF0546FFF70AFFA2
:104C400000BF00BFA946FFF7F7FE00BF00BFFFF798
:104C500007FF0546FFF7FEFE00BF00BF49EA45001B
:104C600000F0FF09FFF7E8FE00BF00BFFFF7F8FE06
:104C70000546FFF7EFFE00BF00BF49EA850000F0E0
:104C8000FF09B9F1010F7DD106F00200002842D0E2
:104C90000027A046202413E0FFF7CEFE00BF00BF90
:104CA000FFF7DEFE0546FFF7D5FE00BF00BF08EBAD
:104CB000050000F0FF087F0847EAC577601EC4B210
:104CC000002CE9D1FFF7B8FE00BF00BFFFF7C8FE18
:104CD0000546FFF7BFFE00BF00BF88EA050000F0F1
:104CE000010008B14FF00809BAF1000F01D0CAF86D
:104CF00000706048047D09E0FFF79EFE00BF00BF22
:104D0000FFF7A8FE00BF00BF601EC4B2002CF3D1A5
:104D1000FFF7D2FE35E05748047D09E0FFF78CFE2F
:104D200000BF00BFFFF796FE00BF00BF601EC4B209
:104D3000002CF3D1FFF7C0FEDAF80070A046202463
:104D400011E0F8B2FFF798FEFFF776FE00BF00BF54
:104D5000FFF780FE00BF00BF08EB070000F0FF0870
:104D60007F08601EC4B2002CEBD14046FFF784FEE2
:104D7000FFF762FE00BF00BFFFF76CFE00BF00BF81
:104D800000BF00E018E03B48047A7CB10020FFF748
:104D900073FE09E0FFF750FE00BF00BFFFF75AFEA9
:104DA00000BF00BF601EC4B2002CF3D10120FFF78A
:104DB00063FE4846BDE8F087B9F1020F02D0B9F1B1
:104DC000040F40D12B48407D80B106F0020068B14D
:104DD000212409E0FFF730FE00BF00BFFFF73AFED5
:104DE00000BF00BF601EC4B2002CF3D12148047D77
:104DF00009E0FFF721FE00BF00BFFFF72BFE00BF59
:104E000000BF601EC4B2002CF3D1FFF755FE194855
:104E1000407D98B106F0020080B90020FFF72CFE1B
:104E2000212409E0FFF708FE00BF00BFFFF712FED4
:104E300000BF00BF601EC4B2002CF3D10120FFF7F9
:104E40001BFE4846B6E70B48007D2130C4B209E09E
:104E5000FFF7F2FD00BF00BFFFF7FCFD00BF00BF82
:104E6000601EC4B2002CF3D10120FFF705FE4846B6
:104E7000A0E70000082800202DE9F84F06468A46E2
:104E80004FF000080120FFF7F7FDFFF7D5FDFD49C2
:104E90004868009000BF00BF0099491E009100299A
:104EA000FAD100BFFFF7D6FDF6494868009000BF71
:104EB00000BF0099491E00910029FAD100BF354674
:104EC0002846FFF7D9FDFFF7B7FDEE494868009087
:104ED00000BF00BF0099491E00910029FAD100BF10
:104EE000FFF7B8FDE7494868009000BF00BF009990
:104EF000491E00910029FAD100BF08EB050000F01F
:104F0000FF0875102846FFF7B7FDFFF795FDDD494F
:104F10004868009000BF00BF0099491E0091002919
:104F2000FAD100BFFFF796FDD6494868009000BF50
:104F300000BF0099491E00910029FAD100BF08EB7B
:104F4000050000F0FF08B5102846FFF795FDFFF7B4
:104F500073FDCC494868009000BF00BF0099491E0E
:104F600000910029FAD100BFFFF774FDC5494868D8
:104F7000009000BF00BF0099491E00910029FAD19E
:104F800000BF08EB050000F0FF08F5102846FFF70A
:104F900073FDFFF751FDBB494868009000BF00BF9B
:104FA0000099491E00910029FAD100BFFFF752FD78
:104FB000B4494868009000BF00BF0099491E0091A5
:104FC0000029FAD100BF08EB050000F0FF084046B9
:104FD000FFF752FDFFF730FDAA494868009000BF77
:104FE00000BF0099491E00910029FAD100BFFFF7C8
:104FF00031FDA4494868009000BF00BF0099491ED8
:1050000000910029FAD100BF0020FFF735FDFFF71E
:1050100013FD9C494868009000BF00BF0099491EDD
:1050200000910029FAD100BFFFF714FD95494868A7
:10503000009000BF00BF0099491E00910029FAD1DD
:1050400000BF0120FFF718FDFFF7F6FC8D49486807
:10505000009000BF00BF0099491E00910029FAD1BD
:1050600000BFFFF7F7FC87494868009000BF00BF0A
:105070000099491E00910029FAD100BFFFF70AFDEF
:105080008048047D1BE0FFF7D7FC7E49486800900C
:1050900000BF00BF0099491E00910029FAD100BF4E
:1050A000FFF7D8FC77494868009000BF00BF00991F
:1050B000491E00910029FAD100BF601EC4B2002C25
:1050C000E1D1FFF7B9FC6F494868009000BF00BF0D
:1050D0000099491E00910029FAD100BFFFF7C0FCDA
:1050E0000546FFF7B7FC67494868009000BF00BF5E
:1050F0000099491E00910029FAD100BFA946FFF787
:105100009BFC60494868009000BF00BF0099491EA1
:1051100000910029FAD100BFFFF7A2FC0546FFF776
:1051200099FC58494868009000BF00BF0099491E8B
:1051300000910029FAD100BF49EA450000F0FF09BB
:10514000FFF77AFC4F494868009000BF00BF009904
:10515000491E00910029FAD100BFFFF781FC0546E6
:10516000FFF778FC47494868009000BF00BF0099EE
:10517000491E00910029FAD100BF49EA850000F0DC
:10518000FF09B9F1010F7CD106F0020000287CD0A4
:1051900000278846202425E0FFF74EFC394948685F
:1051A000009000BF00BF0099491E00910029FAD16C
:1051B00000BFFFF755FC0546FFF74CFC3149486836
:1051C000009000BF00BF0099491E00910029FAD14C
:1051D00000BF08EB050000F0FF087F0847EAC5772D
:1051E000601EC4B2002CD7D1FFF726FC25494868C1
:1051F000009000BF00BF0099491E00910029FAD11C
:1052000000BFFFF72DFC0546FFF724FC1D49486849
:10521000009000BF00BF0099491E00910029FAD1FB
:1052200000BF88EA050000F0010008B14FF008094E
:10523000BAF1000F01D0CAF800701248047D1BE0DB
:10524000FFF7FAFB0F494868009000BF00BF0099C4
:10525000491E00910029FAD100BFFFF7FBFB094965
:105260004868009000BF00BF0099491E00910029C6
:10527000FAD100BF601EC4B2002CE1D1FFF71CFCC4
:105280006EE098E008280020FFE79E48047D1BE0C0
:10529000FFF7D2FB9B494868009000BF00BF009910
:1052A000491E00910029FAD100BFFFF7D3FB9549B1
:1052B0004868009000BF00BF0099491E0091002976
:1052C000FAD100BF601EC4B2002CE1D1FFF7F4FB9D
:1052D000DAF80070A046202423E0F8B2FFF7CCFBF8
:1052E000FFF7AAFB87494868009000BF00BF0099FC
:1052F000491E00910029FAD100BFFFF7ABFB81499D
:105300004868009000BF00BF0099491E0091002925
:10531000FAD100BF08EB070000F0FF087F08601E0D
:10532000C4B2002CD9D14046FFF7A6FBFFF784FB9F
:1053300074494868009000BF00BF0099491E009161
:105340000029FAD100BFFFF785FB6E49486800903D
:1053500000BF00BF0099491E00910029FAD100BF8B
:105360006848047A0CB30020FFF786FB1BE0FFF7C8
:1053700063FB64494868009000BF00BF0099491E64
:1053800000910029FAD100BFFFF764FB5D4948682E
:10539000009000BF00BF0099491E00910029FAD17A
:1053A00000BF601EC4B2002CE1D10120FFF764FBF6
:1053B0004846BDE8F88FB9F1020F02D0B9F1040FE9
:1053C00077D15048407D10B306F00200F8B1212497
:1053D0001BE0FFF731FB4B494868009000BF00BF5E
:1053E0000099491E00910029FAD100BFFFF732FB56
:1053F00044494868009000BF00BF0099491E0091D1
:105400000029FAD100BF601EC4B2002CE1D13D4892
:10541000047D1BE0FFF710FB3A494868009000BF8D
:1054200000BF0099491E00910029FAD100BFFFF783
:1054300011FB34494868009000BF00BF0099491E25
:1054400000910029FAD100BF601EC4B2002CE1D146
:10545000FFF732FB2B48407D28B306F0020010BB5B
:105460000020FFF709FB21241BE0FFF7E5FA25499F
:105470004868009000BF00BF0099491E00910029B4
:10548000FAD100BFFFF7E6FA1E494868009000BF56
:1054900000BF0099491E00910029FAD100BF601E8B
:1054A000C4B2002CE1D10120FFF7E6FA484680E7BC
:1054B000FFE71448007D2130C4B21BE0FFF7BCFABF
:1054C00010494868009000BF00BF0099491E009134
:1054D0000029FAD100BFFFF7BDFA0A4948680090D9
:1054E00000BF00BF0099491E00910029FAD100BFFA
:1054F000601EC4B2002CE1D10120FFF7BDFA48467E
:1055000057E7000008280020F8B504460D4600279C
:1055100031E0641E17B915F8016B082706F0010089
:1055200028B100BF10201549086000BF06E000BF89
:1055300010201249091D086000BF00BFFFF77CFA68
:105540000F494868009000BF00BF0099491E0091B4
:105550000029FAD100BFFFF77DFA09494868009099
:1055600000BF00BF0099491E00910029FAD100BF79
:105570007610781EC7B2002CCBD1F8BD10080140C0
:1055800008280020012001490870704704280020E5
:1055900010B5044602480460FFF71EFA10BD000073
:0855A00000280020312E30002C
:04000005080000ED02
:00000001FF
