:020000040800F2
:20000000F02E00206DE4020809B602080DB6020811B6020811B6020811B60208000000003E
:20002000000000000000000000000000F9E40208FDE4020800000000016E0108ED69010817
:20004000035101080DE5020811E5020815E5020819E502081DE5020821E5020825E502080B
:2000600029E502082DE5020831E5020835E5020839E502083DE5020841E5020845E5020850
:2000800049E502084DE50208FF54010855E5020859E502085DE5020861E5020865E5020814
:2000A00069E502086DE5020871E5020875E5020879E502087DE5020881E5020885E5020810
:2000C00089E502088DE5020891E5020895E5020899E502089DE50208A1E50208A5E50208F0
:2000E000A9E50208ADE50208B1E50208B5E502087D550108BDE50208C1E50208C5E502089D
:20010000C9E50208CDE50208D1E50208D5E50208D9E50208DDE5020847710108E5E50208BE
:20012000E9E50208EDE50208F1E50208F5E50208F9E502082100020801E6020805E602084E
:2001400009E602080DE6020811E602082D00020819E602081DE6020821E60208CD5501081F
:2001600029E602082DE6020831E6020835E6020839E602085D00020841E6020845E602080D
:2001800049E60208FFFFFFFFFFFFFFFFFFFFFFFFFFFFFFFFFFFFFFFFFFFFFFFFFFFFFFFF42
:2001A000FFFFFFFFFFFFFFFFFFFFFFFFFFFFFFFFFFFFFFFFFFFFFFFFFFFFFFFFFFFFFFFF5F
:2001C000FFFFFFFFFFFFFFFFFFFFFFFFFFFFFFFFFFFFFFFFFFFFFFFFFFFFFFFFFFFFFFFF3F
:2001E000FFFFFFFFFFFFFFFFFFFFFFFFFFFFFFFFFFFFFFFFFFFFFFFFFFFFFFFFFFFFFFFF1F
:20020000FFFFFFFFFFFFFFFFFFFFFFFFFFFFFFFFFFFFFFFFFFFFFFFFFFFFFFFFFFFFFFFFFE
:20BF0000C9AC0B10FFFFFFFFFFFFFFFFFFFFFFFFFFFFFFFFFFFFFFFFFFFFFFFFFFFFFFFFAD
:20BF200047444200FFFFFFFFFFFFFFFFFFFFFFFF52444900FFFFFFFFFFFFFFFFFFFFFFFF6D
:20BF4000466C617368425000FFFFFFFFFFFFFFFF466C617368444C00FFFFFFFFFFFFFFFFF3
:20BF60004A466C61736800FFFFFFFFFFFFFFFFFF5244444900FFFFFFFFFFFFFFFFFFFFFF7A
:20BF8000FFFFFFFFFFFFFFFFFFFFFFFFFFFFFFFFFFFFFFFFFFFFFFFFFFFFFFFFFFFFFFFFC1
:20BFA000FFFFFFFFFFFFFFFFFFFFFFFFFFFFFFFFFFFFFFFFFFFFFFFFFFFFFFFFFFFFFFFFA1
:20BFC000FFFFFFFFFFFFFFFFFFFFFFFFFFFFFFFFFFFFFFFFFFFFFFFFFFFFFFFFFFFFFFFF81
:20BFE000FFFFFFFFFFFFFFFFFFFFFFFFFFFFFFFFFFFFFFFFFFFFFFFFFFFFFFFFFFFFFFFF61
:20C000000001FFFFFFFFFFFFFFFFFFFFFFFFFFFFFFFFFFFFFFFFFFFFFFFFFFFFFFFFFFFF3D
:20C02000FFFFFFFFFFFFFFFFFFFFFFFFFFFFFFFFFFFFFFFFFFFFFFFFFFFFFFFFFFFFFFFF20
:20C04000FFFFFFFFFFFFFFFFFFFFFFFFFFFFFFFF4A2D4C696E6B2056392E3320506C757317
:20C0600000FFFFFFFFFFFFFFFFFFFFFFFFFFFFFFFFFFFFFFFFFFFFFFFFFFFFFFFFFFFFFFDF
:20C08000FFFFFFFFFFFFFFFFFF01FFFFFFFFFFFFFFFFFFFFFFFFFFFFFFFFFFFFFFFFFFFFBE
:20C0A000FFFFFFFFFFFFFFFFFFFFFFFFFFFFFFFFFFFFFFFFFFFFFFFFFFFFFFFFFFFFFFFFA0
:20C0C000FFFFFFFFFFFFFFFFFFFFFFFFFFFFFFFFFFFFFFFFFFFFFFFFFFFFFFFFFFFFFFFF80
:20C0E000FFFFFFFFFFFFFFFFFFFFFFFFFFFFFFFFFFFFFFFFFFFFFFFFFFFFFFFFFFFFFFFF60
:20C10000FFFFFFFFFFFFFFFFFFFFFFFFFFFFFFFFFFFFFFFFFFFFFFFFFFFFFFFFFFFFFFFF3F
:020000040801F1
:20000000F02E00206DE4020809B602080DB6020811B6020811B6020811B60208000000003E
:20002000000000000000000000000000F9E40208FDE4020800000000016E0108ED69010817
:20004000035101080DE5020811E5020815E5020819E502081DE5020821E5020825E502080B
:2000600029E502082DE5020831E5020835E5020839E502083DE5020841E5020845E5020850
:2000800049E502084DE50208FF54010855E5020859E502085DE5020861E5020865E5020814
:2000A00069E502086DE5020871E5020875E5020879E502087DE5020881E5020885E5020810
:2000C00089E502088DE5020891E5020895E5020899E502089DE50208A1E50208A5E50208F0
:2000E000A9E50208ADE50208B1E50208B5E502087D550108BDE50208C1E50208C5E502089D
:20010000C9E50208CDE50208D1E50208D5E50208D9E50208DDE5020847710108E5E50208BE
:20012000E9E50208EDE50208F1E50208F5E50208F9E502082100020801E6020805E602084E
:2001400009E602080DE6020811E602082D00020819E602081DE6020821E60208CD5501081F
:2001600029E602082DE6020831E6020835E6020839E602085D00020841E6020845E602080D
:2001800049E60208FFFFFFFFFFFFFFFFFFFFFFFFFFFFFFFFFFFFFFFFFFFFFFFFFFFFFFFF42
:2001A000FFFFFFFFFFFFFFFFFFFFFFFFFFFFFFFFFFFFFFFFFFFFFFFFFFFFFFFFFFFFFFFF5F
:2001C000FFFFFFFFFFFFFFFFFFFFFFFFFFFFFFFFFFFFFFFFFFFFFFFFFFFFFFFFFFFFFFFF3F
:2001E000FFFFFFFFFFFFFFFFFFFFFFFFFFFFFFFFFFFFFFFFFFFFFFFFFFFFFFFFFFFFFFFF1F
:20020000000000000000000000000000000000004A2D4C696E6B20563920636F6D70696C86
:2002200065642044656320203220323031362031353A33353A323000436F70797269676865
:200240007420323030332D32303132205345474745523A207777772E7365676765722E637B
:200260006F6D000000000000000000000000000000000000000000000000000000000000A2
:20028000FFFFFFFFFFFFFFFFFFFFFFFFFFFFFFFFFFFFFFFFFFFFFFFFFFFFFFFFFFFFFFFF7E
:2002A000FFFFFFFFFFFFFFFFFFFFFFFFFFFFFFFFFFFFFFFFFFFFFFFFFFFFFFFFFFFFFFFF5E
:2002C000FFFFFFFFFFFFFFFFFFFFFFFFFFFFFFFFFFFFFFFFFFFFFFFFFFFFFFFFFFFFFFFF3E
:2002E000FFFFFFFFFFFFFFFFFFFFFFFFFFFFFFFFFFFFFFFFFFFFFFFFFFFFFFFFFFFFFFFF1E
:20030000DFF800F08F05002000000000000000002DE9FF5F9DE8001C0124A103A501264E6A
:20032000264FDFF89C805FF4802E1AF8010B1BF8012B120210430822082B48BF1A46440880
:2003400034BFA8F81A10A8F81810440A34BF7583358300BF00BF5B1E7D83BEF1010E24D07E
:20036000D8F81040A408F8D23D83BEF1010E1CD0D8F81040A408F8D33C69240A4FEA3000AA
:20038000521EDCD1000E0CF8010B002BCBD1039C14F007041EBFC4F10804E0400CF8010CDE
:2003A0007583BDE8FF5F002070473D837583BDE8FF5F01207047000000000240000802404C
:2003C000000402400000000000000000000000002DE9FF5FDDF838E0824C2468240009D01F
:2003E00000F0A4FCBDE8FF9F2DE9FF5F7E4ED6F800E0F1E79DE8001C0124A501A6007B4F88
:200400007B493C6844F480543C60BEF1000F4FD41AF8010B1BF8012B120210430822082BCA
:2004200048BF1A469B1A9046440817D3440A01D33D8300E07D830E8300BF00BF00BF74464A
:20044000641EFDD50D837446641EFDD500BF4008521E4D8319D04408E8D200BF4E8374462A
:20046000641EFDD50D837446641EFDD500BF00BF00BF4D8300BF00BF3C69240A4FEA3000C3
:20048000521E02D04408E9D3D0E7000E0CF8010B002BBDD1C8F1080820FA08F00CF8010C98
:2004A0003C6824F440543C604E83BDE8FF9F00BF1AF8014B1BF8010B0822082B48BF1A463C
:2004C0009B1A9046082A64D1002C35D0FF2C60D1440834BF7D833D830E83400834BF7D83D2
:2004E0003D83400800BF0D8300BF00BF00BF4D8334BF7D833D83400800BF0D8300BF00BFD0
:2005000000BF4D8334BF7D833D83400800BF0D8300BF00BF00BF4D8334BF7D833D83121F11
:2005200000BF0D8300BF00BF00BF4D83D5D11CF1010C002BBCD1ADE74E8300BF0D8300BF74
:2005400000BF00BF4D8300BF3C69240A4FEA30000D8300BF00BF00BF4D8300BF3C69240A23
:200560004FEA30000D8300BF00BF00BF4D8300BF3C69240A4FEA30000D8300BF00BF00BFAD
:200580004D8300BF3C69240A4FEA3000121FD5D120E00002204344080ED24E8300BF0D8308
:2005A00000BF00BF00BF4D8300BF3C69240A4FEA3000521EEFD10DE0440A34BF7D833D8315
:2005C0000E834FEA30000D83521E00BF00BF4D8300BFE0D1000E0CF8010B002B7FF468AF90
:2005E00058E700008C1B0020FC0F002000000240000802400000000000000000000000003E
:2006000030B40100104A114B002000241D692D0A03D2641C0F2CF9D10EE01470521C0024E0
:200620001D692D0A03D3641C0F2CF9D104E01470801C521C8842E8D30421A3F81818002497
:20064000147030BC70470000EC130020000002402DE9F05F4A4C4B4D002681468A469346E9
:200660004020494A1268002A52D4092B2CBF4FF00808984619F8011B1AF8017B3F020F4323
:2006800079082CBF18211A216852208304212183114600BF491EFDD560831146491EFDD592
:2006A000790A2CBF18211A2168522083114600BF491EFDD560831146491EFDD52083042171
:2006C00061831146491EFDD560831146491EFDD520831146491EFDD52969090A4FEA3606E6
:2006E00060831146491EFDD57F08B8F10108C7D1092B04D3083BF10D0BF8011BB5E7C3F1FB
:200700001F0026FA00F08BF800000020BDE8F09F092B2CBF4FF00808984619F8011B1AF848
:20072000017B3F020F4379082CBF18211A2168522083790A60832CBF18211A21685220834B
:2007400000BF608300BF00BF208304216183608300BF00BF00BF00BF04227F08208329690C
:20076000090A4FEA360660832283B8F10108DAD1092BC4D3083BF10D0BF8011BC8E7000032
:200780000008024000000240FC0F0020000000002DE9FF5F4C4B1B689E469DE80003012780
:2007A000BC03BD01494E4A4FDFF828C108B119B94DE03483B1B365E018F8010B1CF8000084
:2007C0000823082A48BF13469A4600BF410834BF748334837D837146491EFDD53969090A2E
:2007E0004FEA30003D837146491EFDD55B1EEDD1000E1CF8000009F8010B5346D21ADBD149
:20080000029911F0070109D0C1F108011CF8000020FA01F01CF8000009F8010C4FF0000020
:20082000BDE8FF9F0823082A48BF13467D837146491EFDD500BF00BF3D837146491EFDD59A
:2008400000BF521E5B1EF1D1002AEBD1E6E718F8010B1CF800000823082A48BF13469A46AE
:20086000400834BF748334837D837146491EFDD571463D83491EFDD55B1EF1D15346D21A2F
:20088000E5D1CBE70823082A48BF13469A4693467D837146491EFDD5120A4FEA30003A6962
:2008A0003D837146491EFDD55B1EF1D1120A4FEA3000000E1CF8000009F8010B5A46534660
:2008C000D21ADFD19CE70000FC0F002000040240000802407422010800000000000000009F
:2008E0002DE9F04381B089468046D24E04203081D14F72B64020A6F80A083868FFF700FD09
:200900004020A6F808083868FFF7FAFC01240425E00747BF40203081402070810420A6F8DE
:2009200008084020A6F80A083868FFF7E9FC4020A6F808083868FFF7E3FC64086D1EE7D1EA
:2009400018F8014B0825E00747BF4020308140207081A6F80A083868FFF7D2FC64084020DF
:20096000A6F808083868FFF7CBFC6D1EEBD10420A6F80A0810244020A6F80A083868FFF777
:20098000BFFC4020A6F808083868FFF7B9FC3068C0F3C01008B9641EEDD14020A6F80A0817
:2009A0003868FFF7ADFC4020A6F808083868FFF7A7FC62B6B9F101099BD10420708101B0B3
:2009C000BDE8F0830000000000000000000000002DE9F04381B089468046964E0420308137
:2009E000954F72B64020A6F80A083868FFF788FC4020A6F808083868FFF782FC0024042552
:200A0000E00747BF40203081402070810420A6F808084020A6F80A083868FFF771FC402042
:200A2000A6F808083868FFF76BFC6D1EE8D10420A6F80A0810244020A6F80A083868FFF719
:200A40005FFC4020A6F808083868FFF759FC3068C0F3C01008B9641EEDD108244020A6F8FC
:200A60000A083868FFF74CFC4020A6F808083868FFF746FC6D083068C0F3C01008B145F022
:200A80008005641EEAD108F8015B4020A6F80A083868FFF735FC4020A6F808083868FFF7BD
:200AA0002FFC62B6B9F101099BD10420708101B0BDE8F083000000000000000000000000F5
:200AC0002DE9F04104465D4D0420288072B64020A5F80208584E3068FFF712FC4020A5F8A1
:200AE00000083068FFF70CFC03274FF00208F80747BF40202880402068800420A5F80008C7
:200B00004020A5F802083068FFF7FAFB4020A5F800083068FFF7F4FB7F08B8F10108E6D1D9
:200B20000827E00747BF4020288040206880A5F802083068FFF7E4FB64084020A5F80008C4
:200B40003068FFF7DDFB7F1EEBD10420A5F802084020A5F802083068FFF7D2FB4020A5F8AC
:200B600000083068FFF7CCFB62B604206880BDE8F0810000000000000000000000000000DE
:200B80002DE9F04180462B4D0420288172B64020A5F80A08284E3068FFF7B2FB4020A5F81E
:200BA00008083068FFF7ACFB02270224F80747BF40202881402068810420A5F80808402019
:200BC000A5F80A083068FFF79BFB4020A5F808083068FFF795FB7F08641EE7D10420A5F895
:200BE0000A0808274020A5F80A083068FFF788FB4020A5F808083068FFF782FB6408286880
:200C0000C0F3C01008B144F080047F1EEAD188F800404020A5F80A083068FFF771FB40205F
:200C2000A5F808083068FFF76BFB62B604206881BDE8F08110000240FC0F00201800024001
:200C4000DFF800F089050020DFF800F0990600202DE9F84380460C4615461F46002667B132
:200C60002527082D09D1A01CC01010F80800A11C0841C00705D4032703E0002D54D0192D33
:200C800001DA294600E0102100200022012912DB23464FEAE30C1CF808C003F0070E4CFAE5
:200CA0000EFC0CF0010C0CFA02FC4CEA0000521C5B1C8A42EDDB6D1A0C19CA0748BF491C85
:200CC00015B90FB1891C3E4672B63246FFF7BCFF62B626B33D4A10780F2820D23C4800213E
:200CE00000230AC00838521C13780F2B14D2032B12D3092B0CD3CB0813F800C04FF0010E9C
:200D000001F007090EFA09FE4EEA0C0C03F800C0491C521C4029E7D32E48002101601DB1FC
:200D20000220FFF78DFFAAE7BDE8F1832DE9F84F05468A4693461C464FF00008DFF8909074
:200D4000244E0022404601E0521C401CA24206DAC110495D00F00703D940C907F4D4A41A2A
:200D6000002302EB0807394601E05B1C491CA34207DAC810405D01F0070E20FA0EF0C007F8
:200D8000F3D51AB141465046FFF762FFB8460027404601E07F1C401CA74206DAC110495D89
:200DA00000F00702D140C907F4D55FB1009733684A464146584600F041F9306838183060F7
:200DC000B844E41B002CBCD1BDE8F18FEC1300202C1400203414002001680A0A1206120AA2
:200DE00042EA01620B021B0E42EA032242EA116101607047010A41EA002080B27047010ADD
:200E00000906090A41EA00610202120E41EA022141EA1060704700EBD10001F0070100F0BB
:200E2000030201EBC20182089200106831B1C8405268C1F1200102FA01F108437047F0B55E
:200E400005460C461E4612F0070F09D1D7083A462146284600F034FA7D19761EF7D1F0BDAE
:200E6000002021461346FF278740FF4301E06D1C083B11F801CB70B10CFA00FC95F800E051
:200E800007EA0E0E4CEA0E0E85F800E04FEA1C2C85F801C001E085F800C0082BE7DA181895
:200EA00005EBD00500F00700761EDAD1F0BD0949020E525C03021B0E5B5C42EA032203043D
:200EC0001B0E5B5C42EA0342C0B2405C42EA0060704700007422010830B400EBD20002F03E
:200EE000070200F0030302EBC3028008800082B1012393405B1E04681C4001FA02F52C436D
:200F000040F8044B046824EA0303C2F12002D1401943016030BC7047F0B5FF240125059EF3
:200F200004E09A1800EBD20002F0070251F8047B90F800C005FA02FEAEF1010E0EEA0C0C96
:200F400007FA02FE4EEA0C0C80F800C0C2F1080C27FA0CF747703F0A87703F0AC77090F81E
:200F600004C004FA02FE0EEA0C0C4CEA17270771761ED6D1F0BDF0B4002400EBD10011F046
:200F800007010ED0A1F10804E31812F8014B0578FF268E40F643354004FA01F6354300F8F9
:200FA000015B082B3BD3DD08042D28D3C1F1080612F8017B44EA072424FA06F700F8017B55
:200FC00012F8017B3F0247EA142424FA06F700F8017B12F8017B3F0247EA142424FA06F707
:200FE00000F8017B12F8017B3F0247EA142424FA06F700F8017B240A2D1F042DD8D265B153
:2010000012F8016B44EA0624C1F1080624FA06F600F8016B240A6D1EF2D103F007035BB13F
:20102000127844EA0222C1F1080122FA01F101229A40521E11400170F0BC7047F0B500EBE9
:20104000D10002EBD30201F0070103F0070312F8014B24FA03F5C3F108060123059C25E00F
:2010600012F8017BB7403D43083603FA01F7A7F1010CC1F10807BC4208D2274601EB040E97
:2010800003FA0EFECEF5807E4EEA0C0C90F800E00CEA0E0E05FA01F121EA0C0141EA0E0179
:2010A00000F8011B0021FD40E41BF61B002CD7D1F0BD8842C8BF0846704702680BE0026818
:2010C00006E0026802F8011B090A02F8011B090A02F8011B090A02F8011B026070470170A5
:2010E00006E00170090A00F8011F090A00F8011F090A00F8011F704738B1002101E040082E
:20110000491CC207FBD5084670474FF0FF3070470178407841EA002070470178427841EA16
:201120000221827841EA0241C07841EA00607047012A09DB10F8013B11F801CB634501D009
:2011400001207047521EF5D100207047012A03DB00F8011B521EFBD170474FF0000C02E06D
:2011600019460CF1010C002902D44B009842F7D20023BCF1000F09D45B00884224BF401AFB
:2011800043F001034908BCF1010CF5D502B110601846704780B500AAFFF7DFFF009802BD01
:2011A0000022DAE780B5002805D500224042FFF7D4FF404202BD0022BDE80840CDE738B4B8
:2011C0000B4648B3D118491E012203F0070502FA05F4641EE4B201F007056D1CAA40521E64
:2011E000D243D2B2DB08C9081D5C8B4204D142EA040165EA01013CE065EA04041C540C5CBA
:2012000064EA02020A54C91A491E05D0FF221818401C38BC00F090B831BC704738B40B4645
:2012200028B3D118491E012203F0070502FA05F4641EE4B201F007056D1CAA40521ED2435F
:20124000D2B2DB08C9081D5C8B4203D142EA040129400EE02C401C540C5C22400A54C91ACD
:20126000491E04D01818401C34BC00F099B831BC7047195431BC7047002101E0491C40001A
:20128000002800D4FAD1C1F11F00704710F8012B11F8013B0AB19A42F8D0D01A704750F83E
:2012A000041B61B150F8042BD30744BFA9F101039A18002342F8043B091FFAD1EFE770473D
:2012C00062B38B0708D0521E11F8013B00F8013B00F024808B07F6D1830740F0208000BFA0
:2012E000103A07D330B4B1E83810103AA0E83810F9D230BC530724BFB1E80810A0E80810A6
:2013000044BF51F8043B40F8043BD20724BF31F8022B20F8022B44BF0B7803707047083A82
:2013200007D3B1E80810083A40F8043B40F804CBF7D25307E4E7800062F30F2262F31F42B8
:20134000401810F0030308D0C91A1FD3DB0748BF00F8012D28BF20F8022D130030B41446F4
:201360001546103928BF20E93C00FAD8490728BF20E90C0048BF40F8042D890028BF20F887
:20138000022D48BF00F8012D30BC7047C91818BF00F8012DCB0728BF00F8012D70470000DA
:2013A0000022FFF7CDBF0000F7FEFFFFDC2400001008002004000000F02E0020000000001C
:2013C000C7D201000200000002000000FCD301006A060000080000200808000000000000F7
:2013E0000000000000000000D5E90108EFEA0108812701086D2601089B2B01080000000028
:201400003B2B0108152B0108000000000000000031380108B12E01088B2F0108413201087B
:201420000000000000000000A13201080000000000000000000000000000000000000000D0
:2014400042475461736B0000000000000000000000000000D5E90108EFEA0108F7230208A3
:2014600029250208D1270208912B0208A3260208B725020800000000772D02085530020856
:20148000DF1F020839210208832202088F2D0208000000000000000000000000000000006B
:2014A0006131020800000000D5E90108EFEA010833A6010843A70108A3A90108E9AC01081F
:2014C00095A80108C3A7010800000000A3AE010889B00108FFA3010869A4010800000000F6
:2014E00005AF0108000000000000000000000000BBAE01087BB2010849445345474745523D
:20150000BF7BFFB95B870108617701085D870108718701080F7B010843820108016701084D
:20152000CF7A0108EF8101086F840108B585010885870108C1CB0208C9880108DD8801082E
:201540005B8701085B87010849890108317E0108FD7C01085B87010811DB0208C97E01086F
:20156000158801082F810108ABCE02085B8701085B8701085B8701085B8701085B870108F2
:201580005B8701085B870108717B01088F7B01080D7C0108778201085BA001080FA101081C
:2015A000E39F01080B8201088787010863700108DB7001083F700108B770010899870108B2
:2015C0009F870108A58701081D7901083F7A01085B8701085B870108917C0108AB8701081F
:2015E000B18701085B8701085B8701085B8701081B700108937001086F8201087382010851
:20160000816D0108856D0108C98701081DC501085B8701085B8701085B8701081FA001080B
:20162000EB7C0108C97D01082B7B01081583010863830108DB8E01085B870108357B010896
:201640005B8701085B870108877B0108F1B50208DF7D0108C17E010835180208C51802080E
:201660009F7C010847190208E11902085B870108751A0208F5B502085B8701085B870108CA
:20168000577C01085B870108B5990108B59801081F9B0108759B0108C19B0108ED9B010804
:2016A000FB9B01081D9C0108319C0108A19C0108F99D0108119F01089B9A0108559E01081B
:2016C000F1D90108FDE001082D9F0108000000000000000000000000000000000110C0E4C7
:2016E000B210C0E0015EA0EC00000100020003000400050006000700FE00FE0008D009D0D4
:201700000AD00BD00CD00DD00ED0FFD108D109D10AD10BD10CD10DD10ED1FFD30DD30ED316
:20172000FFD70DD70ED7FFD20DD20ED2FFDB0DDB0EDBC0D3C1D3C8D380D381D382D383D3BB
:2017400084D385D386D387D388D389D38AD38BD38CD38DD38ED38FD390D391D392D393D3A1
:2017600094D395D396D397D398D399D39AD39BD39CD39DD39ED39FD3C7D3C6D30000000020
:20178000D5E90108EFEA010835430208154202082F46020897470208A945020867450208A8
:2017A00000000000FF4C0208D15002088D410208E34A02085B4B0208D94C020800000000BB
:2017C000F14C0208054D020800000000E74D02080110C0E4B210C0E0015EA0EC0000010025
:2017E000020003000400050006000700FE00FE0008D009D00AD00BD00CD00DD00ED0FFD105
:2018000008D109D10AD10BD10CD10DD10ED1FFD30DD30ED3FFD70DD70ED7FFD20DD20ED202
:20182000FFDB0DDB0EDBC0D3C1D3C8D380D381D382D383D384D385D386D387D388D389D3D0
:201840008AD38BD38CD38DD38ED38FD390D391D392D393D394D395D396D397D398D399D340
:201860009AD39BD39CD39DD39ED39FD3C7D3C6D300000000D5E90108EFEA01082D58020860
:2018800017570208375B0208855C0208A95A0208635A020800000000BD60020831630208B0
:2018A00097560208355F0208A95F0208A96002080000000000000000C5600208000000003F
:2018C000956102080000000000000000000000000000000000000000D5E90108EFEA01085F
:2018E00061720208BB72020809740208CD7302088173020837730208000000001F730208B5
:2019000043740208B37102085D71020800000000000000000000000035740208000000004D
:2019200000000000000000000000248C000044ACFFFF6324FCFF60140400212420FF043C6B
:2019400008008000000000000000248C000044ACFFFF6324FCFF60140400422420FF043CA2
:20196000080080000000000038404858606162636870787980818283B8B9BABBBCBDC0F063
:20198000F800000000081018202228293041425064656C6D727A84858788C3C8C9CACBD02A
:2019A000D8E0E1FAFB909192939495969798999A9B9C9D9E9F00000000000004000000001D
:2019C000060708090A060606010101020101010100000000D5E90108EFEA0108AD890208DB
:2019E000018B0208CB8C0208B19002087D8F0208018F020800000000E98E0208C595020810
:201A0000B3880208B9870208BD8602080000000000000000000000000000000000000000EA
:201A20000000000000020000D5E90108EFEA010891A00208D59E020871A10208CBA10208B1
:201A4000CFA002089FA00208000000000000000087A20208D79A0208C199020800000000B2
:201A600011A402080000000000000000D9A20208000000000DA3020800020000D5E901089F
:201A8000EFEA01080000000000000000000000000000000000000000000000000000000064
:201AA00000000000A9B1020859A90208C1A60208BBA7020899B20208000000000000000084
:201AC000F3B102080000000027B20208000000000000000000000000000000000000000075
:201AE0000000000000000000000000000000000000000000000000000000000000000000E6
:201B00000000000000000000000000000000000000000000000000000000000000000000C5
:201B20000000000000000000000000000000000000000000000000000000000001000000A4
:201B4000000000003C1B010801000000010000000000000001000000000102020303030311
:201B60000404040404040404050505050505050505050505050505050606060606060606C5
:201B800006060606060606060606060606060606060606060606060607070707070707077D
:201BA000070707070707070707070707070707070707070707070707070707070707070745
:201BC00007070707070707070707070707070707070707070707070708080808080808081D
:201BE0000808080808080808080808080808080808080808080808080808080808080808E5
:201C00000808080808080808080808080808080808080808080808080808080808080808C4
:201C20000808080808080808080808080808080808080808080808080808080808080808A4
:201C40000808080808080808080808080808080808080808080808080080C0E0F0F8FCFEC2
:201C6000000000002917FF4F29D896AD6A0C9FCDFD494F44C806EAC048C9039EF4278E8084
:201C80001D85C13B90A85054AF61682B7401AE0BBA15E9F3796EF2B456279568EBDC58CA5E
:201CA000BCDA99E584D93F525DC12BB099F2ECE7F8E62C16CE713A664EA968E4D5A0310FD4
:201CC000019B718A5107474F9FAEDAD779EC70E864D4C9560A9786A7018DA515D4F08134DE
:201CE00038471B37E485CFA11BBAC0EF0A552F51839971A235E1AF0CB1C07FC880880235E0
:201D000012DEB50A33BF91C7E4908ED3C510B59352EB7DC491C959A3D87DC3B68D257FDE27
:201D20005B21C6F53D13DFC21C60923B16244B02D2CC69B602754773589D7F847F38D569D0
:201D40002A59C62C56C6DC1BFE59495FEDB35C747D7B0860B43684BCC7760C6A1FA0991BDC
:201D600098F487AE0100010000000000641C01084000000040000000000000000100000096
:201D800000000000641D010801000000010000000000000001000000B2C2120AAB4401082E
:201DA0001945010893440108DB430108DF3F0108974601089D460108A746010800000000C6
:201DC000A3410108AB460108B1460108A746010800000000A3410108DD390108F3390108E5
:201DE000F939010800000000FD390108B5460108BB460108BF46010800000000C34601083B
:201E0000BD430108C5430108CD43010800000000D14301080087930308000000FF7F0000CF
:201E200000000000000000000F0000000F0000000F0000000F0000000F0000000300000054
:201E4000030000000F000000E16A0108E36A0108EB6A010800000000EF6A0108CD750108BB
:201E6000FB7501083F7601080375010853454747455200004A2D4C696E6B00006F950108DB
:201E8000759501082195010859950108B19301089F940108CB940108CF9301085F94010821
:201EA000C5950108F1A00000080C10141820303100040C1014181C24282C3034FFFFFF38E4
:201EC00039000000495250726500000044525072650000004952506F737400004452506FB4
:201EE0007374000049524C656E44657669636500506572666F726D544946496E697400009F
:201F00006D61696E00000000C41E01080500000041BF0208CC1E01080500000049BF020818
:201F2000D41E01080600000051BF0208DC1E01080600000069BF0208E41E01080B00000035
:201F40007DBF0208F01E01080E00000000000000FFFFFFFFFFFFFF3CE700000000000000FA
:201F60000000000000000000C9C60208C5C60208CDC60208D3C602081FC7020825C702080D
:201F8000EDC6020807C7020813C702082BC7020835C7020843C7020851C702085FC7020860
:201FA00003C80208C7C7020831C8020867C6020871C6020883C6020889C6020899C6020824
:201FC000B3C602083BC60208ADC2020889C202086BC2020803C30208EBC20208CBC2020850
:201FE000E3C20208E7C202081DC30208F1C30208FFC50208FFC5020803C6020809C602088F
:2020000019C6020829C60208F5C50208FFC50208FFC502088DC4020835C60208FFC5020850
:20202000FFC50208FFC50208FFC50208A5C50208CDC502084DC8020865C802087DC8020881
:202040008FC80208A5C80208B1C80208BBC80208C7C80208D3C8020800000000E80300006F
:2020600000000000DD690108E369010800000000B5D10208F3D10208A9D20208D3D202082A
:20208000F9D2020853D202086BD2020839D302089DD30208C9D10208D7D1020887D30208AB
:2020A000F3D30208C1D20208BFD10208BFD10208B5D10208F3D1020891D20208D3D2020805
:2020C00019D3020853D2020873D202085FD302089DD30208BFD10208BFD10208BFD1020808
:2020E000BFD10208BFD10208BFD10208BFD102087D96010897960108BF9601082BD50208BE
:202100002FD502085DD502087DD5020893D5020897D50208A1D50208CDD502083F76010847
:20212000CD750108DB750108FB75010847760108037501087B7501087F750108196F0108B4
:20214000436F01086D6F0108856F0108000000009D6F01089F6F0108AF6F0108000000008F
:20216000B16F010881C003000000000081E0030000200000FFFFFFFFFFFFFF9EE7FFFFFFF3
:20218000FFFFFFFFB6EDFFFFFFFFFFFFFF0000A50000000000000000FFFFFFFFFFFFFFFF0A
:2021A000FFFFFFFFFFFFFFFFFFFFFFFFFFFFFFFFFFFFFFFF00000000F000000042554C4B15
:2021C00020696E746572666163650000434443204441544120696E74657266616365000059
:2021E00000C2010000000800A12000000000020000000000010340000E0340000E0340006B
:202200000E0340000BE00208DDE0020827E102085BE1020899E00208C9E0020801E3020835
:2022200009DF0208BBDE0208EFDE02081BDF02087DDF02089FE2020800000000C3E202088E
:2022400005E3020859E3020800000000BBE00208000000005DE102086BE3020825FC0108D7
:202260004FFC0108436F6E66696775726174696F6E000000008040C020A060E0109050D072
:2022800030B070F0088848C828A868E8189858D838B878F8048444C424A464E4149454D48E
:2022A00034B474F40C8C4CCC2CAC6CEC1C9C5CDC3CBC7CFC028242C222A262E2129252D236
:2022C00032B272F20A8A4ACA2AAA6AEA1A9A5ADA3ABA7AFA068646C626A666E6169656D60E
:2022E00036B676F60E8E4ECE2EAE6EEE1E9E5EDE3EBE7EFE018141C121A161E1119151D1DA
:2023000031B171F1098949C929A969E9199959D939B979F9058545C525A565E5159555D5ED
:2023200035B575F50D8D4DCD2DAD6DED1D9D5DDD3DBD7DFD038343C323A363E3139353D395
:2023400033B373F30B8B4BCB2BAB6BEB1B9B5BDB3BBB7BFB078747C727A767E7179757D76D
:2023600037B777F70F8F4FCF2FAF6FEF1F9F5FDF3FBF7FFF4A2D4C696E6B0000CA08105C4E
:2023800001F00701C84000F00300704780B583680A464168006802F021FE002804BFBDE870
:2023A000014002F00FBE02BDF8B504461546A08F00F00702E36F03EBD000FEF78DFD2946E6
:2023C00004F17C00FFF7E2FF00281AD4E18F2846FFF7D4FFC0070FD4002604F18807294635
:2023E0003846FFF7D3FF00280BD4B4F840102846FFF7C4FFC00701D50020F2BD761C642EDD
:20240000EDDB4FF0FF30F2BD38B504460D46216804F1A000FFF7BAFF002801D500F0D4BB03
:20242000B4F844102068FEF7F6FC2860002032BD70B504461546E08E00F00702DFF8943CBE
:2024400043EA0131636E03EBD000FEF745FD216804F16400FFF79AFF002823D4208F00F127
:2024600020012068FFF78AFFC00748BF218F10D40026216804F17000FFF788FF002811D434
:20248000608F00F120012068FFF778FFC00706D5618F2068FEF7BFFC2860002070BD761C15
:2024A000642EE6DB39E070B504461546208E00F00702DFF8243C43EA0131A36D03EBD000DB
:2024C000FEF70AFD608E00F007022946A36D03EBD000FEF701FD216804F15800FFF756FFC8
:2024E00000281AD4A18E2068FFF748FFC0070FD4002504F1880621683046FFF747FF00281D
:202500000BD4B4F840102068FFF738FFC00701D5002070BD6D1C642DEDDB4FF0FF3070BDC4
:2025200010B50446606A00F01F028A4218D0400951EA4010DFF8A41B0840A16ADFF8A02B9E
:20254000114041EA0002626200212046FFF7ABFF38B92268DFF88C1B2046BDE8104023E7B4
:20256000002010BD38B504462268DFF87C1BFFF71BFF050005D100AA00212046FFF758FFD6
:202580000546009820F010000090024600212046FFF789FF28B92268DFF8501B2046FFF752
:2025A00003FF0543002200212046FFF77CFF28B92268DFF83C1B2046FFF7F6FE054307205F
:2025C0000090072200212046FFF76DFF28B92268DFF8201B2046FFF7E7FE284332BD2DE92B
:2025E000F8430446216804F1E800FFF7CFFE002838D4002504F5807804F1F409DFF8F86AB8
:20260000306A00F10A0721684846FFF7BFFE002828D4B4F84A102068FFF7B0FEC00719D549
:2026200021684046FFF7B2FE00281BD4B4F84C102068FFF7A3FEC00711D42268DFF8BC1AC4
:202640002046FFF7B1FE00A92046FFF7DDFE0020BDE8F283306A381A0128D4DA02E06D1C27
:20266000642DCDDB4FF0FF30BDE8F2832DE9F84F0546884693461E4695F8241001F01F090C
:20268000DFF87CAA18F8014B5BF8047B242C00F27280DFE804F0131E1E1E1E1E1E1E2123F7
:2026A000252525252525252C2E2E2E2E2E2E2E3638384042424A4C4C54666600AF6100200D
:2026C000761EDFD149462846FFF72AFF0020BDE8F28F3A4621464BE02F62F0E7EF61EEE7B5
:2026E00010212846FFF71CFF3A46A11E40E0112126E011212846FFF713FF3A46A4F10A01CB
:2027000036E013211CE013212846FFF709FF3A46A4F10D012CE0172112E017212846FFF7DE
:20272000FFFE3A46A4F1100122E0122108E012212846FFF7F5FE3A46A4F1130118E01B2172
:202740002846FFF7EDFE3A4600212846FFF7ABFE040004D12A6851462846FFF725FE20468D
:2027600009E01B212846FFF7DBFE3A46A4F116012846FFF798FE0028A2D5BDE8F28F00000C
:202780002DE9F04782B004460D4692461F4694F8241001F01F08DFF86C9915F8016B242E61
:2027A00000F29F80DFE806F013212121212121212426282828282828282F3D3D3D3D3D3D52
:2027C0003D4553535B6969717E7E86939300A0690090002000994AF8041B7F1EDDD1414606
:2027E0002046FFF79DFE00F024BD00AA314675E0206AEDE7E069EBE710212046FFF790FE07
:2028000000AAB11E6AE011212046FFF789FE226849462046FFF7C8FD002862D100AA002180
:202820005CE011212046FFF77BFE00AAA6F10A0154E013212046FFF773FE22684946204655
:20284000FFF7B2FD00284CD100AA002146E013212046FFF765FE00AAA6F10D013EE0172105
:202860002046FFF75DFE226849462046FFF79CFD002836D100AA002130E017212046FFF7F5
:202880004FFE00AAA6F1100128E012212046FFF747FE226849462046FFF786FD08BB00AA58
:2028A00000211BE012212046FFF73AFE00AAA6F1130113E01B212046FFF732FE226849460C
:2028C0002046FFF771FD60B900AA002106E01B212046FFF725FE00AAA6F116012046FFF7F5
:2028E000A7FD00287FF576AFBDE8F68738B5044600A9FFF789FD0098E062216804F1B800E5
:20290000FFF744FD00280ED4B4F848102068FEF782FA0090B4F8480000F121012068FFF764
:202920002DFD00F00105009820616573E06A40F40051E162B4F8420000F00702D4F89430FD
:2029400003EBD000FEF7C8FA216804F19400FFF71DFD2046FFF743FE04F1180200212046AD
:20296000FFF766FD2268DFF8A0172046FFF71CFD28B904F1280200212046FFF759FDA06A94
:20298000606220622268DFF884172046FFF70CFD28B904F11C0200212046FFF749FDA06AD1
:2029A000C10106D4E16980064CBF081FA1F10800E061E06AC0F3807068B92268DFF8181700
:2029C0002046FFF7F1FC04F1140200212046FFF72FFD0120A0732046FFF7C4FD31BD70B596
:2029E00004460D4600220021FFF75DFD28B92268DFF81C172046FFF7D7FC58B900220021AF
:202A00002046FFF750FD28B92268DFF8E8162046FFF7CAFCDFF8BC66226831462046FFF755
:202A2000C3FC216804F1B800FFF7B0FC00280BD4B4F848102068FEF7EEF9B4F8480000F1AB
:202A400021012068FFF79AFC607B48B1226900212046FFF728FD226831462046FFF7A4FC42
:202A6000206ADFF878160840A16ADFF87426114041EA0002626200212046FFF714FD28B9F2
:202A80002268DFF860162046FFF78EFCE069216AC1F340110843E061024600212046FFF74F
:202AA00002FD2268DFF84C1D2046FFF77DFCA26900212046FFF7F7FCE06A20F40050002D22
:202AC00014BF40F4006020F40060E062B4F8420000F00702E16AD4F8943003EBD000FEF764
:202AE000FBF9216804F19400FFF750FCA07B80B1B4F8460000F007026169D4F8AC3003EBF7
:202B0000D000FEF7E9F9216804F1AC00BDE870403CE470BD10B582B0044600A9FFF774FCF2
:202B20000098C00707D5009880045CBF2046FFF7DDFE012016BD002016BD10B582B00446C4
:202B4000216804F1DC00FFF721FC00281ED400A92046FFF759FC009840F480400090B4F8CC
:202B6000420000F007020099D4F8943003EBD000FEF7B2F9216804F19400FFF707FC2168FF
:202B800004F1C400FFF702FC002802D54FF0FF3016BD2046FFF7BEFF16BD38B50446FFF72F
:202BA0001EFF216804F1D000FFF7F0FB00280BD4642500A92046FFF727FC0098800701D51C
:202BC000002032BD6D1EF4D14FF0FF3032BD2DE9FC4F85B081460D461321FFF7A1FC2A4652
:202BE00000214846FFF75FFC09F586700090D9F80000019000998968C91D00EBD100029031
:202C0000019ADFF8F41B4846FFF7CEFB002862D100988368019A4168006802F0DFF900286A
:202C200059D10127059D02F0CDF9002853D1109E1C2D55D301A850F827402246DFF8B81B13
:202C40004846FFF7B1FB002845D10098836822464168006802F0C2F900283CD187F00107A9
:202C6000DDF8188001A850F8270004900024B9F84EA0B9F8500003904FF00E0B0AF1200170
:202C8000D9F80000FFF77AFBC00701D400241AE051460498FEF7BFF801464046FEF721FA82
:202CA00008F10408641C03988244BBF1010BE5D14EB1B06800EB8400B060F168884202D332
:202CC000304631688847069800EB840006902D1B02F078F910B14FF0FF3037E0002CA7D1DE
:202CE000DDF8188087F0010001A951F8200000900027B9F84E40B9F850A04FF00E0B04F1F8
:202D00002001D9F80000FFF739FBC00701D4002719E021460098FEF77EF801464046FEF7AF
:202D2000E0F908F104087F1C5444BBF1010BE6D14EB1B06800EB8700B060F168884202D382
:202D40003046316888470598401B381807B0BDE8F08F2DE9F84F04460F4692469B46132189
:202D6000FFF7DEFB3A4600212046FFF79CFB0A98012101FA00F728B1022806D038BFDFF893
:202D80007C8A04E0DFF8788A01E0DFF8788AA08F00F007024146E36F03EBD000FEF79CF86E
:202DA000E08E00F00702DFF8601A636E03EBD000FEF792F8D04604F18809216804F17C00B7
:202DC000FFF7E4FA00285FD4E18F2068FFF7D6FA10F0010612D1002521684846FFF7D6FA1A
:202DE000002851D4B4F840102068FFF7C7FA10F0010603D16D1C642DEED345E0002E43D02F
:202E0000216804F16400FFF7C1FA00283CD4208F00F120012068FFF7B1FA10F0010619D10C
:202E20000025216804F17000FFF7B0FA00280BD4608F00F120012068FFF7A0FA10F00106B8
:202E400002D16D1C642DECD3618F2068FDF7E3FF26B919E0218F2068FDF7DDFF012F08D090
:202E6000022F09D0042F02BF01465846FEF739F906E08BF8000003E081B25846FEF72FF90E
:202E8000BB44B8F1010898D100A92046FFF7BCFA002805D40098400602D40098000603D532
:202EA0004FF0FF30BDE8F28FAAEB0800BDE8F28F2DE9F54F81B088469A4616460C980C90E6
:202EC0000D9F02282FD15446C1460E2E25D314F0030022D135464FF40060B5F5006F98BFBF
:202EE00028460E21FEF75CF9C0EBC0014FEA410B009723465A4649460198FFF768FE0028AE
:202F000040D4584506D109EB800904EB80042D1A0E2DE0D2701B01D534E00020361A08EB2D
:202F200080080AEB800A5EB3002F0C981ED08640FC68B44288BF34460C98009053460C9866
:202F400024FA00F241460198FFF703FF002819D4B8682018B860F968884202D338463968A5
:202F60008847A044A244361BE2D109E000905346324641460198FFF7ECFE002802D4361ADC
:202F80000298801B03B0BDE8F08F2DE9F04782B004460F4692461E461321FFF7C1FA3A4666
:202FA00000212046FFF77FFA0A98012101FA00F728B1022806D038BFDFF8508804E0DFF82B
:202FC000508801E0DFF84C88A08F00F007024146E36F03EBD000FDF77FFF208E00F00702B5
:202FE000DFF83418A36D03EBD000FDF775FFD04604F188093178022FA2BF707841EA00216D
:20300000032F05DBB078F278120642EA00400143608E00F00702A36D03EBD000FDF75CFF40
:20302000216804F15800FFF7B1F9002841D4A18E2068FFF7A3F910F0010012D10025216802
:203040004846FFF7A3F9002833D4B4F840102068FFF794F910F0010003D16D1C642DEED36A
:2030600027E030B3216804F17C00FFF78FF900281FD4E18F2068FFF781F910F0010012D187
:20308000002521684846FFF781F9002811D4B4F840102068FFF772F910F0010003D16D1C34
:2030A000642DEED305E000281CBFBE19B8F10108A0D100A92046FFF7A7F9002805D400989E
:2030C000400602D40098000600D5B5E0AAEB0800BDE8F687150E00EE150E10EEDFFFFFFE00
:2030E0002000000100F02FE1300F11EE300F01EE1E0F07EE100FEFEED00000200000A0E1B4
:2031000000F069E100004FE100000FE10F00A0E1150F07EE2DE9F04782B004460F46154633
:203120001E461321FFF7FCF9324600212046FFF7BAF904F58C76B4F852000E210091B4F8FF
:20314000543000F007023946D6F800C00CEBE000FDF7E2FE07F13808D4F820312268716882
:20316000306801F03BFF002862D14FF0000904F1880A6D1E3DD089F0010909EB490004EB1B
:20318000800000F58C76B4F852000E210091B4F8543000F007024146376807EBE000FDF7E5
:2031A000BBFE08F1380801F00DFF002840D1B4F856102068FFF7E2F8C00711D40027216821
:2031C0005046FFF7E3F8002832D4B4F840102068FFF7D4F8C00703D47F1C642FEFDB27E077
:2031E000D4F8203122687168306801F0F7FEF8B9BFE701F0E7FED8B9B4F856102068FFF783
:20320000BDF810F0010012D1002721685046FFF7BDF800280CD4B4F840102068FFF7AEF8FC
:2032200010F0010003D17F1C642FEEDB00E000B902E00020BDE8F6874FF0FF30BDE8F68775
:203240002DE9F04704460D46164698460E2E21D318F003001ED100274FF4006907E0CAEBB1
:20326000CA00400015EB800508EB8008C719F01B0E2812D3B0F5006F28BF48460E21FDF792
:203280008FFF82462B46524641462046FFF742FF0028E4D50020BDE8F0873846BDE8F087F4
:2032A0004AF2D062904238BF0621084670472DE9F04FA1B005462B1D01A802F0EFFC0020CC
:2032C0008DF8280005208DF858000522022101A802F018FC052216A901A802F04CFC052256
:2032E0001D2101A802F00EFC00208DF85400DFF8281514A8FDF7F5FE212214A901A802F0A0
:203300003AFC04460522002101A802F0FBFB002109A8FDF7E6FE0123222209A901A802F0F5
:2033200070FC0646212209A901A802F024FC6E862C862030A88605F1580101A802F088FC93
:20334000DFF8D86417A806CE06C0083E05208DF82F000246022101A802F0D4FB05220DF1E8
:203360002F0101A802F007FC05221D2101A802F0C9FB00208DF84C00DFF88C1412A8FDF7A5
:20338000B0FE212212A901A802F0F5FB0446012101A802F08FFB05220C2101A802F0B2FBC9
:2033A000222217A901A802F0E6FB2887EC8605F1640101A802F04CFC222219A901A802F08D
:2033C000DAFB688705F1700101A802F041FC05221D2101A802F096FB00208DF84400014629
:2033E00010A8FDF77EFE212210A901A802F0C3FB0446012101A802F05DFB00208DF83C0010
:2034000001460EA8FDF76DFE21220EA901A802F0B2FBAC872030E88705F17C0101A802F00E
:2034200017FC212219A901A802F0A5FB2030A5F8400005F1880101A802F00AFC01208DF846
:203440002E000522022101A802F05CFB05220DF12E0101A802F08FFB0522002101A802F0A6
:2034600051FB202219A901A802F085FBA5F8420005F1940101A802F0EBFB01208DF82D0023
:203480000522022101A802F03DFB05220DF12D0101A802F070FB05220C2101A802F032FB9A
:2034A000202219A901A802F066FBA5F8440005F1A00101A802F0CCFB05208DF82C00024614
:2034C000022101A802F01EFB05220BA901A802F052FB0522002101A802F014FB222219A95A
:2034E00001A802F048FBA5F8460005F1AC0101A802F0AEFB05208DF803000246022101A863
:2035000002F000FB05220DF1030101A802F033FB05220C2101A802F0F5FA222219A901A83F
:2035200002F029FBA5F8480005F1B80101A802F08FFB0522082101A802F0E4FA032101A826
:2035400002F0B8FA05F1C40101A802F081FB0522042101A802F0D6FA012101A802F0AAFADD
:2035600005F1D00101A802F073FB06231F22002101A802F083FA05F1DC0101A802F068FB07
:2035800004208DF802000522022101A802F0BAFA05220DF1020101A802F0EDFA05220021F5
:2035A00001A802F0AFFA00208DF834009C490CA8FDF797FD21220CA901A802F0DCFA05F16E
:2035C000E80101A802F044FB012101A802F072FA212219A901A802F0CEFA2030A5F84A0060
:2035E00005F1F40101A802F033FB01208DF801000522022101A802F085FA05220DF10101E5
:2036000001A802F0B8FA05220C2101A802F07AFA202219A901A802F0AEFAC01DA5F84C00ED
:2036200004208DF800000522022101A802F06AFA052200A901A802F09EFA0522002101A8A4
:2036400002F060FA05F5807101A802F001FB00274FF48054A0460DF124090DF1300A0020F5
:203660008AF8040005208DF800000522022101A802F048FA052200A901A802F07CFA0522EB
:203680001D2101A802F03EFA002089F80400654840EA080109A8FDF724FD212209A901A830
:2036A00002F069FA0522002101A802F02BFA00210CA8FDF716FD012322220CA901A802F019
:2036C000A0FA834621220CA901A802F054FA17B9A5F852B007E0012F05D1B5F85200ABEBB5
:2036E0000000A5F854007F1C08F580580E2FB6DB05221D2101A802F005FA00208DF83400C3
:2037000049490CA8FDF7EDFC21220CA901A802F032FA012101A802F0CDF900208DF8280077
:20372000002109A8FDF7DDFC212209A901A802F022FA2030A5F8560005F58C77394601A8D6
:2037400002F086FA3A4605F5927101A802F065FA0027DFF8D8800CA806CE06C0083E052071
:203760008DF800000522022101A802F0CBF9052200A901A802F0FFF905221D2101A802F0B8
:20378000C1F9002089F8040048EA040109A8FDF7A8FC212209A901A802F0EDF9012101A809
:2037A00002F088F905220C2101A802F0ABF922220CA901A802F0DFF917B9A5F84E0006E0F6
:2037C000012F04D1B5F84E10401AA5F850007F1C04F580540E2FBEDB05F5867101A802F0C8
:2037E00037FA0698286007980899A0EB410021B0BDE8F08F10FF2FE1FE7FB0E8B210D0E0CB
:203800000110D0E4041090E4151E00EEB210C0E00110C0E4041080E4151E10EEDC13010882
:203820009A0F07EE150E10EEFE7FA0E8150E00EE70B504460D4616464FF4987200212846B9
:20384000FDF784FC042204F10C01281DFDF738FD2068A86060792873A6F5987205F59871B2
:203860002846BDE8704022E5DFF800F089050020DFF800F095050020DFF800F02D0600206E
:20388000DFF800F001070020F0B5059C069E079D01F00F0103F0030306F0030C4E00032734
:2038A00007FA06FE6FEA0E07CAB9012202FA01FE002C446814BF4EEA040424EA0E04446045
:2038C00002FA01F1002D14BF01834183816839400CFA06F421438160016839402EE0541EA9
:2038E000E4B2102C21D284683C400CFA06F52C438460521E0F24082909D28900056A8C40D4
:2039000025EA040402FA01F12143016209E008398900456A8C4025EA040402FA01F1214344
:20392000416201683940022208E0122A016803D139404EEA010103E039400022B240114306
:203940000160C168394003FA06F21143C160F0BD70B584B0089E099D0A9C02940195009640
:2039600001F081BA70B4DFF8A42B40235383136823F4405343F480531360DFF8943B0424A8
:203980001C8340245C831C6824F4405444F480541C600424148311B9002070BC70470929CF
:2039A000ACBF08240C46091B10F8015BEE0747BF40261E8340265E836D0800BF00BF00BF9B
:2039C00000BF00BF00BF168300BF00BF00BF00BF00BF00BF5683641EE8D1DCE710B582B0C9
:2039E00004460846DFF82C1B09680091DB0001F029BB10B501F01FBB0020704770B584B09F
:203A0000DFF80C4B0020029002200190002000900023024603212046FFF736FFDFF8EC5A26
:203A20000120029002200190002000900346112208212846FFF728FFDFF80C6F002002903C
:203A40000220019000200090034611220E213046FFF71AFF002002900220019000200090BE
:203A60000346024601212046FFF70EFF002002900220019000200090034611220C213046F6
:203A8000FFF702FF0020029002200190002000900346112202213046FFF7F6FEDFF8AC0E8A
:203AA000006868B10020029002200190002000900023024606212046FFF7E6FE01200BE092
:203AC000029002200190002000900023112206212046FFF7D9FE00200290022001900020BC
:203AE00000900023024602212846FFF7CDFE002002900220019000200090034602460621AC
:203B00002846FFF7C1FE0120029002200190002000900346024602212046FFF7B5FE002089
:203B2000029002200190002000900346024608213046FFF7A9FE002002900220019000203E
:203B400000900346112209212846FFF79DFE00200290022001900020009003461122072177
:203B60002046FFF791FE0020029002200190002000900346112208212046FFF785FE0020A1
:203B800002900220019000200090034611220A212046FFF779FE0020029002200190002031
:203BA00000900346112201213046FFF76DFE00200290022001900020009003461122052149
:203BC0002846FFF761FE0020029002200190002000900346092207212846FFF755FE00209A
:203BE000029002200190002000900346112204212846FFF749FE00200290022001900020FF
:203C000000900346112205212046FFF73DFE002002900220019000200090034611220D211C
:203C20003046FFF731FE002002900220019000200090034611220F2100F02BBE2DE9F04FFA
:203C400085B00746DFF8080D00210160DFF8F84C029102200190009100230A460821204680
:203C6000FFF712FEDFF8A4580020029002200190002000900346112208212846FFF704FE4B
:203C8000002002900220019000200090034611220E212046FFF7F8FDDFF8746801200290AD
:203CA00002200190002000900346112206213046FFF7EAFD00200290022001900020009096
:203CC0000346112206212846FFF7DEFD002002900220019000200090034611220C212046DE
:203CE000FFF7D2FD0020029002200190002000900346112202212046FFF7C6FD002002907A
:203D000002200190002000900346024603213046FFF7BAFD00200290022001900020009053
:203D20000346024602212846FFF7AEFD002002900220019000200090034602460221304681
:203D4000FFF7A2FD0020029002200190002000900346024601213046FFF796FD0020029055
:203D600002200190002000900346112209212846FFF78AFD0020029002200190002000903A
:203D80000346112207213046FFF77EFD002002900220019000200090034611220821304668
:203DA000FFF772FD002002900220019000200090034611220A213046FFF766FD0020029061
:203DC00002200190002000900346112201212046FFF75AFD0020029002200190002000901A
:203DE0000346112205212846FFF74EFD00200290022001900020009003461122072128464B
:203E0000FFF742FD0020029002200190002000900346112204212846FFF736FD4FF0000BD6
:203E2000DFF8300BB0FBF7F050380490DFF8280BB0FBF7F003900DF108080DF10809DFF89F
:203E4000D4A62AE0206820F0300040F0100020600220308340203083306820F4405040F4FE
:203E600080503060042028834FF48070208340207083642002F0EFF84FF4807060836420F3
:203E800002F0E9F840203083BE2002F0E4F804206883306820F4405030600498CAF8000057
:203EA000DFF8800E0399016000279D208DF80800432089F80100752089F80200C02089F8D1
:203EC00003000020ADF8040032200090022301AA042102A801F08CFC022809D19DF804007F
:203EE0009DF8051040EA012040F2232188424ED07F1C022FD9DBDFF8580A012101604020D3
:203F00002883286820F4405040F4805028600420308300279D208DF80800432088F801000A
:203F2000752088F80200C02088F803000020ADF8040032200090022301AA042102A801F0CC
:203F400057FC022809D19DF804009DF8051040EA012040F22321884219D07F1C022FD9DBD3
:203F600004207083286820F440502860DFF8E00900210160BBF1020F09DA0BF1010BBBF1D8
:203F8000010F07BF04202083042060835AE702207083206820F0300020600498CAF8000081
:203FA000DFF8800D03990160002005B0BDE8F08FDFF8280D81884FF6FC7211408180DFF8B6
:203FC0009C1D8A884FF6FC731A408A8002884FF6BF731A400280088818400880704770B5D5
:203FE00084B0DFF82C450020029002200190002000900023024601212046FFF745FCDFF82F
:204000004859002002900220019000200090034611220C212846FFF737FC002002900220D6
:204020000190002000900346112202212846FFF72BFC0020029002200190002000900346B7
:2040400002460E212846FFF71FFC0020029002200190002000900346024606212046FFF741
:2040600013FCFFF7A5FFDFF8740C018841F4A2710180DFF8E81C0A8842F4A2720A80028922
:204080004FF4B4731A421CBF828902890A891A421CBF8A890A89002282818A810289920725
:2040A000FCD50A89920740F26912FAD503891342FCD00B891342FCD0828902898A890A89E9
:2040C00002884FF6BB631A4002800A881A400A800222828003228A80028842F040020280CC
:2040E000088840F0400008800020029002200190002000900023024608212846FFF7C4FB6C
:20410000DFF808640120029002200190002000900346024608213046FFF7B6FB01200290BC
:2041200002200190002000900346024606213046FFF7AAFBDFF8080E01210180206820F427
:20414000705040F42050206028688001800940F028402860306820F4405040F40050306071
:20416000029102200190002000900346024602213046FFF789FB012002900220019000201F
:2041800000900346024602212046FFF77DFB0120029002200190002000900346024603213C
:2041A00017E370B584B0DA4C0020029002200190002000900023024601212046FFF764FB29
:2041C000DFF88457002002900220019000200090034611220C212846FFF756FB0020029008
:2041E00002200190002000900346112202212846FFF74AFB002002900220019000200090FF
:204200000346024608212846FFF73EFBBF4E0120029002200190002000900346024608216A
:204220003046FFF731FB002002900220019000200090034602460E212846FFF725FB00206D
:20424000029002200190002000900346024606212046FFF719FB01200290022001900020BB
:2042600000900346024606213046FFF70DFB012002900220019000200090034602460321B7
:204280002046FFF701FB0120029002200190002000900346024602213046FFF7F5FA012080
:2042A000029002200190002000900346024602212046FFF7E9FA0020029002200190002091
:2042C00000900346112209213046FFF7DDFA002002900220019000200090034611220721AC
:2042E0002046FFF7D1FA0020029002200190002000900346112208212046FFF7C5FA0020A2
:2043000002900220019000200090034611220A212046FFF7B9FA002002900220019000206D
:2043200000900346112201212846FFF7ADFA0020029002200190002000900346112205218D
:204340003046FFF7A1FA0020029002200190002000900346112207213046FFF795FA002082
:20436000029002200190002000900346112204213046FFF789FA0020029002200190002033
:2043800000900346112205212046FFF77DFA002002900220019000200090034611220D2159
:2043A0002846FFF771FA002002900220019000200090034611220F2128466BE21146DA0081
:2043C00001F062BE11461A4601F05EBE0020704780B501F05FFE002002BD30B583B04C4C1F
:2043E0002069800900F00100029002200190002000900023024606212046FFF745FADFF8C1
:20440000C05B2869800B00F0010002900220019000200090034602460E212846FFF734FA2D
:20442000DFF8F40C0169890901F00101029102210191002100910B460A460621FFF724FAE0
:204440000020029002200190002000900346112205212046FFF718FA0020029002200190D2
:2044600000200090034611220D212846FFF70CFA00200290022001900020009003461122E7
:204480000F212846FFF700FAFFF792FD002003B030BDDFF8900B0068800204D5DFF8B80C79
:2044A00000680001FAD50020704730B4DFF8784B2360DFF8784B4FF074652560E1656365A7
:2044C000216D41F001012165DFF8641B0D603D244C604867CB66886E40F001008866CA65A1
:2044E0004B65086D40F001000865202B88BF2023DFF8680CD900491E018601218182018864
:2045000041F001010180002030BC70470008024000000240FC0F00202DE9FC4E82B0834612
:204520008A4699465FEAD90412D02346FFF7BDFF0546FFF7AEFF09F0070915B9B9F1000F2B
:2045400001D12846A4E0A244A344029820440290DFF8405A2869400647BF40202883402081
:204560006883DFF85C4A4FF48040216949044CBF20836083DFF8646730884FF6BF71084051
:204580003080DFF8D877388808403880286820F4705040F48050286020688001800940F0D3
:2045A00080502060DFF8700B006820F4405040F48050DFF8641B0860C9F108009AF8001027
:2045C00081408DF801109BF8001001FA00F08DF800004B46029A51465846FFF749F9FFF7E1
:2045E000E7FC308840F4A2703080388840F4A270388030894FF4B47108421CBFB089308934
:20460000388908421CBFB88938899DF80100B0819DF80000B88130898007FCD538898007C4
:2046200040F26910FAD531890142FCD039890142FCD0B0893089B889388930884FF6BB6159
:20464000084030803888084038800220B0800320B880308840F040003080388840F04000ED
:204660003880286820F4705040F42050286020688001800940F028402060DFF89C0A006863
:2046800020F4405040F40050DFF88C1A0860002004B0BDE8F08E80B5DB0000E080B5FFF7FB
:2046A000E7F8002002BD00207047DB00FBF730BEFBF72EBEDB00FBF7CBBFFBF7C9BF0020DB
:2046C000704770B584B0DFF8CC480020029002200190002000900023024601212046FFF7E1
:2046E000D3F8994D002002900220019000200090034611220C212846FFF7C6F80020029077
:2047000002200190002000900346112202212846FFF7BAF80020029002200190002000906C
:204720000346024603212046FFF7AEF8DFF8E8690120029002200190002000900346112208
:2047400008213046FFF7A0F8002002900220019000200090034611220E212846FFF794F87C
:204760000020029002200190002000900346024608212846FFF788F8002002900220019021
:20478000002000900346024606212046FFF77CF8002002900220019000200090034602463B
:2047A00006213046FFF770F80120029002200190002000900346024602213046FFF764F86C
:2047C0000120029002200190002000900346024602212046FFF758F80020029002200190FE
:2047E000002000900346112209213046FFF74CF80020029002200190002000900346112222
:2048000007212046FFF740F80020029002200190002000900346112208212046FFF734F89A
:20482000002002900220019000200090034611220A212046FFF728F80020029002200190DB
:20484000002000900346112201212846FFF71CF80020029002200190002000900346112201
:2048600005213046FFF710F80020029002200190002000900346112207213046FFF704F87D
:204880000020029002200190002000900346112204213046FEF7F8FF002004B070BD0000FF
:2048A000F0B587B0044604A8DFF81C1A0A680260FFF707FFDFF8140AB0FBF4F00C384EBF74
:2048C0004FF0FF34052190FBF1F4244D2C600722002105A8FCF73AFC0722002100A8FCF7CE
:2048E00035FC1F208DF8000000A8202141708021417101208DF80600382302AA00A905A8CD
:20490000FBF7A6FE9DF80A009DF80B1040EA01200005000D532812D0DFF8B4694FF48077CA
:204920003780022001F097FB202104A8FFF71AF8022001F090FB77800A2001F08CFB2C6063
:20494000DFF8780C07B0F0BD000402408C1B00206010002000389C1C0024F400FC0F0020C8
:204960002DE9F04184B0DFF8BC46206840F4C00040F007002060606940F00200606160692B
:2049800040F480506061206940F480402061DFF804764FF020503860DFF824568020286043
:2049A000DFF8746700203060F06840F08060F0603069DFF82089400B00F0010080F0010017
:2049C00088F800004FF0C840F860DFF80C09E860DFF80809F060DFF8080910210160386A30
:2049E00020F470003862386A40F4A0003862386A20F070603862386A40F0A0603862686A2F
:204A000020F470006862686A40F4A0006862686A20F070606862686A40F0A0606862686ABE
:204A2000000100096862686A40F0A0406862306A20F070603062306A40F040703062706806
:204A400020F040007060B86820F44050B860B86840F48050B860A86820F04050A860A86856
:204A600040F08050A860B06820F44050B060B06840F48050B0600020029001900090002340
:204A8000122201463846FEF7FFFE00200290019000900346122201463046FEF7F5FE002016
:204AA0000290019000900346122201213046FEF7EBFE0020029001900090034612220321DC
:204AC0003046FEF7E1FE98F8000048B100200290019000900023122204213846FEF7D4FE6F
:204AE00001200290002001900090002302460B212846FEF7C9FE012002900020019000900D
:204B0000034602460A212846FEF7BEFE00200290019000900346024608212846FEF7B4FE18
:204B200001200290002001900120009000231A4607212846FEF7A8FE002002900220019047
:204B4000002000900346024603213846FEF79CFE002002900220019000200090034602463D
:204B600002213046FEF790FE0020029002200190002000900346024602213846FEF784FE5B
:204B80000020029002200190002000900346024601213846FEF778FE4FF4006028834FF4D3
:204BA000806028832883606940F480606061DFF88C0900210160DFF8880940F201314160C6
:204BC0004FF4907101604FF44011816242F66D1101630121C16040F209218160DFF890199F
:204BE00010220A70DFF88C194FF480220A60226842F480022260DFF8342493685B085B0092
:204C00009360DFF874391F6A9768FF07FBD43D231360DFF8AC391361DFF8A839536104232A
:204C2000D360DFF8A43993600023D361936843F001039360436843F08043436098F800004A
:204C400048B1206940F000502061DFF8B40903230360002383604FF480706883DFF8FC04B9
:204C600001238381038B43F068030383DFF894394FF400441C808C2303804FF480534B60A0
:204C8000018C41F001010184DFF87C09DFF87C198160002343614FF4013303600162002101
:204CA000C162DFF86C198161DFF86809906500205066DFF86409106540F28320074908801A
:204CC0002649088004B0BDE8F081DFF8180C0078042818BFFEF7D0BD2CE30000003001409B
:204CE000DFF8B009006848B1DFF8FC0B006840F6E4414843C012642838BF00207047DFF894
:204D00004C0B13E0DFF8DC090068400A10E0DFF8400B006840080BE0DFF8300B0068000AAA
:204D200006E0000064100020DFF8B8090068C00900F00100704780B5FFF7D2FF08B90120AA
:204D400002BDDFF8A0090068400900F0010002BDDFF8F80A0068800AEAE70000003800409F
:204D600070B584B072B6DFF8B0438A4D0021002001F0AAFB002847D1029002200190002095
:204D800000900023024603212846FEF77DFD0020029002200190002000900346024601214F
:204DA0002846FEF771FD0120029002200190002000900346112208212046FEF765FD804EDC
:204DC000002002900220019000200090034611220E213046FEF758FD0020029002200190EE
:204DE00000200090034611220C213046FEF74CFD0020029002200190002000900346112215
:204E000002213046FEF740FD62B60020029002200190002000900023024602212046FEF7B1
:204E200033FD0020029002200190002000900346024602212846FEF727FD0120029002201D
:204E40000190002000900346112206212846FEF71BFD002002900220019000200090034695
:204E6000112206212046FEF70FFD04B070BD10B5DFF8E049207858BB012001F0ECF84FF4E7
:204E8000FA70FEF7F1FCDFF8D00980210180012001F0E1F8DFF8C40900210160DFF8C00943
:204EA0000160DFF8C0090160DFF8BC090160DFF8BC090160DFF8B809DFF8301A0322002395
:204EC00020F8023B41F8043B521EF9D10120207010BDDFF8800900210170DFF8F4038021EC
:204EE00001807047DFF8E8030CE0DFF86C0909E006E0DFF8FC0905E0DFF8F40902E000BF7B
:204F0000DFF8F0094FF4807101807047DFF8E8094021418302E01F4840210183016821F4BC
:204F2000405141F480510160DFF8C409042101807047DFF8C8094FF48041418306E0000022
:204F4000140401401E484FF480410183016821F0405141F080510160DFF8A409082101806E
:204F600070476D4840214183016821F4405141F480510160DFF88809D8E76748402101836F
:204F8000016821F4405141F480510160DFF87009CCE70000000002405F4840214183016821
:204FA00021F4405141F480510160DFF8541904220A80402101837047DFF84809006870470D
:204FC00000040240DFF8400900688068004710B5DFF8344924682468A04710BD10B5DFF853
:204FE000284924686468A04710BDDFF8F8180978012904D0032906D0052908D00BE0DFF804
:205000000C1901220AE0DFF80819642206E0DFF804190F2202E0DFF8FC180822828001607B
:20502000704700003038024068100020086402400860024010B582B004460846DFF8D818C9
:20504000096800912146FBF7C3F9002016BD2DE9F041804672B6DFF8C408006840F6B831E7
:20506000884238BF01F048FB01F030FDDFF8B008016841F007010160DFF88058286820F438
:20508000400040F480002860286820F4401040F4801028604FF4006028834FF480676F83EA
:2050A0004FF4FA64DFF87C687F2030604FF47A70FEF7DAFB641EF7D12F83C8247F20306057
:2050C0004FF47A70FEF7D0FB641EF7D16F83C8247F2030604FF47A70FEF7C6FB641EF7D15F
:2050E000B8F10108E8D14FF47A787F2030604FF47A70FEF7B9FBB8F10108F6D1BDE8F041BC
:20510000CEE0DFF824080121016001209FE7DFF814087F21016070470008024080B5042264
:20512000002100A801F0A6FBDFF800180098FCF737F8009000AA0A21FCF70FF80098082844
:2051400024BF0220009000984FF47A71DFF8E02701FB002002BD0000006002400004014054
:2051600070B506460C46DFF8B05700202860032E09D1DFF8B807844238BF04462046FEF7E3
:205180005DFD05467EE0062E00F27B80DFE806F0054179045A5E7400F0E734B140F6B83065
:2051A000844202D3FEF71BFF04E0FEF7FAFFFEF7FFFE5CB3DFF87C07844224D204EB440029
:2051C0008000DFF874170918B1FBF0F0001F48BF0020286040F6B83084420BD3DFF834079E
:2051E000B0FBF4F0401EDFF8541700220A804208CA60486040F6B83084422CBFDFF840577B
:20520000DFF8405747E000202860E7E7DFF8385741E0FEF7F3FBDFF8F40684420CD2DFF8CD
:2052200018070019B0FBF4F01338062190FBF1F0002803D5002001E04FF0FF302860DFF8FB
:205240000C5721E02046FFF72BFB18E000F022FFDFF8FC0684420AD2DFF8DC060019B0FB67
:20526000F4F00A38062190FBF1F0002800D500202860DFF8E0560EE0204601F048FD0546EE
:2052800009E00025012E06D100F0C6FA18B9DFF8540601210170DFF86C060460284670BD6D
:2052A00072B601F013FCDFF8B006016841F002010160DFF8A806FEF7D7FADFF8A406DFF898
:2052C000A4160160FEE70000981D010800E1F50518040240D32C002000150400000040500F
:2052E0000C0C02400C2825D8DFE800F0070B0E11142424242424181C2000DFF85805007873
:205300007047DFF8580507E0DFF8580504E0DFF8580501E0DFF8540500687047DFF8500513
:2053200000887047DFF8480540887047DFF84005808870474FF0FF307047F8B5A148DFF81E
:2053400028160A6883681B0512EB1353DFF81C261468641C082C30D1DD10DFF88C351D60E3
:2053600000240023DFF8086636781EB340F27C667543AD12DFF8FC653560B5F5487F03DA7C
:20538000DFF8F4552B600BE0B5F57A7F08DBDFF8E8653768EF1B48BF7F42642FA8BF3560CD
:2053A000DFF8D4552D684FF42F767543AD12DFF8CC653560B74D01262E6014600B60DFF8ED
:2053C0009414097800297AD0DFF894241168491C1160DFF8AC255278C2B902681205120DC6
:2053E00040680005B2EB105004D4DFF898255043C00901D5002005E0DFF88C259042A8BF9F
:20540000DFF88805DFF85C24106002E0DFF854040068DFF8542413688342B8BF0346136026
:20542000642906DBDFF844140A688242B8BF02460A60DFF8B814DFF8582590420EDB08684E
:20544000401C0860DFF828241388834238BF1080022809D3DFF80404012128E000220A60E3
:20546000DFF8302590420EDB4868401C4860DFF800245388834238BF50800A2809D3DFF84A
:20548000DC03022113E000224A60DFF80C25904213DB8868401C8860DFF8D42391888142A5
:2054A00038BF908028280AD3DFF8B0030321016001F073FC01F07EFC01E000208860DFF81E
:2054C000DC0481684908490081608168C907FCD43D210160816841F001018160DFF8C004A8
:2054E000016841F480610160DFF8B804016841F001010160016841F080410160F1BDDFF8FB
:20550000A8044FF480210160DFF898040168490849000160DFF88804016821F480610160A0
:20552000704710B1012804D07047CB484FF4006102E0C9484FF480610180704704230140D1
:205540000422014010B1012805D07047DFF85C044FF4006103E0DFF854044FF480610180DC
:20556000704770477047DFF8480470470000000012E400E000E100E0D0000020DFF8340496
:205580004FF480510160254841F6FE710182DFF828140A682023202A98BF1346D21A0A60E8
:2055A0000BD0202A88BF2022D100491E018601218182018841F0010101807047EC1D010853
:2055C0004C2201401410002000550004DFF8EC03018880880F22114211D1DFF8E4134A6941
:2055E0006AB10A6910700869401C0A684B689B18984208BF104608614869401E4861704729
:205600000074004044040140586002400C380040400401000C30014040040006000401407E
:20562000DFF89C038161026043600261436100218160C1608069E34901EB5001B1FBF0F005
:20564000082838BF082004D3B0F5004F28BF47F6FF70802181F3118800BF00BFD0490A68E6
:2056600042F020020A60002181F31188D649C20800F0070040EA021008804AF22400888032
:20568000002008818881D14800210170D04880210160704750100020CE4801884FF6DB722B
:2056A00011400180CC48016841F020010160016821F020010160704772B6C14A53690B60DB
:2056C0001169016062B6704772B6BD490A69824231BF801A4B689A1A8018486162B67047BA
:2056E000BE487047100802402DE9F04704464FF000090020804E40273783376827F4405754
:2057000047F4805737607A4F04253D80DFF8D0C214F8015B6D0045F4C06E01290CBF4FF058
:205720000A084FF00B085FEACE7547BF4025358340257583DCF800504FF0400AA7F802A00B
:2057400000BF00BF00BFA7F800A06D1EF6D14FEA5E0EB8F10108E6D1491ED9D1316821F4AE
:2057600040513160042179804FF47A710D4640247C8000BF00BF00BF3C803469640634D400
:20578000DCF800406400A51E40247C8000BF00BF00BF3C806D1EF8D108244FEA59093569BC
:2057A0006D0648BF49F08009DCF80050D646A7F802E000BF00BF00BFA7F800E06D1EF5D1DF
:2057C000641EEAD102F8019B401C5B1ECED1DCF8001001EB410140227A8000BF00BF00BFD7
:2057E0003A80491EF8D1BDE8F0876D1EBFD1EEE718B47C4C246814B101B010BC74E701B045
:2058000010BCFEF73DB810B582B0049C0094FFF7EFFF16BD0020704780B50122892100A86F
:2058200000F08DFF9DF80000012801D1002002BD012002BD10B50C460C2C28BF0C242246CF
:205840006949FBF73DFD204610BD00001000024010040240D22C00201A0402404810002099
:2058600044100020381000203C100020401000203010002030B583B00C46032828D15B4DDA
:205880001D4864B100210291022101910021009100230A460621FDF7F7FF01200AE0029151
:2058A0000221019100210091002311220621FDF7EBFF0020029002200190002000900023EE
:2058C000024602212846FDF7DFFF4948046001E0042802D1012003B030BD6FF0010003B074
:2058E00030BD0000E92C00204C10002024100020180802401A080240000002400004024068
:205900001800024054100020F0010020001BB70000C2EB0B000E2707FC0F0020941B0020D8
:2059200030380240002C0040082C0040A0860100905F0100C0C62D00FF0D2707280401406C
:205940009C1D0108B01D0108C41D0108D81D010800127A00001E01080408005020A10700F0
:205960000CED00E00400FA05701000206C100020D32C0020581000205C1000200874004020
:2059800000100020544B0600414B4C00404B4C00C1C62D0041420F00811A060008640240EE
:2059A000443802400822014080E200E018040240FF3F012084E200E068100020001401408C
:2059C00074100020008793030814014047E400E008E100E00C10014024380240141E01089F
:2059E0006410002060100020107AFF1F000802408C1B0020012070478169002948BF0021B7
:205A00004910426942608A188260C90001610021C1607047F0B5C76807F00704456815EBB5
:205A2000D705D0F808C00CEBD706DF19C7600069B84222D3C4F108008342D8BF1846012710
:205A400087407F1EFFB207EA020C0F4094B195F800E0A74047EA0E072F7037780CFA04F4B8
:205A60003C4334701B1A08D00141697042FA00F07070F0BD86F800C02F70F0BD2DE9F84347
:205A800081460D4616461F46D9F80C8008E02346F2B2E9B24846FFF7BDFF3F1B360A2D0A2D
:205AA000012F04DB092FACBF08243C46EFE74046BDE8F28370B504460D00E66807D001234B
:205AC000002200212046FFF7D9FF6D1EF7D1304670BD38B504460D46082D08DB082300226A
:205AE000FF212046FFF7CAFF083D082DF6DA012D07DB0123002201212046FFF7BFFF6D1EFA
:205B0000F5E731BD2DE9F0410446884616462068C7780078C01B851B042303220021204673
:205B2000FFF7ACFF1DB129462046FFF7D2FFE568002F334605D10120711E00FA01F241466B
:205B40000DE0002241462046FFF798FF022F03DB791E2046FFF7BDFF0123012211462046FA
:205B6000FFF78CFF0123012200212046FFF786FF2846BDE8F0812DE9F04704468846164616
:205B8000206887784078C01B451E0323012200212046FFF773FF2DB12B4600220021204658
:205BA000FFF76CFFE5684FF0010909E000225346D2B218F8011B2046FFF760FFA6EB0A063E
:205BC000012E0CDB4FF0080A082ED8BFB246002FECD1092EEADA701E09FA00F2E7E73FB171
:205BE0003B46791E09FA01F200212046FFF746FF01231A4600212046FFF740FF2846BDE882
:205C0000F08770B504461D46FFF7B5FF064629462046FFF74FFF304670BD70B504460D46C7
:205C200010468168C91DCE080EC80EC50C380C3DA169891BA1610AD4324601686069FBF709
:205C40003FFB6069286060693018606122E070BD70B504460D46E068C11DCE0821698142AD
:205C600009D33246A16860683018FBF729FBE069B042B8BFE6616068286060683018686080
:205C8000E068A860606900EB46006061A069A0EB4600A0612046BDE87040ADE603604161CB
:205CA00082610021C161A7E64169CA43521C02F00302511841618169891A816170470000E4
:205CC00030B4802080F3118800BF00BFDFF8B40381680022027182F3118800291CBF0A6826
:205CE000002A21D04B6954699C421DD100E02246146814B165699D42F9D0802383F311889B
:205D000000BF00BF0B6804698C4208BF0361086A036018620A621068086000B1016211600C
:205D200092F8390082F83800002080F3118830BC704738B5DFF84C4300206071206A00F160
:205D400080406062E16908001CBF20468847002080F31188E56826E0802080F3118800BF75
:205D600000BF206920B1686921694969884221D3287C400713D5E868216A401A012809DA2B
:205D8000284600F0DEF8802080F3118800BF00BF287C78B1E868616A411A48BF6062002079
:205DA00080F311882D68002DD6D1802080F3118800BF00BF31BD70B5DFF8C8420020607060
:205DC00001202070802080F3118800BF00BFE06B010005D080470020E063606384F8380026
:205DE000002080F3118800F0F3FF0078CD281CBF7D2000F0F3FFA06800281CBFC16B00296E
:205E000004D009680A001CBF4068884794F8310040B1A06894F8301080F83810207908B14D
:205E2000FFF74EFFA06820B1017C11B9416B491C4163206948B304E028682061002080F33E
:205E40001188802080F3118800BF00BF256925B32E7C16B370070ED5E868216A411A0129EC
:205E600005DA284600F06DF8287C20B90DE0616A411A48BF606206F0FB001028DCD1A86841
:205E800080684068007C0028D6D1802080F3118800BF00BF01E0FFF74CFF60790028FAD10F
:205EA000206910B32069007C0028206902D0806880684068A060C06A0078CD281CBF78208C
:205EC00000F08CFFA068C16B21B149680A001CBF40688847A06890F8381084F8301084F824
:205EE0003110016B491C016307E084F8310084F83000A060207080F31188204670BD614814
:205F0000407808B980F31188704710B55D4C2078401E2070207898B9606888B1802080F354
:205F2000118800BF00BF606830B101202070204600F0B1FF00202070607808B980F3118895
:205F400010BD38B581684F4C41B1226AC2600A68496802B151600A6000218160017C11F0F2
:205F60000301017412D1216989B92061207838B901202070204600F08EFF0020207001E0CA
:205F800001206071607808B980F3118831BD42694B699342E9D38142E8D09A42F6D1034625
:205FA0001B68002BEED05D69AA42EBD18B42F7D1DBE738B54169334C2278521C227004F10B
:205FC0000C0200E01A46136813B15D69A942F9D303600262106043B118625A698A420CBFB8
:205FE00090F83910002180F83810017C51B9802181F3118800BF00BFFFF7A3FF607808B90B
:2060000080F31188BDE831407FE738B51D4C25782078401C2070204600F03DFF2570607882
:2060200008B980F3118831BD10B500F067FF15480121017000F0CCFE044600F0CDFE001BC0
:20604000A0F12002012A05DBCD212046BDE81040FBF77CB810BD0B490A6A10180A7802B121
:2060600009E0802282F3118800BF00BF8968C86004200874C9E7002282F311880A6A121AD0
:20608000FCD47047D0000020FAF782BB00F0E9BF01F023B870B584B0754C00200290022009
:2060A0000190002000900023024608212046FDF74FFC704D01200290022001900020009093
:2060C0000346024608212846FDF742FC002002900220019000200090034602460E2120462B
:2060E000FDF736FC644E0120029002200190002000900346024606213046FDF729FC5F48C4
:20610000006800B10120029002200190002000900023024606212846FDF71AFC0020029094
:206120000220019000200090034611220C212046FDF70EFC002002900220019000200090DA
:206140000346112202212046FDF702FC012002900220019000200090034602460321304607
:20616000FDF7F6FB0120029002200190002000900346024602212846FDF7EAFB0120029076
:2061800002200190002000900346024602213046FDF7DEFB00200290022001900020009090
:2061A0000346024601213046FDF7D2FB0020029002200190002000900346112209212846CC
:2061C000FDF7C6FB0020029002200190002000900346112207213046FDF7BAFB0020029080
:2061E00002200190002000900346112208213046FDF7AEFB0020029002200190002000906F
:20620000034611220A213046FDF7A2FB0020029002200190002000900346112201212046B7
:20622000FDF796FB0020029002200190002000900346112205212846FDF78AFB0020029089
:2062400002200190002000900346112207212846FDF77EFB00200290022001900020009047
:206260000346112204212846FDF772FB04B070BD000402400008024000000240900000204B
:206280002DE9F043044688466768A068C51B44BF206945199542A8BF154615B90020BDE8D0
:2062A000F0832E46206921684018C01BB1468642C8BF81464A4639464046FBF701F8C84419
:2062C0004F44A6EB09062068216909188F4208BF0746002EE6D16760E76028E02DE9F0432F
:2062E000044688461646A7686068C01B451E44BF20694519B542A8BF3546206921684018E8
:20630000C01BB1468642C8BF81464A4641463846FAF7D6FF4F44C844A6EB090620682169E9
:2063200009188F4208BF0746002EE6D1A7602846BDE8F083DFF86803007800B9704738B5CE
:20634000DFF860432078DFF860130978084318D1DFF858532860DFF858030021016001224B
:2063600000A9DFF85003FFF78BFF012809D1DFF84803006A2860012020709DF8000000F07D
:206380000FFF31BD10B50446DFF82C03006ADFF81C130860DFF80803007810B100F0E8FF22
:2063A00040B901222146DFF80C03FFF769FF08B1002010BDBB4800210170012010BD18B421
:2063C000BD49096ABA4A1160BC498A684B689B1A5B1E44BF0C69E31853B110708868401CB4
:2063E0000A6802F20114A04208BF104688605B1EAB48007858B1B248007840B9022B06DAD6
:20640000B048006818B9012012BC00F0AFBF11BC70472DE9F0410446A64DAB4E3078E0B9BC
:2064200000F0A2FFA9490870A54800210170A34F40F20118404600F0D0FF38607860B860D8
:20644000F860C7F81080812000F0C7FF28606860A8608120286101203070286800281EBF66
:2064600096480068002811D0994D9A480068844209D0286808B1401E2860974B974A98492B
:20648000204600F08FFE2868401C28608748002101608748016082488C49097801709148BA
:2064A000012101708B480460BDE8F0818848016801B9704780B5491E016004D100F0DAFEB8
:2064C00084480021016001BD10B1784A1268026011B17748006808607D480068704772B6F4
